:100000000C94D1000C94F9000C94F9000C949D030D
:100010000C949D030C949D030C94F9000C94F9002E
:100020000C94F9000C94F9000C94F9000C94F9006C
:100030000C94F9000C94F9000C94F9000C94F9005C
:100040000C94460B0C94F9000C946B030C94450330
:100050000C94F9000C94F9000C94F9000C94F9003C
:100060000C942D040C94F900D10D3F0E2912E214CA
:10007000E214E214E21436123B12401245124D1201
:10008000E7126213000306090C0F1215181C1F2239
:1000900025282B2E303336393C3F414447494C4EBE
:1000A000515355585A5C5E60626466686A6C6D6F45
:1000B00070727375767778797A7B7C7C7D7E7E7FB3
:1000C0007F7F7F7F7F7F7F7F7F7F7E7E7D7C7C7B4E
:1000D0007A79787776757372706F6D6C6A6866641A
:1000E00062605E5C5A585553514E4C494744413FFB
:1000F0003C393633302E2B2825221F1C1815120FA1
:100100000C09060300FDFAF7F4F1EEEBE8E4E1DE9A
:10011000DBD8D5D2D0CDCAC7C4C1BFBCB9B7B4B281
:10012000AFADABA8A6A4A2A09E9C9A9896949391DA
:10013000908E8D8B8A89888786858484838282814C
:100140008181818100000000240027002A00000036
:100150000008000201000003040700000000000086
:10016000000000000000230026002900010204080E
:100170001020408001020408102001020408102011
:1001800000000000250028002B00040404040404DF
:1001900004040202020202020303030303032D15F7
:1001A0001D1511241FBECFEFD8E0DEBFCDBF24E068
:1001B000A8E5B1E001C01D92AA34B207E1F711E051
:1001C000A0E0B1E0E4E2F9E302C005900D92A835A9
:1001D000B107D9F710E0C0EDD0E004C02197FE01CF
:1001E0000E944A1ACF3CD107C9F70E94900B0C9489
:1001F000851C0C940000FC01538D448D252F30E0AC
:10020000842F90E0821B930B541710F0CF96089523
:1002100001970895FC01918D828D981761F0828D70
:10022000DF01A80FB11D5D968C91928D9F5F9F732A
:10023000928F90E008958FEF9FEF0895FC01918DCC
:10024000828D981731F0828DE80FF11D858D90E039
:1002500008958FEF9FEF0895FC01918D228D892FD6
:1002600090E0805C9F4F821B91098F7399270895BE
:100270008BE592E00E942C0121E0892B09F420E01B
:10028000822F0895FC01848DDF01A80FB11DA35AB0
:10029000BF4F2C91848D90E001968F739927848FA6
:1002A000A689B7892C93A089B1898C9180648C939D
:1002B000938D848D981306C00288F389E02D808188
:1002C0008F7D80830895EF92FF920F931F93CF93BA
:1002D000DF93EC0181E0888F9B8D8C8D981305C096
:1002E000E889F989808185FD24C0F62E0B8D10E008
:1002F0000F5F1F4F0F731127E02E8C8DE8120CC07B
:100300000FB607FCFACFE889F989808185FFF5CF20
:10031000CE010E944201F1CF8B8DFE01E80FF11D4D
:10032000E35AFF4FF0820B8FEA89FB89808180625C
:1003300007C0EE89FF896083E889F989808180643C
:10034000808381E090E0DF91CF911F910F91FF902A
:10035000EF900895CF93DF93EC01888D8823C9F047
:10036000EA89FB89808185FD05C0A889B9898C91BE
:1003700086FD0FC00FB607FCF5CF808185FFF2CF59
:10038000A889B9898C9185FFEDCFCE010E944201E9
:10039000E7CFDF91CF91089580E090E0892B29F09D
:1003A0000E94380181110C940000089520915A0197
:1003B00030915B012817390771F4909158018091B1
:1003C0005901981741F0E0915801F0E0E255FE4FD5
:1003D000808190E008958FEF9FEF089508951F9317
:1003E000CF93DF93DC015C962D913C915D972115B5
:1003F000310539F481E090E013969C938E93129727
:100400003DC05196ED91FC91529750969C9150971A
:10041000892F80951FB75E964C915E9741FB772799
:1004200070F941FD6095F8944081772311F0492BD4
:1004300001C048234083E9012197F1F748E050814A
:1004400060FF02C0592B01C058235083E901219756
:10045000F1F76695415099F7772321F09081892330
:10046000808303C08081982B90831FBF5C968D9101
:100470009C915D970197F1F721E030E0C901DF9190
:10048000CF911F91089520915A0130915B01281757
:10049000390771F4809159012091580190E0805CF6
:1004A0009F4F821B910960E470E00E94171A089523
:1004B00080E090E0089520915A0130915B01281767
:1004C0003907B9F49091580180915901981789F032
:1004D000E0915801F0E0E255FE4F808120915801F3
:1004E00030E02F5F3F4F2F7333272093580190E068
:1004F00008958FEF9FEF08950895E091EF018091A7
:10050000EE01E81730F4F0E0E051FE4F808190E01A
:1005100008958FEF9FEF08959091EF018091EE0184
:10052000981750F4E92FF0E0E051FE4F208130E0C1
:100530009F5F9093EF0102C02FEF3FEFC901089535
:100540008091EE0190E02091EF01821B91090895C6
:10055000089580E090E0089585ED8093BC0080913F
:10056000BC0084FDFCCF10923602089540918901B1
:10057000262F30E0240F311D21323105DCF420918B
:1005800036022430C9F4FC0180E090E0861758F46C
:10059000309189012191DC01A959BE4FA30FB11DF2
:1005A0002C930196F3CF80918901680F60938901A4
:1005B00080E0089581E0089582E00895CF92DF926F
:1005C000EF92FF920F931F93CF93DF937C01262F1F
:1005D000972F8A0180913702882391F0C62FD72F59
:1005E0006E01C40ED51ECC15DD0571F06991D701E1
:1005F000ED91FC910190F081E02DC7010995F3CFB9
:10060000642F822F0E94B602C801DF91CF911F9103
:100610000F91FF90EF90DF90CF900895CF93DF93ED
:100620001F92CDB7DEB76983209137022223D1F024
:1006300020915A02203240F021E030E0FC01338367
:10064000228380E090E015C080913802E82FF0E02E
:10065000E75CFD4F998190838F5F80933802809390
:100660005A0205C061E0CE0101960E94B60281E007
:1006700090E00F90DF91CF910895089508950E9422
:10068000691C0C94071B0C94071B1F920F920FB64A
:100690000F9211242F933F934F935F936F937F9308
:1006A0008F939F93AF93BF93EF93FF938BE592E06C
:1006B0000E944201FF91EF91BF91AF919F918F9165
:1006C0007F916F915F914F913F912F910F900FBE4E
:1006D0000F901F9018951F920F920FB60F92112432
:1006E0002F938F939F93EF93FF93E0916B02F09181
:1006F0006C028081E0917102F091720282FD12C061
:100700009081809174028F5F8F73209175028217A0
:1007100051F0E0917402F0E0E55AFD4F958F80931F
:10072000740201C08081FF91EF919F918F912F9171
:100730000F900FBE0F901F9018951F920F920FB63B
:100740000F9211242F933F934F935F936F937F9357
:100750008F939F93AF93BF93EF93FF93E0915A01D1
:10076000F0915B01309709F451C0968DA685B7854D
:10077000858591FF04C09C91892329F447C09C91F1
:10078000892309F043C0A389B4899C918589809508
:1007900089238C93868997890197F1F7608D718DF4
:1007A000A685B785558538E020E0CB010197F1F7A4
:1007B000822F90E095958795282F4C91452309F03D
:1007C0002068315091F7868D81FD209580915901E7
:1007D00090E001968F73992730915801381749F0AE
:1007E000A0915901B0E0A255BE4F2C9380935901BE
:1007F00003C0868D8160868F828D938D0197F1F77E
:10080000A389B4899C918589892B8C93FF91EF9161
:10081000BF91AF919F918F917F916F915F914F9118
:100820003F912F910F900FBE0F901F901895E09160
:100830005A01F0915B01E817F90769F4A389B489BB
:100840009C918589809589238C9310925B011092ED
:100850005A0181E0089580E008951F920F920FB62B
:100860000F9211242F933F934F935F936F937F9336
:100870008F939F93AF93BF93EF93FF938091B900B2
:10088000887F803609F49CC068F5883209F45BC023
:1008900090F4803109F454C038F4882309F4F6C088
:1008A000883009F44DC0F6C0883109F44CC080325C
:1008B00009F45DC0EFC0803409F468C048F48033A7
:1008C00009F455C0883309F0E5C080933402D8C0DC
:1008D000803509F44FC0883509F45DC0883409F0CB
:1008E000D9C0D6C0883909F4C7C0A8F4883709F43C
:1008F00067C038F4883609F463C0803709F460C0F3
:10090000C9C0883809F4B8C0803909F45FC080389C
:1009100009F0C0C05BC0803B09F486C038F4803A5F
:1009200009F466C0883A09F47FC0B4C0803C09F479
:10093000A7C0883C09F4A4C0883B09F48AC0AAC0B7
:100940008091110210C09091330280913202981769
:1009500070F5E091330281E08E0F80933302F0E076
:10096000EE5EFD4F80818093BB0085EC86C0809356
:1009700034028EC0E091330281E08E0F8093330207
:100980008091BB00F0E0EE5EFD4F808390913302DA
:10099000809132026EC0E091330281E08E0F80932D
:1009A00033028091BB00F0E0EE5EFD4F80838091CA
:1009B000350281116DC081E08093100284EA61C02C
:1009C00083E0809336021092AD01CFCF8091AD01CC
:1009D000803208F051C0E091AD0181E08E0F80932C
:1009E000AD018091BB00F0E0E357FE4F8083BDCFA7
:1009F00085EC8093BC00109236028091AD0180326C
:100A000030F4E091AD01F0E0E357FE4F10826091C9
:100A1000AD0170E0E0918B01F0918C018DE891E0E7
:100A200009951092AD0136C084E080933602109291
:100A30008A0110928901E0918701F091880109955E
:100A400080918901811105C081E080938901109214
:100A50006701E0918A0181E08E0F80938A01F0E0C6
:100A6000E959FE4F80818093BB0090918A0180916B
:100A70008901981708F479CF85E88093BC000AC0F3
:100A800085EC8093BC001092360204C010923402B0
:100A90000E94AC02FF91EF91BF91AF919F918F9116
:100AA0007F916F915F914F913F912F910F900FBE6A
:100AB0000F901F90189508950895FC014481558169
:100AC00060E070E0808591850C94771CFF920F9315
:100AD0001F93CF93DF93EC01FF24F394F60E2F8145
:100AE000F21679F1088519852150B9F06F3F59F454
:100AF00030E040E050E06FEF7FEF80E090E00E9458
:100B00002B1AB9010CC08F2D90E0982F88270197E0
:100B1000622F70E00E94031A02C060E070E0F801EA
:100B20004C815D81CF01801B910B8417950740F4A8
:100B30004081469FC001479F900D11249193F0CFB3
:100B4000FF82DF91CF911F910F91FF9008958F92B7
:100B50009F92AF92BF92CF92DF92EF92FF920F934C
:100B60001F93CF93DF93FC018281938168177907EC
:100B700008F04CC04A01AA24BB24B82DC32ED42EA1
:100B8000E52EFF24AC2D922F8781882361F0889E6B
:100B900040011124B92DC89E60011124AD2D289F5C
:100BA000E00111249D2FD584C285E084F184DC12FC
:100BB00008C09B01220F331F620F731F6E0D7F1D34
:100BC00016C0660F771F660F771F6E0D7F1D052FEE
:100BD000112722273327EB01CD0DD11D882329F0C2
:100BE000089F90011124232F01C0202F2883828584
:100BF000EB01C80FD11DB8838385EB01C80FD11D50
:100C0000A8838485FB01E80FF11D9083DF91CF91CC
:100C10001F910F91FF90EF90DF90CF90BF90AF901A
:100C20009F908F900895CF92DF92EF92FF920F9353
:100C30001F93CF93DF93CDB7DEB729970FB6F89404
:100C4000DEBF0FBECDBF8C01DC0118968D919C914B
:100C50001997892B09F4A3C00E94DB0AF801C68406
:100C6000D784E088F188DC01CB018C199D09AE099D
:100C7000BF098C329140A105B10570F3F894D801F9
:100C800014968D919C9115979A8389831896ED916E
:100C9000FC9119977F01BFEFEB1AFB0A80818987CE
:100CA000F80190810288F389E02DD80154968C9147
:100CB000992309F430C09081982B98879081809572
:100CC00089238F838F818C8388E08B8358856F8104
:100CD00049853B812C8189819A81D701508347FDC9
:100CE000252F3A952083262F39F0441F00C000009D
:100CF0006083000000C0F2CF38E04D9160830000B7
:100D0000019761F7D8015396FC93EE935297498768
:100D10003B832C833AC09081982B98879081809553
:100D200089238F838F818E8388E08D8358856F819F
:100D300049853D812E8189819A81D701508347FD64
:100D4000252F00C000C0208300C000C000C000C02C
:100D500000C060830000262F3A9541F0441F000038
:100D600000C000C000C000C000C0E8CF38E04D9116
:100D700000C0608300C0019709F7D8015396FC9327
:100D8000EE93529749873D832E839A838983789483
:100D90000E94DB0AF80166877787808B918B299602
:100DA0000FB6F894DEBF0FBECDBFDF91CF911F917C
:100DB0000F91FF90EF90DF90CF9008952F923F9288
:100DC0004F925F926F927F928F929F92AF92BF925B
:100DD000CF92DF92EF92FF920F931F93CF93DF9307
:100DE000CDB7DEB7C752D1400FB6F894DEBF0FBE05
:100DF000CDBF8B01FB01E280F380CC24C394C09271
:100E0000370288E6D82ED0925902109238021092FA
:100E10005A0260E088EF92E00E940E0381E00E9497
:100E20000C0A0E94690A88EF92E00E948C02982FB7
:100E300092959F708F70FAE09F9F800D1124CA5D7C
:100E4000DE4F8883C652D140C0923702D0925902F9
:100E50001092380210925A0261E088EF92E00E94EC
:100E60000E0381E00E940C0A0E94690A88EF92E05A
:100E70000E948C02982F92959F708F702AE0929F0B
:100E8000800D1124C95DDE4F8883C752D140C092C6
:100E90003702D09259021092380210925A0262E040
:100EA00088EF92E00E940E0381E00E940C0A0E94EB
:100EB000690A88EF92E00E948C02282F2F7086FF2B
:100EC00004C082958170880F04C0869586958695AA
:100ED0008670982F990F990F890F820FCB5DDE4F87
:100EE0008883C552D140B70180E090E00E94F1169E
:100EF0004B015C0120E030E040E451E40E94BC186A
:100F00002B013C017E0181EFE80EF11C670194E3A7
:100F1000C90ED11C60E070E0CB011701F7016193AD
:100F20007193819391937F01A30192010E945018C4
:100F3000EC14FD0499F720E030E04CE652E4C501E2
:100F4000B4010E94BC184B015C01CE0101967C01EA
:100F500060E070E0CB016701F701619371938193C9
:100F600091937F01A50194010E945018E214F304AB
:100F700099F7F601CA5DDE4F8881C652D14024E060
:100F8000829FE00DF11D1124608171818281938126
:100F90000E9469190E943519462EF601C95DDE4F7F
:100FA0002881C752D14094E0299FE00DF11D112402
:100FB00060817181828193810E9469190E94351933
:100FC000362EF701CB5DDE4F9881C552D14084E0CB
:100FD000989FE00DF11D11246081718182819381C0
:100FE0000E9469190E943519562EE42CF12C4701F4
:100FF000E1E08E1A910820E030E04FE350E0B401C8
:10100000C8010E94A70520E030E04FEF50E0B70193
:10101000C8010E94A705FFEFEF1AFF0A20E030E0A9
:101020004FE350E0B701C8010E94A705C32CD12CA3
:10103000360121E0621A710820E03FE340E050E011
:10104000B301C8010E94A70520E03FEF40E050E057
:10105000B601C8010E94A7058FEFC81AD80A20E080
:101060003FE340E050E0B601C8010E94A705A52C6F
:10107000B12CB501615071092FE330E040E050E040
:10108000C8010E94A7052FEF30E040E050E0B50115
:10109000C8010E94A705B5016F5F7F4F2FE330E0C5
:1010A00040E050E0C8010E94A705341010C020E0C5
:1010B00030E04FE350E0B401C8010E94A70520E0F2
:1010C00030E04FE350E0B701C8010E94A70554107B
:1010D00010C020E030E04FE350E0B401C8010E94AE
:1010E000A70520E030E04FE350E0B701C8010E94BF
:1010F000A70553103BC020E03FE340E050E0B301C0
:10110000C8010E94A70520E03FE340E050E0B6019F
:10111000C8010E94A705541029C020E030E04FE329
:1011200050E0B401C8010E94A70520E030E04FE381
:1011300050E0B701C801C95DDE4F0FB6F894DEBFBD
:101140000FBECDBFDF91CF911F910F91FF90EF9018
:10115000DF90CF90BF90AF909F908F907F906F90D7
:101160005F904F903F902F900C94A705C95DDE4F84
:101170000FB6F894DEBF0FBECDBFDF91CF911F91A8
:101180000F91FF90EF90DF90CF90BF90AF909F9026
:101190008F907F906F905F904F903F902F90089529
:1011A0000F931F938095853560F4682F660F860F27
:1011B000282F209590E0A0E0B0E0BC01CD01822B6B
:1011C00021C08A3A80F48555982F990F980F692F7E
:1011D0006095462F50E060E070E08A019B01192B7A
:1011E000C901B8010FC08A5A682F660F860F282FD1
:1011F000209590E0A0E0B0E0DC0199278827BC01B1
:10120000CD01722B1F910F910895CF92DF92EF9233
:10121000FF920F931F93CF93DF938C016A017B01A1
:10122000C0E0D0E0F80182819381C817D90788F423
:10123000A7019601BE01C8010E94A705C8010E942E
:10124000130662E370E080E090E00E94000B2196BC
:10125000E9CFDF91CF911F910F91FF90EF90DF9039
:10126000CF9008950F931F93CF93DF93EC01888164
:101270009981009729F02A813B812617370788F446
:101280008B016F5F7F4F0E949F1B009761F09983D6
:1012900088831B830A832C813D81232B11F4FC015D
:1012A000108281E001C080E0DF91CF911F910F910A
:1012B0000895EF92FF920F931F93CF93DF93EC016A
:1012C0007B018A01BA010E9432092881398181118A
:1012D0000DC02115310519F0C9010E94071B1982A3
:1012E00018821D821C821B821A8206C01D830C83F9
:1012F000B701C9010E947E1CCE01DF91CF911F91E1
:101300000F91FF90EF90089590E0FC01E25BFE4F9B
:101310003491FC01E459FE4F2491FC01E657FE4F45
:10132000E491EE2309F43BC0332339F1333091F0DB
:1013300038F43130A9F0323001F584B58F7D12C018
:10134000373091F03830A1F03430B9F4809180001A
:101350008F7D03C0809180008F77809380000DC0C7
:1013600084B58F7784BD09C08091B0008F7703C0AA
:101370008091B0008F7D8093B000F0E0EE0FFF1FF2
:10138000E058FE4FA591B4918FB7F894EC9161119C
:1013900003C020952E2301C02E2B2C938FBF0895C0
:1013A000CF93DF9390E0FC01E459FE4F2491FC01C0
:1013B000E657FE4F8491882361F190E0880F991FD2
:1013C000FC01EC5BFE4FC591D491FC01E058FE4F4F
:1013D000A591B491611109C09FB7F89488812095B7
:1013E00082238883EC912E230BC0623061F49FB777
:1013F000F8943881822F809583238883EC912E2B5B
:101400002C939FBF06C08FB7F894E8812E2B2883BA
:101410008FBFDF91CF910895382F20915A0290917C
:101420005902213208F049C0809136028111FCCF67
:1014300042E040933602309335023FEF309334025E
:101440001092330220933202A9E3B2E042E152E06B
:10145000FA013E2F341B321718F43D913193F9CF26
:101460001092110220911102990F922B9093110268
:1014700090911002913061F410921002909111023B
:101480009093BB009091BC0093FDF8CF95EC01C008
:1014900095EE9093BC00909136029230E1F39091DA
:1014A00034029F3F79F080913402803241F0809184
:1014B0003402803331F084E005C081E003C082E073
:1014C00001C083E01092380210925A021092370243
:1014D0000895809136028111FCCF81E0809336021D
:1014E000809335029FEF9093340210923302109252
:1014F00032028093110280911102806D809311025B
:1015000080911002813061F41092100280911102DA
:101510008093BB008091BC0083FDF8CF85EC01C0B7
:1015200085EE8093BC00809136028130E1F380919A
:101530003302811103C08091330201C081E0A2E136
:10154000B2E020EF31E0F9019E2F921B981718F4BA
:101550009D919193F9CF1092EF018093EE01089540
:10156000CF92DF92EF92FF920F931F93CF93DF936F
:101570006C017A018B01C0E0D0E0CE15DF0589F067
:10158000D8016D918D01D601ED91FC910190F08112
:10159000E02DC6010995892B11F47E0102C0219628
:1015A000ECCFC701DF91CF911F910F91FF90EF908A
:1015B000DF90CF9008953FB7F894809142049091C6
:1015C0004304A0914404B091450426B5A89B05C0EE
:1015D0002F3F19F00196A11DB11D3FBFBA2FA92FB2
:1015E000982F8827820F911DA11DB11DBC01CD012F
:1015F00042E0660F771F881F991F4A95D1F708951B
:101600008F929F92AF92BF92CF92DF92EF92FF9212
:101610006B017C010E94DB0A4B015C01C114D10407
:10162000E104F104F1F00E94DB0ADC01CB0188192E
:101630009909AA09BB09883E9340A105B10570F339
:1016400021E0C21AD108E108F10888EE880E83E093
:10165000981EA11CB11CC114D104E104F10419F7B6
:10166000DDCFFF90EF90DF90CF90BF90AF909F9035
:101670008F9008952FB7F89460913E0470913F04C5
:1016800080914004909141042FBF08951F920F92C2
:101690000FB60F9211242F933F938F939F93AF9385
:1016A000BF9380913E0490913F04A0914004B0917B
:1016B000410430913D0423E0230F2D3720F401969F
:1016C000A11DB11D05C026E8230F0296A11DB11D65
:1016D00020933D0480933E0490933F04A0934004E4
:1016E000B09341048091420490914304A09144043A
:1016F000B09145040196A11DB11D809342049093C1
:101700004304A0934404B0934504BF91AF919F91CB
:101710008F913F912F910F900FBE0F901F901895B2
:10172000CF93DF93CDB7DEB7C151D1400FB6F89458
:10173000DEBF0FBECDBF789484B5826084BD84B512
:10174000816084BD85B5826085BD85B5816085BDBC
:1017500080916E00816080936E0010928100809174
:1017600081008260809381008091810081608093FC
:101770008100809180008160809380008091B10021
:1017800084608093B1008091B00081608093B0004C
:1017900080917A00846080937A0080917A008260E0
:1017A00080937A0080917A00816080937A008091A2
:1017B0007A00806880937A001092C10062E0809184
:1017C00037040E94D00960E0809138040E94D0095B
:1017D0001092EF011092EE011092380210925A020C
:1017E0001092360281E0809335021092100261E07F
:1017F00082E10E94840961E083E10E948409809172
:10180000B9008E7F8093B9008091B9008D7F80935D
:10181000B90088E48093B80085E48093BC0080918F
:101820003404909135040E945D0562E38091340494
:10183000909135040E94660500913404109135049E
:10184000D80116968C9187FD08C061E00E94D009EE
:1018500060E0F80186810E94840981E0D801119638
:101860008C9380913404909135040E941306E0918A
:101870006B02F0916C0282E08083E0916702F0914C
:1018800068021082E0916902F0916A0280E180832F
:1018900010927302E0916F02F091700286E08083F3
:1018A000E0916D02F0916E02808180618083E09111
:1018B0006D02F0916E02808188608083E0916D02FC
:1018C000F0916E02808180688083E0916D02F091DA
:1018D0006E0280818F7D80831092300410922F04DD
:1018E00010922E0410922D0410922C0410922B04AE
:1018F0008DE991E09093320480933104909121041A
:10190000963108F057C02DEB30E030932C04209333
:101910002B042BE931E030932E0420932D042CE28C
:1019200031E03093300420932F04209168009830E8
:1019300050F031E09E3008F430E081E001C0880FC3
:101940003A95EAF701C084E0822B809368009830D2
:1019500038F09E3040F0963148F020E030E008C08A
:101960002DE630E005C02BE630E002C02CE630E08A
:101970003093290420932804983030F481E001C08A
:10198000880F9A95EAF70EC0292F30E09E3018F4A0
:101990002850310902C02E50310981E001C0880F62
:1019A0002A95EAF780932A048091310490913204B9
:1019B0000197F1F780912F0490913004892B21F148
:1019C00080915A0190915B01B4E085319B07E1F071
:1019D000009711F00E941704809133048E7F80934A
:1019E0003304109259011092580185E194E09093CC
:1019F0005B0180935A01E0912804F09129049081C1
:101A000080912A04892B8083FE01EF5FFE4FCF5F18
:101A1000DE4FF983E883C150D1409E012B5C3F4FDC
:101A2000CD5FDE4F39832883C350D14085E194E0F8
:101A30000E94430218161906BCF540E050E066E526
:101A400071E084E093E00E9459092EC085E194E0A2
:101A50000E945B028A3379F189831A82009108031C
:101A6000109109030F5F1F4FB80184E093E00E94BB
:101A70003209882399F02091040330910503809165
:101A8000080390910903BE016F5F7F4F820F931F80
:101A90000E947E1C109309030093080361E070E02C
:101AA00080E090E00E94000B85E194E00E944302F8
:101AB000181619065CF2EDB6FEB6809108039091F7
:101AC000090301964DB75EB7481B590B0FB6F89442
:101AD0005EBF0FBE4DBF0DB71EB70F5F1F4F6091AA
:101AE000040370910503C8010E947E1CD8018C91EB
:101AF0008C3309F040C0F8018181803599F58481EB
:101B00008E33C9F58281898383818A83BE016F5FA9
:101B10007F4F80E091E00E947E1C80910001803325
:101B200051F580910101803319F41092660123C0B0
:101B3000813311F481E013C0823311F482E00FC0CD
:101B4000833311F483E00BC0843311F484E007C0C5
:101B5000853311F485E003C0863369F486E0809311
:101B6000660109C0823439F4D80115968C91159715
:101B70008E3309F433C70FB6F894FEBE0FBEEDBE28
:101B8000E09166018E2F90E020903404309035046F
:101B90008730910508F016C7FC01EC5CFF4F0C94F0
:101BA0004A1AC0903B04D0903C04C1010E945D05DC
:101BB000F1016281738180E090E00E94F11620E0E3
:101BC00030E040E451E40E94BC184B015C019E01EE
:101BD0002F5F3F4F7901890160E070E0CB01D801B0
:101BE0006D937D938D939D938D01A50194010E942A
:101BF0005018CD5FDE4FE881F981C350D1400E17F8
:101C00001F0769F75E01F1E3AF0EB11CD7016D91BB
:101C10007D918D919D917D010E9469190E943519D8
:101C2000062F10E0B801615071092FE33FE34FE345
:101C300050E0C1010E94A7052FEF3FEF4FEF50E0AA
:101C4000B801C1010E94A705B8016F5F7F4F2FE364
:101C50003FE34FE350E0C1010E94A705EA14FB04F3
:101C6000A9F6B101C6010E94DE06C1010E94130659
:101C70006AE070E080E090E00E94000BACC60E9439
:101C80003A0B00915E0110915F012091600130914B
:101C90006101061717072807390708F09CC68091CD
:101CA0005C0190915D018038910564F580E480933A
:101CB0007C0080917A00806480937A0080917A0021
:101CC00086FDFCCF809178004091790020915C01E5
:101CD00030915D01F901E35FFC4FDF01A058BF4F78
:101CE00090E0942B97FD039695958795959587950C
:101CF00080588C9310822F5F3F4F30935D0120936B
:101D00005C019CC381E090E020E030E040E850E0DE
:101D100055954795B901640F751F60387105C4F773
:101D2000BA016150710926233723240F351F82170A
:101D30009307CCF4DC01A35FBC4FBD0160587F4F1B
:101D4000FB011081A901435F5C4F7A0140585F4F4E
:101D5000FA010081FB010083FA0110834C91F70125
:101D600050815C93408301968038910579F697E025
:101D7000A92EB12C61E070E0C15FDE4FA882CF5088
:101D8000D1404B01880C991C20E030E0C901C15FB3
:101D9000DE4F0880CF50D14002C0880F991F0A94AF
:101DA000E2F7FC01EC53FF4F4491FC01EC57FF4F6D
:101DB000E491842F440F990BAC0155954795C95F69
:101DC000DE4F59834883C750D140E1950E2E000C59
:101DD000FF0BCF0195958795C75FDE4F9983888369
:101DE000C950D140D901A357BC4FC05FDE4FB98362
:101DF000A883C051D140F901E35FFC4FC05FDE4FC3
:101E000048815981C051D140460F571FC35FDE4FF3
:101E100059834883CD50D140DA010C91002E000C3B
:101E2000110BC95FDE4F48815981C750D140409F97
:101E3000C001419F900D509F900D112446E0959553
:101E400087954A95E1F7DF01A60FB71FCB5FDE4FFD
:101E5000B983A883C550D140EC900E2C000CFF082C
:101E6000C75FDE4FA881B981C950D140AE9DA001A6
:101E7000AF9D500DBE9D500D1124A6E05595479580
:101E8000AA95E1F7B82FB1707B2E6A01D594C7945B
:101E9000572D5C1995958795850F4170841BC95FF7
:101EA000DE4FA881B981C750D140AE9DA001AF9D42
:101EB000500DBE9D500D11247A01B6E0F594E794C3
:101EC000BA95E1F7C75FDE4FA881B981C950D1400B
:101ED000A09FA001A19F500DB09F500D112416E0AE
:101EE000559547951A95E1F78A011595079567016C
:101EF000D594C7940C0D9E2D9170090F4170400F21
:101F00006080062C000C770875946794C05FDE4FE4
:101F1000A881B981C051D1404C90042C000C5508C7
:101F200055944794942D981BC35FDE4FA881B981C7
:101F3000CD50D1409C93962D941BCB5FDE4FA88152
:101F4000B981C550D1409C93840DC05FDE4FA881FC
:101F5000B981C051D1408C93460D4083A80DB91D65
:101F6000C05FDE4FB983A883C051D140E80DF91D91
:101F7000CF018D509340803891050CF43FCF2F5FF7
:101F80003F4F2617370709F001CFB1E0AB1AB10870
:101F9000B40109F0F1CE10925D0110925C01009144
:101FA0005C0110915D01003411050CF041C2F80193
:101FB000E35FFC4FDF01A058BF4F8C916081660248
:101FC000B00111248802600D711D1124072E000C30
:101FD000880B990B0E94F3160E94931920E030E0C1
:101FE00048EC52E40E9452176B017C0120E030E083
:101FF00046E952E40E94641987FD13C2C701B60185
:102000000E943519C62EFE0131967F0160E070E016
:10201000CB01D7016D937D938D939D937D0124E03A
:1020200031E440E95FE30E945018CF5FDE4FE88162
:10203000F981C150D140EE16FF0659F798012F5F84
:102040003F4F59010B30110534F0C8010B970B9726
:1020500008F454C04DC0F801EE0FFF1FEE0FFF1F34
:1020600041E050E04C0F5D1FE40FF51F608171816E
:10207000828193810E9469190E943519D62E8C2D78
:1020800090E0A0E0B0E03C0155244424482A592ABD
:102090006A2A7B2A7501EE0CFF1CEE0CFF1C81E006
:1020A00090E08C0F9D1FE80EF91EF7016081718191
:1020B000828193810E9469190E943519D61628F6EB
:1020C0008D2C912CA3019201B401C1010E94A7059E
:1020D000D10112966D917C91139761507109681925
:1020E0007909A3019201C1010E94A705D394DDCF14
:1020F000C80146970B9708F44DC046C0F801EE0F93
:10210000FF1FEE0FFF1F21E030E02C0F3D1FE20FFD
:10211000F31F60817181828193810E9469190E94FD
:102120003519D62E7501EE0CFF1CEE0CFF1C41E09C
:1021300050E04C0F5D1FE40EF51E4C2C512C612C11
:10214000712CF70160817181828193810E946919EC
:102150000E943519D61660F68D2C912CA3019201A0
:10216000B401C1010E94A705D10112966D917C9125
:1021700013976150710968197909A3019201C1018E
:102180000E94A705D394DDCFC80181970B9708F46F
:1021900055C04EC0F801EE0FFF1FEE0FFF1F21E0EC
:1021A00030E02C0F3D1FE20FF31F608171818281AF
:1021B00093810E9469190E943519D62E8C2D90E0CA
:1021C000A0E0B0E04424582E692E7A2E482A592ADD
:1021D0006A2A7B2A7501EE0CFF1CEE0CFF1C41E005
:1021E00050E04C0F5D1FE40EF51EF7016081718118
:1021F000828193810E9469190E943519D61620F6B2
:102200008D2C912CA3019201B401C1010E94A7055C
:10221000D10112966D917C911397615071096819E3
:102220007909A3019201C1010E94A705D394DDCFD2
:10223000C8018C970A9708F481C049C0F801EE0FD5
:10224000FF1FEE0FFF1F21E030E02C0F3D1FE20FBC
:10225000F31F60817181828193810E9469190E94BC
:102260003519D62E4C2C512C612C712C3201552451
:1022700044247501EE0CFF1CEE0CFF1C41E050E005
:102280004C0F5D1FE40EF51EF701608171818281A4
:1022900093810E9469190E943519D61648F68D2C33
:1022A000912CA3019201B401C1010E94A705D101A3
:1022B00012966D917C911397615071096819790993
:1022C000A3019201C1010E94A705D394DDCFC801EB
:1022D000C6970A9708F0A5C0F801EE0FFF1FEE0F92
:1022E000FF1F21E030E02C0F3D1FE20FF31F608144
:1022F0007181828193810E9469190E943519562E3D
:102300008C2D90E0A0E0B0E04427582F692F7A2F61
:102310007C01DD24CC24C42AD52AE62AF72A652CA0
:10232000712CAA0CBB1CAA0CBB1C41E050E04C0F4A
:102330005D1FA40EB51E852C912C68C0F801EE0F10
:10234000FF1FEE0FFF1F21E030E02C0F3D1FE20FBB
:10235000F31F60817181828193810E9469190E94BB
:102360003519D62E4C2C512C612C712C762C652CC9
:10237000542C44247501EE0CFF1CEE0CFF1C41E0B4
:1023800050E04C0F5D1FE40EF51EF7016081718176
:10239000828193810E9469190E943519D61608F02E
:1023A00096CF8D2C912CA3019201B401C1010E9402
:1023B000A705D10112966D917C9113976150710917
:1023C00068197909A3019201C1010E94A705D3945C
:1023D000DCCF472C450C57E45415B8F0B401670D19
:1023E000711DA7019601C1010E94A705D101129696
:1023F0006D917C9113976150710964197109A7015E
:102400009601C1010E94A70573946394F501608150
:102410007181828193810E9469190E943519661623
:10242000C0F20F5F1F4F10935D0100935C01B7CDA9
:10243000C1010E941306C1010E945D050E943A0B72
:1024400060935E0170935F018093600190936101DE
:10245000C2C2E0910A038E2F90E08730910508F008
:10246000A6C2FC01E55CFF4F0C944A1A40E050E024
:102470006FEF70E00EC040E05FEF60E070E009C019
:102480004FEF50E060E070E004C04FEF5FEF6FEFA0
:1024900070E0C1010E9405098AC2D10112960D9116
:1024A0001C9113970630110510F4015001C005E08E
:1024B00010E001501109612C712CC12CD12CA12CE0
:1024C000B12C812C912CE12CF12CD10112966D9123
:1024D0007C911397E616F70638F5EC14FD0420F00E
:1024E0000E151F0538F40BC00C151D055CF40E15F8
:1024F0001F0540F02FEF3FEF4FEF50E00CC00C15E1
:102500001D05C4F3C4010E94031A862F8A0D0E9480
:10251000D0089B01AC01B701C1010E94A705BFEF24
:10252000EB1AFB0A9394D1CF0E943A0B20916201DF
:10253000309163014091640150916501DC01CB0150
:10254000821B930BA40BB50B8C349105A105B1052F
:10255000C0F00F5F1F4FBFEFCB1ADB0AF101828182
:1025600093810817190719F4FFEF6F1A7F0A0E9469
:102570003A0B6093620170936301809364019093BE
:10258000650123E06216710409F411C2D1011296AB
:102590002D913C911397C801B9010E94031A8C0137
:1025A000C601B9010E94031A6C01C1010E94130601
:1025B00064E170E080E090E00E94000BBFEFAB1A96
:1025C000BB0AA114E1E0BE0609F07BCF78CFE12C75
:1025D000F12C00E010E0D10112968D919C9113979F
:1025E0000817190710F5E0910B03F0910C03EE0D9D
:1025F000FF1D808190E0A0E0B0E05C019924882478
:102600004427582F692F7A2F482959296A297B296D
:102610009A01AB01282B392B4A2B5B2BB801C10146
:102620000E94A7050F5F1F4FD6CF65E070E080E0E6
:1026300090E00E94000BC1010E941306BFEFEB1A4D
:10264000FB0AE114E1E0FE0621F6EE24EA94F12C07
:1026500000E010E0D10112968D919C91139708171C
:10266000190710F5E0910B03F0910C03EE0DFF1D1F
:10267000808190E0A0E0B0E05C01992488244427A8
:10268000582F692F7A2F482959296A297B299A01BD
:10269000AB01282B392B4A2B5B2BB801C1010E94BF
:1026A000A7050F5F1F4FD6CF65E070E080E090E098
:1026B0000E94000BC1010E941306B1E0EB1AF10861
:1026C00038F675C100E010E0A12CB12C812C912CC2
:1026D000C95FDE4F19821882C750D140CB5FDE4FF1
:1026E00019821882C550D140C801012E000CAA0BD6
:1026F000BB0BC75FDE4F88839983AA83BB83C95016
:10270000D140D10112966D917C911397CB5FDE4F32
:10271000E881F981C550D140E617F70708F087C076
:10272000C95FDE4F88819981C750D1400E94031A4A
:10273000862F880D0E94D008C35FDE4F6883CD507E
:10274000D140C15FDE4F7883CF50D140F82EC75FB4
:10275000DE4F688179818A819B81C950D1400E9476
:10276000F31620E030E048EC52E40E94BC182B0144
:102770003C016F2D70E080E090E00E94F316A30111
:1027800092010E9452170E942E19C62ED12CE12CC4
:10279000F12C7601DD24CC24C15FDE4FF881CF50CF
:1027A000D1406F2F70E080E090E00E94F316A3010B
:1027B00092010E9452170E942E19D62AC35FDE4F43
:1027C0002881CD50D140622F70E080E090E00E94DF
:1027D000F316A30192010E9452170E942E19A7011D
:1027E0009601262BCB5FDE4F68817981C550D140A1
:1027F000C1010E94A705CB5FDE4F48815981C550BA
:10280000D1404F5F5F4FCB5FDE4F59834883C55048
:10281000D140C95FDE4F88819981C750D1409395DF
:10282000C95FDE4F99838883C750D1406ACFA11416
:10283000B10491F4B801012E000C880B990B0E9491
:10284000F31620E030E046EC52E40E94EC1687FFDD
:1028500018C00F5F1F4F15C0F2E0AF16B10489F426
:10286000B401092C000C880B990B0E94F31620E090
:1028700030E04BE153E40E946419181614F401503F
:102880001109C1010E94130663E070E080E090E04E
:102890000E94000B2FEF821A920A811431E09306F6
:1028A00009F016CF9FEFA91AB90AA3E0AA16B1043E
:1028B00009F00CCF64EF71E080E090E00E94000B23
:1028C00000E010E0E12CF12CF10182819381E81607
:1028D000F90618F5E0910B03F0910C03E00FF11FDE
:1028E000808190E0A0E0B0E05C0199248824442736
:1028F000582F692F7A2F482959296A297B299A014B
:10290000AB01282B392B4A2B5B2BB701C1010E944D
:10291000A705FFEFEF1AFF0AD7CFC1010E941306E8
:102920000F5F1F4F011521E0120761F660ED77E0A0
:1029300080E090E00E94000B0FEF10E0E12CF12C02
:10294000D10112968D919C911397E816F90618F50E
:10295000E0910B03F0910C03E00FF11F808190E0F8
:10296000A0E0B0E05C01992488244427582F692F07
:102970007A2F482959296A297B299A01AB01282BEA
:10298000392B4A2B5B2BB701C1010E94A705BFEF72
:10299000EB1AFB0AD5CFC1010E94130601501109A1
:1029A00068F664EF71E080E090E00E94000B809197
:1029B0000A038F5F873018F480930A030CC01092CB
:1029C0000A0309C0C1010E945D0580913404909101
:1029D00035040E9413060E94CC0128C812968C91DF
:1029E0001297898313968C9113978A8314968C91EE
:1029F0008B83CE0101960E94C616BC01990F880BED
:102A0000990B0E94F31620E030E048EC52E40E945B
:102A1000BC1820E030E04AE753E40E9452170E94BD
:102A200035198FEF860F8E3F08F0A5C880913404CA
:102A3000909135040E9466059EC880910403909190
:102A400005030E94071B80E391E090931604809396
:102A5000150485E194E00C941704EF92FF920F9314
:102A60001F93CF93DF93CDB7DEB7DA950FB6F89407
:102A7000DEBF0FBECDBF10925E0210925D0288EEE7
:102A800093E0A0E0B0E080935F0290936002A09397
:102A90006102B09362022CE031E030935C0220933B
:102AA0005B0225EC30E0309368022093670224EC4F
:102AB00030E030936A022093690220EC30E03093DA
:102AC0006C0220936B0221EC30E030936E02209375
:102AD0006D0222EC30E03093700220936F0226ECFE
:102AE00030E03093720220937102109274021092BF
:102AF000750210927602109277021092FB021092E9
:102B0000FA028093FC029093FD02A093FE02B09320
:102B1000FF028EE191E09093F9028093F80281E048
:102B200090E00E94721A90933C0480933B0484E0EE
:102B30008093360432E0F32EF09237048EE08093D7
:102B400038048BE0809339048AE080933A0485E16D
:102B500090E00E94721A8C01DC0111961C92119770
:102B600017961C92FC0116861786108A118A81E03E
:102B7000858782871386F486808348E9E42EFF24C4
:102B8000F394F582E48288E991E00E94721AD801F8
:102B900019969C938E931897009769F0FC01970102
:102BA000119221503040E1F788E890E013969C9311
:102BB0008E93129709C0D80115961C921E921497F5
:102BC00013961C921E92129784E0F80186838181ED
:102BD000882341F061E084E00E94D00960E084E055
:102BE0000E948409EEE8F1E0E491F0E0EE0FFF1FAF
:102BF000E058FE4F85919491D80153969C938E9303
:102C00005297E0E7F1E0E4915496EC931093350489
:102C1000009334040091390410913A04109218047E
:102C20001092170488EE93E0A0E0B0E080931904BE
:102C300090931A04A0931B04B0931C0480E391E0CA
:102C4000909316048093150410922C0410922B0478
:102C500010922E0410922D041092300410922F0422
:102C60001092320410923104609133046E7F6D7FB4
:102C7000609333046695617081E06827802F0E941D
:102C8000840961E0802F0E94D009802F90E0FC0130
:102C9000E459FE4FE491E0932504FC01E657FE4F12
:102CA000E491F0E0EE0FFF1FE058FE4F8591949104
:102CB000909327048093260460E0812F0E94D0091E
:102CC0008091330481FD04C061E0812F0E9484095A
:102CD00010932104812F90E0FC01E459FE4FE49110
:102CE000E0932204FC01E657FE4FE491F0E0EE0F82
:102CF000FF1FEE59FE4F8591949190932404809389
:102D000023048EE491E0909314048093130481E4EF
:102D100090E090931204809311040E941018682F81
:102D200070E080E090E00E94F11660930D047093D3
:102D30000E0480930F049093100410920A03CE01A6
:102D4000019690930C0380930B031092050310924D
:102D500004031092070310920603109209031092C5
:102D6000080340E050E066E571E084E093E00E94F3
:102D70005909D3950FB6F894DEBF0FBECDBFDF91D2
:102D8000CF911F910F91FF90EF900895FC0188273C
:102D90009927E89421912032E9F3293010F02E3060
:102DA000C8F32B3241F02D3239F4689404C00E94EC
:102DB000E416820F911D219120532A30C0F31EF496
:102DC000909581959F4F08957AE0979F902D879FCA
:102DD000802D910D112408950E942E1708F481E092
:102DE0000895E89409C097FB3EF4909580957095FE
:102DF00061957F4F8F4F9F4F9923A9F0F92F96E947
:102E0000BB279395F695879577956795B795F111BB
:102E1000F8CFFAF4BB0F11F460FF1BC06F5F7F4F58
:102E20008F4F9F4F16C0882311F096E911C077236A
:102E300021F09EE8872F762F05C0662371F096E873
:102E4000862F70E060E02AF09A95660F771F881F42
:102E5000DAF7880F9695879597F90895990F0008E6
:102E6000550FAA0BE0E8FEEF16161706E807F9075C
:102E7000C0F012161306E407F50798F0621B730BF7
:102E8000840B950B39F40A2661F0232B242B252B78
:102E900021F408950A2609F4A140A6958FEF811D1B
:102EA000811D08950E9465170C94D6170E94C817BB
:102EB00038F00E94CF1720F0952311F00C94BF1723
:102EC0000C94C51711240C940A180E94E71770F38C
:102ED000959FC1F3950F50E0551F629FF001729FBF
:102EE000BB27F00DB11D639FAA27F00DB11DAA1FCE
:102EF000649F6627B00DA11D661F829F2227B00D1B
:102F0000A11D621F739FB00DA11D621F839FA00DA5
:102F1000611D221F749F3327A00D611D231F849FF5
:102F2000600D211D822F762F6A2F11249F5750404C
:102F30009AF0F1F088234AF0EE0FFF1FBB1F661FC7
:102F4000771F881F91505040A9F79E3F510580F090
:102F50000C94BF170C940A185F3FE4F3983ED4F327
:102F6000869577956795B795F795E7959F5FC1F734
:102F7000FE2B880F911D9695879597F9089597F9DF
:102F80009F6780E870E060E008959FEF80EC08950F
:102F900000240A9416161706180609060895002438
:102FA0000A9412161306140605060895092E0394B2
:102FB000000C11F4882352F0BB0F40F4BF2B11F426
:102FC00060FF04C06F5F7F4F8F4F9F4F089557FD85
:102FD0009058440F551F59F05F3F71F04795880F87
:102FE00097FB991F61F09F3F79F08795089512161E
:102FF00013061406551FF2CF4695F1DF08C01616CA
:1030000017061806991FF1CF86957105610508947A
:103010000895E894BB2766277727CB0197F9089591
:10302000F999FECF92BD81BDF89A992780B5089590
:103030002F923F924F925F926F927F928F929F92C8
:10304000AF92BF92CF92DF92EF92FF920F931F93B6
:10305000CF93DF93CDB7DEB7CA1BDB0B0FB6F89467
:10306000DEBF0FBECDBF09942A88398848885F84A7
:103070006E847D848C849B84AA84B984C884DF8018
:10308000EE80FD800C811B81AA81B981CE0FD11DFC
:103090000FB6F894DEBF0FBECDBFED0108955058B6
:1030A000BB27AA270E9467180C94D6170E94C8173E
:1030B00038F00E94CF1720F039F49F3F19F426F41E
:1030C0000C94C5170EF4E095E7FB0C94BF17E92F9D
:1030D0000E94E71758F3BA1762077307840795072A
:1030E00020F079F4A6F50C9409180EF4E0950B2E57
:1030F000BA2FA02D0B01B90190010C01CA01A0014A
:103100001124FF27591B99F0593F50F4503E68F1A4
:103110001A16F040A22F232F342F4427585FF3CFE5
:10312000469537952795A795F0405395C9F77EF4B6
:103130001F16BA0B620B730B840BBAF09150A1F0FF
:10314000FF0FBB1F661F771F881FC2F70EC0BA0F85
:10315000621F731F841F48F4879577956795B7950D
:10316000F7959E3F08F0B0CF9395880F08F0992708
:10317000EE0F9795879508950E94D0180C94D61756
:103180000E94CF1758F00E94C81740F029F45F3F03
:1031900029F00C94BF1751110C940A180C94C51700
:1031A0000E94E71768F39923B1F3552391F3951B18
:1031B000550BBB27AA2762177307840738F09F5F58
:1031C0005F4F220F331F441FAA1FA9F335D00E2EC5
:1031D0003AF0E0E832D091505040E695001CCAF732
:1031E0002BD0FE2F29D0660F771F881FBB1F2617F5
:1031F00037074807AB07B0E809F0BB0B802DBF01CC
:10320000FF2793585F4F3AF09E3F510578F00C949A
:10321000BF170C940A185F3FE4F3983ED4F38695E9
:1032200077956795B795F7959F5FC9F7880F911DBB
:103230009695879597F90895E1E0660F771F881FA7
:10324000BB1F621773078407BA0720F0621B730B5A
:10325000840BBA0BEE1F88F7E09508950E9435198C
:103260006894B1110C940A1808950E94EF1788F021
:103270009F5798F0B92F9927B751B0F0E1F0660F3A
:10328000771F881F991F1AF0BA95C9F714C0B1307B
:1032900091F00E940918B1E008950C940918672F65
:1032A000782F8827B85F39F0B93FCCF386957795AA
:1032B0006795B395D9F73EF4909580957095619593
:1032C0007F4F8F4F9F4F08950E942E1708F48FEF66
:1032D00008950E94EF17E8F09E37E8F09639B8F4A9
:1032E0009E3848F4672F782F8827985FF9CF869506
:1032F0007795679593959539D0F3B62FB1706B0F8D
:10330000711D811D20F487957795679593950C9491
:10331000D3190C94EE190C940A1819F416F40C94A1
:10332000C5170C94EE190E94EF17B8F39923C9F34F
:10333000B6F39F57550B87FF0E94FC190024A0E6A7
:1033400040EA900180585695979528F4805C660F66
:10335000771F881F20F026173707480730F4621BB5
:10336000730B840B202931294A2BA69517940794B7
:10337000202531254A2758F7660F771F881F20F030
:1033800026173707480730F4620B730B840B200DA8
:10339000311D411DA09581F7B901842F9158880FE7
:1033A000969587950895882371F4772321F0985096
:1033B000872B762F07C0662311F499270DC09051F3
:1033C000862B70E060E02AF09A95660F771F881FC1
:1033D000DAF7880F9695879597F908959F3F31F012
:1033E000915020F4879577956795B795880F911D33
:1033F0009695879597F9089591505040660F771FDD
:10340000881FD2F70895AA1BBB1B51E107C0AA1F52
:10341000BB1FA617B70710F0A61BB70B881F991F75
:103420005A95A9F780959095BC01CD01089597FB19
:10343000072E16F4009407D077FD09D00E94031AD6
:1034400007FC05D03EF4909581959F4F08957095A7
:1034500061957F4F0895052E97FB1EF400940E94FE
:10346000421A57FD07D00E94501A07FC03D04EF4B1
:103470000C94421A50954095309521953F4F4F4FEF
:103480005F4F089590958095709561957F4F8F4F10
:103490009F4F0895EE0FFF1F0590F491E02D0994C2
:1034A000A1E21A2EAA1BBB1BFD010DC0AA1FBB1F48
:1034B000EE1FFF1FA217B307E407F50720F0A21BBA
:1034C000B30BE40BF50B661F771F881F991F1A9427
:1034D00069F760957095809590959B01AC01BD0151
:1034E000CF010895CF93DF938230910510F482E0ED
:1034F00090E0E0914804F091490420E030E0C0E021
:10350000D0E0309711F14081518148175907C0F040
:103510004817590761F482819381209719F09B83A2
:103520008A832BC0909349048093480426C02115B8
:10353000310519F04217530718F49A01BE01DF0153
:10354000EF010280F381E02DDCCF2115310509F177
:10355000281B390B2430310590F412968D919C91E3
:1035600013976115710521F0FB019383828304C0D9
:103570009093490480934804FD01329644C0FD01B4
:10358000E20FF31F81939193225031092D933C93C5
:103590003AC02091460430914704232B41F42091F6
:1035A0000401309105013093470420934604209193
:1035B0000201309103012115310541F42DB73EB7C9
:1035C0004091060150910701241B350BE091460400
:1035D000F0914704E217F307A0F42E1B3F0B2817C6
:1035E000390778F0AC014E5F5F4F2417350748F07C
:1035F0004E0F5F1F5093470440934604819391936D
:1036000002C0E0E0F0E0CF01DF91CF9108950F9389
:103610001F93CF93DF93009709F48CC0FC0132977E
:10362000138212820091480410914904011511057A
:1036300081F420813181820F931F209146043091C3
:1036400047042817390779F5F0934704E0934604B7
:1036500071C0D80140E050E0AE17BF0750F4129699
:103660002D913C911397AD012115310509F1D90137
:10367000F3CF9D01DA013383228360817181860F4C
:10368000971F8217930769F4EC0128813981260F6F
:10369000371F2E5F3F4F318320838A819B81938325
:1036A0008283452B29F4F0934904E093480442C0F7
:1036B0001396FC93EE931297ED01499159919E0157
:1036C000240F351FE217F30771F480819181840F75
:1036D000951F029611969C938E93828193811396E7
:1036E0009C938E931297E0E0F0E0D80112968D91B2
:1036F0009C911397009719F0F8018C01F6CF8D91EA
:103700009C9198012E5F3F4F820F931F209146049A
:10371000309147042817390769F4309729F410923B
:1037200049041092480402C0138212821093470485
:1037300000934604DF91CF911F910F910895A0E06F
:10374000B0E0E5EAFBE10C941C18EC01009721F4D1
:10375000CB010E94721AB8C0FC01E60FF71F9C0152
:1037600022503109E217F30708F4ACC0D9010D91DA
:103770001C91119706171707B0F00530110508F4D2
:103780009FC0C80104978617970708F499C0025094
:103790001109061B170B019311936D937C93CF01B5
:1037A0000E94071B8DC05B01A01AB10A4C01800E5C
:1037B000911EA0914804B091490440E050E0E12CF2
:1037C000F12C109709F44AC0A815B905D1F56D90F0
:1037D0007C901197630182E0C80ED11CCA14DB04EF
:1037E00080F1A3014A195B096A0182E0C80ED11C6D
:1037F0001296BC9012971396AC91B5E0CB16D104FB
:1038000040F0B282A38351834083D9016D937C93AE
:103810000AC00E5F1F4FC301800F911FF9019183F2
:103820008083EB2DFA2FE114F10431F0D7011396C8
:10383000FC93EE93129744C0F0934904E09348043C
:103840003FC08D919C9111974817590708F4AC011E
:103850007D0112960D90BC91A02DB3CF80914604AE
:103860009091470488159905E1F446175707C8F465
:103870008091020190910301009741F48DB79EB7AA
:103880004091060150910701841B950BE817F90739
:10389000C8F4F0934704E0934604F9017183608310
:1038A0000FC0CB010E94721A7C01009759F0A80149
:1038B000BE010E946E1CCE010E94071BC70104C0FE
:1038C000CE0102C080E090E0CDB7DEB7EEE00C9410
:1038D000381881E090E0F8940C94851CFB01DC0121
:1038E00002C001900D9241505040D8F70895DC017C
:1038F00001C06D9341505040E0F70895FB01DC0199
:1039000001900D920020E1F7089510E0C0EDD0E0A5
:1039100004C0FE010E944A1A2196C13DD107C9F791
:04392000F894FFCF49
:10392400303000004A048000000000006301B00A47
:10393400FB00AA012C010A011E01000000000E0375
:10394400DE02A9027C02A0028C027D0200000000BB
:10395400EF01B00AA902EE0143025B02D6010000A6
:1039640000005C0541033E033D03000000005B05CD
:0839740043033E033D03000084
:00000001FF
