:100000000C94CA000C94F2000C94F2000C94960329
:100010000C9496030C9496030C94F2000C94F2004A
:100020000C94F2000C94F2000C94F2000C94F20088
:100030000C94F2000C94F2000C94F2000C94F20078
:100040000C947C0C0C94F2000C9464030C943E030E
:100050000C94F2000C94F2000C94F2000C94F20058
:100060000C9410040C94F2006E0FDD0FC7131016E1
:10007000101610161016000306090C0F1215181C86
:100080001F2225282B2E303336393C3F4144474927
:100090004C4E515355585A5C5E60626466686A6C97
:1000A0006D6F70727375767778797A7B7C7C7D7EE4
:1000B0007E7F7F7F7F7F7F7F7F7F7F7F7E7E7D7C58
:1000C0007C7B7A79787776757372706F6D6C6A68FD
:1000D000666462605E5C5A585553514E4C494744C1
:1000E000413F3C393633302E2B2825221F1C181552
:1000F000120F0C09060300FDFAF7F4F1EEEBE8E449
:10010000E1DEDBD8D5D2D0CDCAC7C4C1BFBCB9B738
:10011000B4B2AFADABA8A6A4A2A09E9C9A989694A8
:100120009391908E8D8B8A8988878685848483823B
:1001300082818181818100000000240027002A0043
:100140000000000800020100000304070000000096
:10015000000000000000000023002600290001022A
:100160000408102040800102040810200102040845
:10017000102000000000250028002B0004040404C7
:100180000404040402020202020203030303030341
:100190004C16461611241FBECFEFD8E0DEBFCDBFF0
:1001A00024E0A8E5B1E001C01D92AC32B207E1F74E
:1001B00011E0A0E0B1E0E2EEFAE302C005900D929A
:1001C000A835B107D9F710E0C9ECD0E004C02197F9
:1001D000FE010E94291BC83CD107C9F70E94C60C2A
:1001E0000C94641D0C940000FC01538D448D252F4C
:1001F00030E0842F90E0821B930B541710F0CF96C1
:10020000089501970895FC01918D828D981761F0F2
:10021000828DDF01A80FB11D5D968C91928D9F5F3D
:100220009F73928F90E008958FEF9FEF0895FC01E8
:10023000918D828D981731F0828DE80FF11D858D9B
:1002400090E008958FEF9FEF0895FC01918D228D2E
:10025000892F90E0805C9F4F821B91098F739927B3
:1002600008958BE592E00E94250121E0892B09F495
:1002700020E0822F0895FC01848DDF01A80FB11DBD
:10028000A35ABF4F2C91848D90E001968F739927CC
:10029000848FA689B7892C93A089B1898C918064B9
:1002A0008C93938D848D981306C00288F389E02D7A
:1002B00080818F7D80830895EF92FF920F931F932B
:1002C000CF93DF93EC0181E0888F9B8D8C8D981309
:1002D00005C0E889F989808185FD24C0F62E0B8D43
:1002E00010E00F5F1F4F0F731127E02E8C8DE81267
:1002F0000CC00FB607FCFACFE889F989808185FF29
:10030000F5CFCE010E943B01F1CF8B8DFE01E80FAE
:10031000F11DE35AFF4FF0820B8FEA89FB89808140
:10032000806207C0EE89FF896083E889F98980814E
:100330008064808381E090E0DF91CF911F910F91E5
:10034000FF90EF900895CF93DF93EC01888D882381
:10035000C9F0EA89FB89808185FD05C0A889B98932
:100360008C9186FD0FC00FB607FCF5CF808185FF0D
:10037000F2CFA889B9898C9185FFEDCFCE010E947B
:100380003B01E7CFDF91CF91089580E090E0892B8A
:1003900029F00E94310181110C94000008952091F0
:1003A0005A0130915B012817390771F49091580177
:1003B00080915901981741F0E0915801F0E0E25521
:1003C000FE4F808190E008958FEF9FEF089508958C
:1003D0001F93CF93DF93DC015C962D913C915D9749
:1003E0002115310539F481E090E013969C938E93AA
:1003F00012973DC05196ED91FC91529750969C9169
:100400005097892F80951FB75E964C915E9741FB60
:10041000772770F941FD6095F8944081772311F0BA
:10042000492B01C048234083E9012197F1F748E0B7
:10043000508160FF02C0592B01C058235083E9014D
:100440002197F1F76695415099F7772321F0908134
:100450008923808303C08081982B90831FBF5C9683
:100460008D919C915D970197F1F721E030E0C901F2
:10047000DF91CF911F91089520915A0130915B0136
:100480002817390771F4809159012091580190E0A3
:10049000805C9F4F821B910960E470E00E94F61A15
:1004A000089580E090E0089520915A0130915B0119
:1004B00028173907B9F4909158018091590198177C
:1004C00089F0E0915801F0E0E255FE4F80812091E3
:1004D000580130E02F5F3F4F2F733327209358018F
:1004E00090E008958FEF9FEF08950895E09137020F
:1004F00080913602E81730F4F0E0E85CFD4F80812F
:1005000090E008958FEF9FEF0895909137028091CA
:100510003602981750F4E92FF0E0E85CFD4F208197
:1005200030E09F5F9093370202C02FEF3FEFC90189
:1005300008958091360290E020913702821B910944
:100540000895089580E090E0089585ED8093BC00C3
:100550008091BC0084FDFCCF10923502089540913B
:100560008901262F30E0240F311D21323105DCF4C2
:10057000209135022430C9F4FC0180E090E0861718
:1005800058F4309189012191DC01A959BE4FA30F84
:10059000B11D2C930196F3CF80918901680F609370
:1005A000890180E0089581E0089582E00895CF9266
:1005B000DF92EF92FF920F931F93CF93DF937C0113
:1005C000262F972F8A0180915A02882391F0C62FF7
:1005D000D72F6E01C40ED51ECC15DD0571F06991C3
:1005E000D701ED91FC910190F081E02DC7010995B3
:1005F000F3CF642F822F0E94AF02C801DF91CF9109
:100600001F910F91FF90EF90DF90CF900895CF93BF
:10061000DF931F92CDB7DEB7698320915A02222360
:10062000D1F020915802203240F021E030E0FC016E
:100630003383228380E090E015C080915902E82F37
:10064000F0E0E151FE4F998190838F5F80935902D2
:100650008093580205C061E0CE0101960E94AF026E
:1006600081E090E00F90DF91CF9108950895089573
:100670000E94481D0C94E61B0C94E61B1F920F92DF
:100680000FB60F9211242F933F934F935F936F9365
:100690007F938F939F93AF93BF93EF93FF938BE5DC
:1006A00092E00E943B01FF91EF91BF91AF919F912A
:1006B0008F917F916F915F914F913F912F910F900B
:1006C0000FBE0F901F9018951F920F920FB60F92AA
:1006D00011242F938F939F93EF93FF93E0916B02DD
:1006E000F0916C028081E0917102F091720282FDC2
:1006F00012C09081809174028F5F8F732091750278
:10070000821751F0E0917402F0E0E55AFD4F958FA9
:100710008093740201C08081FF91EF919F918F912E
:100720002F910F900FBE0F901F9018951F920F9250
:100730000FB60F9211242F933F934F935F936F93B4
:100740007F938F939F93AF93BF93EF93FF93E0912A
:100750005A01F0915B01309709F451C0968DA6853E
:10076000B785858591FF04C09C91892329F447C0F2
:100770009C91892309F043C0A389B4899C91858900
:10078000809589238C93868997890197F1F7608DED
:10079000718DA685B785558538E020E0CB0101979E
:1007A000F1F7822F90E095958795282F4C9145235E
:1007B00009F02068315091F7868D81FD2095809158
:1007C000590190E001968F7399273091580138179D
:1007D00049F0A0915901B0E0A255BE4F2C938093EF
:1007E000590103C0868D8160868F828D938D01971C
:1007F000F1F7A389B4899C918589892B8C93FF910A
:10080000EF91BF91AF919F918F917F916F915F9188
:100810004F913F912F910F900FBE0F901F90189501
:100820001F920F920FB60F9211242F933F934F9365
:100830005F936F937F938F939F93AF93BF93EF9348
:10084000FF938091B900887F803609F49CC068F5D9
:10085000883209F45BC090F4803109F454C038F454
:10086000882309F4F6C0883009F44DC0F6C08831F9
:1008700009F44CC0803209F45DC0EFC0803409F443
:1008800068C048F4803309F455C0883309F0E5C0E6
:1008900080933302D8C0803509F44FC0883509F4FD
:1008A0005DC0883409F0D9C0D6C0883909F4C7C002
:1008B000A8F4883709F467C038F4883609F463C0AF
:1008C000803709F460C0C9C0883809F4B8C08039DD
:1008D00009F45FC0803809F0C0C05BC0803B09F4F8
:1008E00086C038F4803A09F466C0883A09F47FC0BB
:1008F000B4C0803C09F4A7C0883C09F4A4C0883B7C
:1009000009F48AC0AAC08091300210C090913202CE
:1009100080913102981770F5E091320281E08E0FDC
:1009200080933202F0E0E15FFD4F80818093BB0055
:1009300085EC86C0809333028EC0E091320281E064
:100940008E0F809332028091BB00F0E0E15FFD4F9B
:10095000808390913202809131026EC0E091320228
:1009600081E08E0F809332028091BB00F0E0E15F66
:10097000FD4F80838091340281116DC081E08093AE
:100980002F0284EA61C083E0809335021092AD01AA
:10099000CFCF8091AD01803208F051C0E091AD0120
:1009A00081E08E0F8093AD018091BB00F0E0E357B2
:1009B000FE4F8083BDCF85EC8093BC001092350242
:1009C0008091AD01803230F4E091AD01F0E0E35769
:1009D000FE4F10826091AD0170E0E0918B01F091CB
:1009E0008C018DE891E009951092AD0136C084E04C
:1009F0008093350210928A0110928901E09187015B
:100A0000F0918801099580918901811105C081E0EB
:100A10008093890110926701E0918A0181E08E0F35
:100A200080938A01F0E0E959FE4F80818093BB00FA
:100A300090918A0180918901981708F479CF85E80F
:100A40008093BC000AC085EC8093BC0010923502F4
:100A500004C0109233020E94A502FF91EF91BF9152
:100A6000AF919F918F917F916F915F914F913F9146
:100A70002F910F900FBE0F901F9018951F93CF933B
:100A8000DF93EC01E881F9810084F185E02D09957F
:100A90001816190694F440E050E067E571E088E12B
:100AA00094E00E94800A09C0812F0E94E10961E060
:100AB00070E080E090E00E94360CE881F9810084CB
:100AC000F185E02DCE01099518161906DCF4E881B0
:100AD000F9810284F385E02DCE010995182FE0916C
:100AE0005B02F0915C020190F081E02D682F8BE5B4
:100AF00092E009951E33C1F68EE30E94E10981E080
:100B00008093EE01DF91CF911F910895089508958C
:100B1000FC014481558160E070E0808591850C94F2
:100B2000561DFF920F931F93CF93DF93EC01FF2489
:100B3000F394F60E2F81F21679F10885198521506C
:100B4000B9F06F3F59F430E040E050E06FEF7FEFD5
:100B500080E090E00E940A1BB9010CC08F2D90E04C
:100B6000982F88270197622F70E00E94E21A02C036
:100B700060E070E0F8014C815D81CF01801B910B3A
:100B80008417950740F44081469FC001479F900D10
:100B900011249193F0CFFF82DF91CF911F910F919C
:100BA000FF9008958F929F92AF92BF92CF92DF9263
:100BB000EF92FF920F931F93CF93DF93FC018281FB
:100BC00093816817790708F04CC04A01AA24BB2416
:100BD000B82DC32ED42EE52EFF24AC2D922F878165
:100BE000882361F0889E40011124B92DC89E6001C0
:100BF0001124AD2D289FE00111249D2FD584C2859D
:100C0000E084F184DC1208C09B01220F331F620FC5
:100C1000731F6E0D7F1D16C0660F771F660F771F3F
:100C20006E0D7F1D052F112722273327EB01CD0DD8
:100C3000D11D882329F0089F90011124232F01C082
:100C4000202F28838285EB01C80FD11DB8838385AF
:100C5000EB01C80FD11DA8838485FB01E80FF11DAE
:100C60009083DF91CF911F910F91FF90EF90DF90D4
:100C7000CF90BF90AF909F908F900895CF92DF92CA
:100C8000EF92FF920F931F93CF93DF93CDB7DEB711
:100C900029970FB6F894DEBF0FBECDBF8C01DC01E3
:100CA00018968D919C911997892B09F4A3C00E94E5
:100CB000110CF801C684D784E088F188DC01CB01EF
:100CC0008C199D09AE09BF098C329140A105B1056F
:100CD00070F3F894D80114968D919C9115979A838E
:100CE00089831896ED91FC9119977F01BFEFEB1A5C
:100CF000FB0A80818987F80190810288F389E02DC1
:100D0000D80154968C91992309F430C09081982B86
:100D100098879081809589238F838F818C8388E049
:100D20008B8358856F8149853B812C8189819A818C
:100D3000D701508347FD252F3A952083262F39F080
:100D4000441F00C000006083000000C0F2CF38E004
:100D50004D9160830000019761F7D8015396FC9391
:100D6000EE93529749873B832C833AC09081982B0E
:100D700098879081809589238F838F818E8388E0E7
:100D80008D8358856F8149853D812E8189819A8126
:100D9000D701508347FD252F00C000C0208300C02D
:100DA00000C000C000C000C060830000262F3A953C
:100DB00041F0441F000000C000C000C000C000C0DF
:100DC000E8CF38E04D9100C0608300C0019709F77B
:100DD000D8015396FC93EE93529749873D832E8317
:100DE0009A83898378940E94110CF801668777872B
:100DF000808B918B29960FB6F894DEBF0FBECDBFC6
:100E0000DF91CF911F910F91FF90EF90DF90CF90E6
:100E100008950F931F93CF93DF93EC0188819981FD
:100E2000009729F02A813B812617370788F48B0128
:100E30006F5F7F4F0E947E1C009761F099838883CB
:100E40001B830A832C813D81232B11F4FC0110822A
:100E500081E001C080E0DF91CF911F910F91089553
:100E60002F923F924F925F926F927F928F929F92BA
:100E7000AF92BF92CF92DF92EF92FF920F931F93A8
:100E8000CF93DF93CDB7DEB7CD52D1400FB6F894F4
:100E9000DEBF0FBECDBF8B01DB0112962D903C90C3
:100EA000139788E60E94330B80E090E00E94E10BEC
:100EB0000E94840B0E943D0B88EF92E00E94850205
:100EC000982F92959F708F70BAE09B9F800D112490
:100ED000C85DDE4F8883C852D14088E60E94330B3C
:100EE00081E090E00E94E10B0E94840B0E943D0B88
:100EF00088EF92E00E948502982F92959F708F70E4
:100F0000EAE09E9F800D1124C65DDE4F8883CA52A1
:100F1000D14088E60E94330B82E090E00E94E10B12
:100F20000E94840B0E943D0B88EF92E00E94850294
:100F3000282F2F7086FF04C082958170880F04C00F
:100F40008695869586958670982F990F990F890FAB
:100F5000820FC95DDE4F8883C752D140B10180E066
:100F600090E00E94D0174B015C0120E030E040E4AB
:100F700051E40E949B192B013C017E01F1EFEF0E21
:100F8000F11C670124E3C20ED11C60E070E0CB01CC
:100F9000CB5DDE4FF982E882C552D140D7016D9317
:100FA0007D938D939D937D01A30192010E942F1942
:100FB000EC14FD0499F720E030E04CE652E4C50162
:100FC000B4010E949B194B015C01FE0131967F0127
:100FD00060E070E0CB01D7016D937D938D939D937D
:100FE0007D01A50194010E942F19CB5DDE4FE881A0
:100FF000F981C552D140EE16FF0669F7B101769529
:10100000679580E090E00E94D0176B017C01E1E0E1
:10101000F0E0EC0FFD1FC85DDE4F3881C852D140B3
:1010200024E0329FE00DF11D112440805180628048
:101030007380A30192010E942F190E94481A0E94F6
:10104000141AC75DDE4F6883C952D140E1E0F0E079
:10105000EC0FFD1FC65DDE4F9881CA52D14084E07F
:10106000989FE00DF11D112480809180A280B380B3
:10107000A5019401C701B6010E942F190E94481AC8
:101080000E94141AC85DDE4F6883C852D140E1EF58
:10109000F0E0EC0FFD1FC95DDE4FB881C752D140B3
:1010A000A4E0BA9FE00DF11D112480819181A281FD
:1010B000B381C65DDE4F88839983AA83BB83CA52FE
:1010C000D1409C01AD01C701B6010E942F190E94B9
:1010D000481A0E94141AC95DDE4F6883C752D14076
:1010E000C75DDE4FA881C952D1408A2F90E02816F3
:1010F000390678F4A7019601C301B2010E942E19A6
:101100000E94481A0E94141AC75DDE4F6883C952B4
:10111000D140C85DDE4FB881C852D1408B2F90E0DE
:101120002816390678F4A7019601C501B4010E947A
:101130002E190E94481A0E94141AC85DDE4F688357
:10114000C852D140C95DDE4FE881C752D1408E2FD1
:1011500090E028163906A8F4A7019601C65DDE4F77
:10116000688179818A819B81CA52D1400E942E195F
:101170000E94481A0E94141AC95DDE4F6883C75244
:10118000D140C75DDE4FF881C952D140EF2EF12C1E
:10119000570121E0A21AB10820E030E04FE350E00F
:1011A000B501C8010E94D20520E030E04FEF50E0C9
:1011B000B701C8010E94D2053FEFE31AF30A20E00D
:1011C00030E04FE350E0B701C8010E94D205C85D8E
:1011D000DE4F8881C852D140682E712C430191E0C6
:1011E000891A910820E03FE340E050E0B401C801D3
:1011F0000E94D20520E03FEF40E050E0B301C8017B
:101200000E94D205AFEF6A1A7A0A20E03FE340E07D
:1012100050E0B301C8010E94D205C95DDE4FB8811C
:10122000C752D140CB2ED12CB601615071092FE3AA
:1012300030E040E050E0C8010E94D2052FEF30E0DE
:1012400040E050E0B601C8010E94D205B6016F5FD0
:101250007F4F2FE330E040E050E0C8010E94D2050C
:10126000C85DDE4FE881C852D140C75DDE4FF881CE
:10127000C952D140EF1310C020E030E04FE350E0FE
:10128000B501C8010E94D20520E030E04FE350E0F4
:10129000B701C8010E94D205C95DDE4F2881C7523F
:1012A000D140C75DDE4F3881C952D14023133AC0C7
:1012B00020E030E04FE350E0B501C8010E94D205C4
:1012C00020E030E04FE350E0B701C8010E94D205B2
:1012D000C95DDE4F8881C752D140C85DDE4F98811D
:1012E000C852D140891353C020E03FE340E050E0B2
:1012F000B401C8010E94D20520E03FE340E050E085
:10130000B301C8010E94D20520E030E04FE350E075
:10131000B501C8010E94D20520E030E04FE350E063
:10132000B70119C0C95DDE4FA881C752D140C85D61
:10133000DE4FB881C852D140AB1329C020E03FE353
:1013400040E050E0B401C8010E94D20520E03FE334
:1013500040E050E0B301C801C35DDE4F0FB6F89422
:10136000DEBF0FBECDBFDF91CF911F910F91FF90D8
:10137000EF90DF90CF90BF90AF909F908F907F9035
:101380006F905F904F903F902F900C94D205C35D6B
:10139000DE4F0FB6F894DEBF0FBECDBFDF91CF9109
:1013A0001F910F91FF90EF90DF90CF90BF90AF9083
:1013B0009F908F907F906F905F904F903F902F9075
:1013C00008950F931F93CF93DF9300D0CDB7DEB76F
:1013D00089831A8200911C0410911D040F5F1F4F16
:1013E000B80188E194E00E9409078823A1F02091C8
:1013F00018043091190480911C0490911D04BE01C1
:101400006F5F7F4F820F931F0E945D1D10931D041D
:1014100000931C0481E00F900F90DF91CF911F91FA
:101420000F9108950F931F938095853560F4682F71
:10143000660F860F282F209590E0A0E0B0E0BC0159
:10144000CD01822B21C08A3A80F48555982F990FBF
:10145000980F692F6095462F50E060E070E08A0198
:101460009B01192BC901B8010FC08A5A682F660F5A
:10147000860F282F209590E0A0E0B0E0DC019927AE
:101480008827BC01CD01722B1F910F9108958F9277
:101490009F92AF92BF92EF92FF920F931F93CF93C1
:1014A000DF938C014A015B017901C0E0D0E0F801D3
:1014B00062817381C617D707C0F4A5019401BE01EC
:1014C000C8010E94D205C8010E943E0662E370E096
:1014D00080E090E00E94360CC7010E943E0580919A
:1014E000EE01811102C02196E2CFDF91CF911F91D1
:1014F0000F91FF90EF90BF90AF909F908F900895C5
:10150000EF92FF920F931F93CF93DF93EC017B0138
:101510008A01BA010E9409072881398181110DC011
:101520002115310519F0C9010E94E61B19821882A4
:101530001D821C821B821A8206C01D830C83B70188
:10154000C9010E945D1DCE01DF91CF911F910F91C6
:10155000FF90EF90089590E0FC01E05CFE4F349125
:10156000FC01E25AFE4F2491FC01E458FE4FE49145
:10157000EE2309F43BC0332339F1333091F038F4D2
:101580003130A9F0323001F584B58F7D12C037308B
:1015900091F03830A1F03430B9F4809180008F7D23
:1015A00003C0809180008F77809380000DC084B548
:1015B0008F7784BD09C08091B0008F7703C0809180
:1015C000B0008F7D8093B000F0E0EE0FFF1FEE586B
:1015D000FE4FA591B4918FB7F894EC91611103C0BF
:1015E00020952E2301C02E2B2C938FBF0895CF93CF
:1015F000DF9390E0FC01E25AFE4F2491FC01E45895
:10160000FE4F8491882361F190E0880F991FFC01BF
:10161000EA5CFE4FC591D491FC01EE58FE4FA591B6
:10162000B491611109C09FB7F894888120958223F5
:101630008883EC912E230BC0623061F49FB7F8943D
:101640003881822F809583238883EC912E2B2C93D5
:101650009FBF06C08FB7F894E8812E2B28838FBFD9
:10166000DF91CF91089591E090935A0280931E04E8
:1016700010925902109258020895809135028111FA
:10168000FCCF81E080933502809334029FEF9093EA
:101690003302109232021092310280933002809114
:1016A0003002806D8093300280912F02813061F48E
:1016B00010922F02809130028093BB008091BC0079
:1016C00083FDF8CF85EC01C085EE8093BC0080914E
:1016D00035028130E1F380913202811103C08091A3
:1016E000320201C081E0AFE0B2E028E332E0F9016C
:1016F0009E2F921B981718F49D919193F9CF1092F9
:1017000037028093360208952091580290911E046A
:10171000213208F04AC0809135028111FCCF32E0BD
:101720003093350231E0309334023FEF309333028F
:101730001092320220933102AFEEB1E04FE052E05E
:10174000FA013E2F341B321718F43D913193F9CF33
:101750001092300220913002990F922B9093300218
:1017600090912F02913061F410922F0290913002EB
:101770009093BB009091BC0093FDF8CF95EC01C015
:1017800095EE9093BC00909135029230E1F39091E8
:1017900033029F3F79F080913302803241F0809193
:1017A0003302803331F084E005C081E003C082E081
:1017B00001C083E0109259021092580210925A020E
:1017C0000895682F88EF92E00C940703CF92DF9280
:1017D000EF92FF920F931F93CF93DF936C017A01E7
:1017E0008B01C0E0D0E0CE15DF0589F0D8016D9106
:1017F0008D01D601ED91FC910190F081E02DC601A3
:101800000995892B11F47E0102C02196ECCFC70106
:10181000DF91CF911F910F91FF90EF90DF90CF90CC
:1018200008953FB7F8948091240490912504A091E5
:101830002604B091270426B5A89B05C02F3F19F0B8
:101840000196A11DB11D3FBFBA2FA92F982F882740
:10185000820F911DA11DB11DBC01CD0142E0660F9B
:10186000771F881F991F4A95D1F708958F929F92ED
:10187000AF92BF92CF92DF92EF92FF926B017C0109
:101880000E94110C4B015C01C114D104E104F1046C
:10189000F1F00E94110CDC01CB0188199909AA0909
:1018A000BB09883E9340A105B10570F321E0C21A3F
:1018B000D108E108F10888EE880E83E0981EA11C8B
:1018C000B11CC114D104E104F10419F7DDCFFF907C
:1018D000EF90DF90CF90BF90AF909F908F90089542
:1018E0002FB7F89460912004709121048091220414
:1018F000909123042FBF08951F920F920FB60F925D
:1019000011242F933F938F939F93AF93BF93809115
:10191000200490912104A0912204B09123043091DD
:101920001F0423E0230F2D3720F40196A11DB11DC4
:1019300005C026E8230F0296A11DB11D20931F04A8
:101940008093200490932104A0932204B093230455
:101950008091240490912504A0912604B09127043D
:101960000196A11DB11D8093240490932504A0939A
:101970002604B0932704BF91AF919F918F913F911F
:101980002F910F900FBE0F901F901895CF93DF935C
:10199000CDB7DEB7C251D1400FB6F894DEBF0FBE4F
:1019A000CDBF789484B5826084BD84B5816084BDE8
:1019B00085B5826085BD85B5816085BD80916E00ED
:1019C000816080936E00109281008091810082601E
:1019D000809381008091810081608093810080915B
:1019E00080008160809380008091B100846080934A
:1019F000B1008091B00081608093B00080917A0046
:101A0000846080937A0080917A00826080937A006B
:101A100080917A00816080937A0080917A0080685A
:101A200080937A001092C10062E0809112040E94BB
:101A3000F70A60E0809113040E94F70A10923702BF
:101A400010923602109259021092580210923502EA
:101A500081E08093340210922F0261E082E10E94C3
:101A6000AB0A61E083E10E94AB0A8091B9008E7FEE
:101A70008093B9008091B9008D7F8093B90088E48C
:101A80008093B80085E48093BC0080910F0490910E
:101A900010040E94880562E380910F049091100465
:101AA0000E94910500910F0410911004D801169620
:101AB0008C9187FD08C061E00E94F70A60E0F801A0
:101AC00086810E94AB0A81E0D80111968C938091A7
:101AD0000F04909110040E943E0688E60E94330B8A
:101AE00082E090E00E94E10B0E94840B0E943D0B7B
:101AF00088EF92E00E948502182F88E60E94330B3F
:101B000082E090E00E94E10B612F606488EF92E038
:101B10000E9407030E94840B88E60E94330B86E034
:101B200090E00E94E10B67E688EF92E00E940703D5
:101B30000E94840B88E60E94330B85E090E00E94AF
:101B4000E10B68E088EF92E00E9407030E94840B9B
:101B500088E60E94330B84E090E00E94E10B61E292
:101B600088EF92E00E9407030E94840B88E60E949F
:101B7000330B82E090E00E94E10B0E94840B0E94F4
:101B80003D0B88EF92E00E94850288E60E94330BAD
:101B900082E090E00E94E10B60E188EF92E00E9419
:101BA00007030E94840B88E60E94330B81E090E0DB
:101BB0000E94E10B68E188EF92E00E9407030E9417
:101BC000840B88E60E94330B80E090E00E94E10BDA
:101BD00069E588EF92E00E9407030E94840B88E683
:101BE0000E94330B8FE090E00E94E10B0E94840B77
:101BF0000E943D0B88EF92E00E948502182F88E634
:101C00000E94330B8FE090E00E94E10B612F6F7711
:101C100088EF92E00E9407030E94840BE0916B0220
:101C2000F0916C0282E08083E0916702F09168029B
:101C30001082E0916902F0916A0280E18083109243
:101C40007302E0916F02F091700286E08083E09170
:101C50006D02F0916E02808180618083E0916D025F
:101C6000F0916E02808188608083E0916D02F09136
:101C70006E02808180688083E0916D02F0916E0237
:101C800080818F7D8083E0910D04F0910E04138E8E
:101C9000128E118E108E178A168A8DE991E0958F1B
:101CA000848F8485863108F04DC02DEB30E0378B72
:101CB000268B2BE931E0318F208F2CE231E0338FFE
:101CC000228F90916800883050F021E08E3008F427
:101CD00020E081E001C0880F2A95EAF701C084E086
:101CE000892B809368009485983038F09E3040F0BE
:101CF000963148F020E030E008C02DE630E005C025
:101D00002BE630E002C02CE630E0348B238B983099
:101D100030F481E001C0880F9A95EAF70EC0292FB0
:101D200030E09E3018F42850310902C02E5031099D
:101D300081E001C0880F2A95EAF7858B848D958D07
:101D40000197F1F7828D938D892B49F140915A01CA
:101D500050915B014E175F0711F14115510571F06C
:101D6000DA0153962D913C915497D9019C91DA0157
:101D700055968C9180958923D9018C93868D8E7F81
:101D8000868F1092590110925801F0935B01E093F5
:101D90005A01A389B4899C918589892B8C93809160
:101DA0000D0490910E040097F1F3FE01EF5FFE4FDA
:101DB000CF5FDE4FF983E883C150D1409E012B5C99
:101DC0003F4FCD5FDE4F39832883C350D140809190
:101DD0000D0490910E040E943E058091EE0188232F
:101DE00009F46BC01092EE01EDB6FEB680911C04B2
:101DF00090911D0401964DB75EB7481B590B0FB665
:101E0000F8945EBF0FBE4DBF0DB71EB70F5F1F4FDB
:101E10006091180470911904C8010E945D1DD801D9
:101E20008C918C3309F044C011968C9111978035B8
:101E3000C1F514968C9114978E33D1F512968C912E
:101E40001297898313968C918A83BE016F5F7F4FAF
:101E500080E091E00E945D1D80910001803341F59A
:101E600080910101803319F41092660121C0813301
:101E700011F481E013C0823311F482E00FC0833388
:101E800011F483E00BC0843311F484E007C0853380
:101E900011F485E003C0863359F486E0809366012F
:101EA00007C0823429F4F80185818E3309F4C4C651
:101EB0000FB6F894FEBE0FBEEDBEE09166018E2F08
:101EC00090E020900F04309010048730910508F0C6
:101ED000A7C6FC01EC5CFF4F0C94291BC0901604B4
:101EE000D0901704C1010E948805D10112966D910E
:101EF0007C91139780E090E00E94D01720E030E0C2
:101F000040E451E40E949B194B015C01FE013196B3
:101F10007F018F0160E070E0CB01D8016D937D936C
:101F20008D939D938D01A50194010E942F19CD5F82
:101F3000DE4FE881F981C350D1400E171F0769F7C2
:101F40005E01F1E3AF0EB11CD7016D917D918D91D2
:101F50009D917D010E94481A0E94141A062F10E0DC
:101F6000B801615071092FE33FE34FE350E0C10135
:101F70000E94D2052FEF3FEF4FEF50E0B801C101B3
:101F80000E94D205B8016F5F7F4F2FE33FE34FE31D
:101F900050E0C1010E94D205EA14FB04A9F6B10188
:101FA000C6010E943007C1010E943E066AE070E04F
:101FB00080E090E00E94360C3CC60E94700C0091BC
:101FC0005E0110915F01209160013091610106175F
:101FD00017072807390708F02CC680915C019091FB
:101FE0005D018038910564F580E480937C008091E8
:101FF0007A00806480937A0080917A0086FDFCCF1D
:10200000809178004091790020915C0130915D01D0
:10201000F901EB5FFC4FDF01A058BF4F90E0942B1C
:1020200097FD0396959587959595879580588C9300
:1020300010822F5F3F4F30935D0120935C019CC362
:1020400081E090E020E030E040E850E05595479591
:10205000B901640F751F60387105C4F7BA0161508A
:10206000710926233723240F351F82179307CCF4D9
:10207000DC01AB5FBC4FBD0160587F4FFB0110819D
:10208000A9014B5F5C4F7A0140585F4FFA01008114
:10209000FB010083FA0110834C91F70150815C939E
:1020A000408301968038910579F697E0A92EB12CEE
:1020B00061E070E0C15FDE4FA882CF50D1404B019C
:1020C000880C991C20E030E0C901C15FDE4F088018
:1020D000CF50D14002C0880F991F0A94E2F7FC014B
:1020E000EA54FF4F4491FC01EA58FF4FE491842FDA
:1020F000440F990BAC0155954795C95FDE4F598345
:102100004883C750D140E1950E2E000CFF0BCF0144
:1021100095958795C75FDE4F99838883C950D140D5
:10212000D901AB57BC4FCF5EDE4FB983A883C151F5
:10213000D140F901EB5FFC4FCF5EDE4F4881598102
:10214000C151D140460F571FC55FDE4F59834883A9
:10215000CB50D140DA010C91002E000C110BC95F5D
:10216000DE4F48815981C750D140409FC001419FF7
:10217000900D509F900D112446E0959587954A95B6
:10218000E1F7DF01A60FB71FCB5FDE4FB983A8834E
:10219000C550D140EC900E2C000CFF08C75FDE4FFD
:1021A000A881B981C950D140AE9DA001AF9D500D0D
:1021B000BE9D500D1124A6E055954795AA95E1F7CF
:1021C000B82FB1707B2E6A01D594C794572D5C1936
:1021D00095958795850F4170841BC95FDE4FA88157
:1021E000B981C750D140AE9DA001AF9D500DBE9D9D
:1021F000500D11247A01B6E0F594E794BA95E1F711
:10220000C75FDE4FA881B981C950D140A09FA0010E
:10221000A19F500DB09F500D112416E05595479584
:102220001A95E1F78A01159507956701D594C7942A
:102230000C0D9E2D9170090F4170400F6080062C8F
:10224000000C770875946794CF5EDE4FA881B98142
:10225000C151D1404C90042C000C55085594479422
:10226000942D981BC55FDE4FA881B981CB50D1401A
:102270009C93962D941BCB5FDE4FA881B981C550EE
:10228000D1409C93840DCF5EDE4FA881B981C151AE
:10229000D1408C93460D4083A80DB91DCF5EDE4F13
:1022A000B983A883C151D140E80DF91DCF018550F4
:1022B0009340803891050CF43FCF2F5F3F4F261796
:1022C000370709F001CFB1E0AB1AB108B40109F04A
:1022D000F1CE10925D0110925C0100915C011091B1
:1022E0005D01003411050CF041C2F801EB5FFC4FB9
:1022F000DF01A058BF4F8C9160816602B0011124AC
:102300008802600D711D1124072E000C880B990B9B
:102310000E94D2170E94721A20E030E048EC52E48A
:102320000E9431186B017C0120E030E046E952E464
:102330000E94431A87FD13C2C701B6010E94141AF6
:10234000C62EFE0131967F0160E070E0CB01D7011F
:102350006D937D938D939D937D0124E031E440E95D
:102360005FE30E942F19CF5FDE4FE881F981C150F2
:10237000D140EE16FF0659F798012F5F3F4F5901E4
:102380000B30110534F0C8010B970B9708F454C0BB
:102390004DC0F801EE0FFF1FEE0FFF1F41E050E0B0
:1023A0004C0F5D1FE40FF51F608171818281938165
:1023B0000E94481A0E94141AD62E8C2D90E0A0E09C
:1023C000B0E03C0155244424482A592A6A2A7B2A31
:1023D0007501EE0CFF1CEE0CFF1C81E090E08C0FF1
:1023E0009D1FE80EF91EF701608171818281938142
:1023F0000E94481A0E94141AD61628F68D2C912C89
:10240000A3019201B401C1010E94D205D10112962B
:102410006D917C9113976150710968197909A30135
:102420009201C1010E94D205D394DDCFC801469725
:102430000B9708F44DC046C0F801EE0FFF1FEE0FDA
:10244000FF1F21E030E02C0F3D1FE20FF31F6081E2
:102450007181828193810E94481A0E94141AD62E9B
:102460007501EE0CFF1CEE0CFF1C41E050E04C0F20
:102470005D1FE40EF51E4C2C512C612C712CF701C4
:1024800060817181828193810E94481A0E94141A8E
:10249000D61660F68D2C912CA3019201B401C101D6
:1024A0000E94D205D10112966D917C9113976150D3
:1024B000710968197909A3019201C1010E94D2052D
:1024C000D394DDCFC80181970B9708F455C04EC057
:1024D000F801EE0FFF1FEE0FFF1F21E030E02C0F81
:1024E0003D1FE20FF31F60817181828193810E9401
:1024F000481A0E94141AD62E8C2D90E0A0E0B0E06D
:102500004424582E692E7A2E482A592A6A2A7B2A70
:102510007501EE0CFF1CEE0CFF1C41E050E04C0F6F
:102520005D1FE40EF51EF701608171818281938148
:102530000E94481A0E94141AD61620F68D2C912C4F
:10254000A3019201B401C1010E94D205D1011296EA
:102550006D917C9113976150710968197909A301F4
:102560009201C1010E94D205D394DDCFC8018C979E
:102570000A9708F481C049C0F801EE0FFF1FEE0F63
:10258000FF1F21E030E02C0F3D1FE20FF31F6081A1
:102590007181828193810E94481A0E94141AD62E5A
:1025A0004C2C512C612C712C320155244424750182
:1025B000EE0CFF1CEE0CFF1C41E050E04C0F5D1FC9
:1025C000E40EF51EF70160817181828193810E9482
:1025D000481A0E94141AD61648F68D2C912CA30185
:1025E0009201B401C1010E94D205D10112966D91F0
:1025F0007C9113976150710968197909A3019201BF
:10260000C1010E94D205D394DDCFC801C6970A97B5
:1026100008F0A5C0F801EE0FFF1FEE0FFF1F21E02D
:1026200030E02C0F3D1FE20FF31F6081718182812A
:1026300093810E94481A0E94141A562E8C2D90E005
:10264000A0E0B0E04427582F692F7A2F7C01DD24C9
:10265000CC24C42AD52AE62AF72A652C712CAA0C88
:10266000BB1CAA0CBB1C41E050E04C0F5D1FA40E2C
:10267000B51E852C912C68C0F801EE0FFF1FEE0FE0
:10268000FF1F21E030E02C0F3D1FE20FF31F6081A0
:102690007181828193810E94481A0E94141AD62E59
:1026A0004C2C512C612C712C762C652C542C4424F0
:1026B0007501EE0CFF1CEE0CFF1C41E050E04C0FCE
:1026C0005D1FE40EF51EF7016081718182819381A7
:1026D0000E94481A0E94141AD61608F096CF8D2C24
:1026E000912CA3019201B401C1010E94D205D10134
:1026F00012966D917C91139761507109681979094F
:10270000A3019201C1010E94D205D394DCCF472CD2
:10271000450C57E45415B8F0B401670D711DA701BD
:102720009601C1010E94D205D10112966D917C9152
:1027300013976150710964197109A7019601C101CC
:102740000E94D20573946394F50160817181828146
:1027500093810E94481A0E94141A6616C0F20F5FF5
:102760001F4F10935D0100935C01B7CDC1010E9422
:102770003E06C1010E9488050E94700C60935E01B4
:1027800070935F01809360019093610152C2409009
:102790000D0450900E04809104038230E9F058F447
:1027A0008823A1F0813009F030C2920140E05FEF50
:1027B00060E070E016C08430F1F0B8F0863009F0C7
:1027C00024C200E010E0612C712CB6C0920140E000
:1027D00050E06FEF70E005C092014FEF50E060E015
:1027E00070E0C1010E94470A10C292014FEF5FEFF3
:1027F0006FEF70E0F6CFD10112960D911C911397F7
:102800000630110510F4015001C005E010E0015040
:102810001109612C712CC12CD12CA12CB12C812C33
:10282000912CE12CF12CD10112966D917C91139792
:10283000E616F70638F5EC14FD0420F00E151F051A
:1028400038F40BC00C151D055CF40E151F0540F087
:102850002FEF3FEF4FEF50E00CC00C151D05C4F3F8
:10286000C4010E94E21A862F8A0D0E94120A9B015F
:10287000AC01B701C1010E94D205BFEFEB1AFB0A00
:102880009394D1CF0E94700C20916201309163012A
:102890004091640150916501DC01CB01821B930BD7
:1028A000A40BB50B8C349105A105B105C0F00F5FE9
:1028B0001F4FBFEFCB1ADB0AF1018281938108170A
:1028C000190719F4FFEF6F1A7F0A0E94700C6093CA
:1028D000620170936301809364019093650123E02A
:1028E0006216710409F491C1D10112962D913C91A7
:1028F0001397C801B9010E94E21A8C01C601B901FF
:102900000E94E21A6C01C1010E943E0664E170E07F
:1029100080E090E00E94360CC2010E943E0580914A
:10292000EE01811172C1BFEFAB1ABB0AA114E1E045
:10293000BE0609F074CF71CFCB5FDE4F19821882CB
:10294000C550D140C75FDE4F19821882C950D140AF
:10295000C95FDE4F19821882C750D1409801012EFD
:10296000000C440B550BC55FDE4F288339834A8327
:102970005B83CB50D140D10112966D917C9113971E
:10298000C95FDE4FE881F981C750D140E617F707EC
:1029900008F08BC0C75FDE4F88819981C950D14054
:1029A0000E94E21ACB5FDE4F8881C550D140860F6E
:1029B0000E94120AC15FDE4F6883CF50D140C05FD2
:1029C000DE4F7883C051D140F82EC55FDE4F68815D
:1029D00079818A819B81CB50D1400E94D21720E01F
:1029E00030E048EC52E40E949B194B015C016F2DD2
:1029F00070E080E090E00E94D217A50194010E944F
:102A000031180E940D1AC62ED12CE12CF12C760122
:102A1000DD24CC24C05FDE4FF881C051D1406F2F40
:102A200070E080E090E00E94D217A50194010E941E
:102A300031180E940D1AD62AC15FDE4F2881CF506F
:102A4000D140622F70E080E090E00E94D217A50193
:102A500094010E9431180E940D1AA7019601262B9D
:102A6000C95FDE4F68817981C750D140C1010E94A2
:102A7000D205C95FDE4F48815981C750D1404F5FB1
:102A80005F4FC95FDE4F59834883C750D140C75F4E
:102A9000DE4F88819981C950D1409395C75FDE4F41
:102AA00099838883C950D14066CF6114710491F431
:102AB000B801012E000C880B990B0E94D21720E060
:102AC00030E046EC52E40E94CB1787FF1DC00F5F39
:102AD0001F4F1AC0F2E06F167104B1F4CB5FDE4FE6
:102AE00028813981C550D140B901330F880B990B2A
:102AF0000E94D21720E030E04BE153E40E94431AD9
:102B0000181614F401501109C1010E943E0663E039
:102B100070E080E090E00E94360CC2010E943E0509
:102B20008091EE01811171C0CB5FDE4F48815981E8
:102B3000C550D1404F5F5F4FCB5FDE4F5983488315
:102B4000C550D1404115514009F0FCCE3FEF631A0A
:102B5000730A43E06416710409F0EECE64EF71E08D
:102B600080E090E00E94360CE12CFF24F39400E01A
:102B700010E0D10112968D919C91139708171907B7
:102B800040F0C1010E943E06B1E0EB1AF10879F76E
:102B90000BC02FEF3FEF4FEF50E0B801C1010E9493
:102BA000D2050F5F1F4FE5CFC2010E943E05809105
:102BB000EE0181112AC060ED77E080E090E00E9494
:102BC000360CE12CFF24F39400E010E0F101828147
:102BD00093810817190770F0C1010E943E06F1E0C9
:102BE000EF1AF10889F764EF71E080E090E00E944D
:102BF000360C0BC02FEF3FEF4FEF50E0B801C10193
:102C00000E94D2050F5F1F4FE1CF809104038F5FB9
:102C1000873018F4809304030CC01092040309C099
:102C2000C1010E94880580910F04909110040E94B8
:102C30003E060E94C501CBC88281898383818A8335
:102C400084818B83CE0101960E94A517BC01990F48
:102C5000880B990B0E94D21720E030E048EC52E438
:102C60000E949B1920E030E04AE753E40E943118AB
:102C70000E94141A8FEF860F8E3F08F019C98091B9
:102C80000F04909110040E94910512C980911804BC
:102C9000909119040C94E61B0F931F93CF93DF932D
:102CA00010925E0210925D0288EE93E0A0E0B0E028
:102CB00080935F0290936002A0936102B0936202DE
:102CC0002DE031E030935C0220935B0225EC30E094
:102CD000309368022093670224EC30E030936A025C
:102CE0002093690220EC30E030936C0220936B0259
:102CF00021EC30E030936E0220936D0222EC30E044
:102D00003093700220936F0226EC30E03093720211
:102D10002093710210927402109275021092760242
:102D2000109277021092FB021092FA028093FC023A
:102D30009093FD02A093FE02B093FF028FE191E019
:102D40009093F9028093F8021092190410921804DB
:102D500010921B0410921A0410921D0410921C046D
:102D600040E050E067E571E088E194E00E94800A6D
:102D700081E090E00E94511B909317048093160409
:102D800084E08093110412E0109312048EE080938B
:102D900013048BE0809314048AE08093150485E18A
:102DA00090E00E94511BEC0119821F821E861F8633
:102DB000188A198A81E08D878A871B861C878883F9
:102DC00008E911E01D830C8388E991E00E94511B02
:102DD00099878887009759F0FC019801119221503A
:102DE0003040E1F788E890E09B838A8304C01D822D
:102DF0001C821B821A8284E08E838981882341F0A1
:102E000061E084E00E94F70A60E084E00E94AB0A7F
:102E1000E0E8F1E0E491F0E0EE0FFF1FEE58FE4F26
:102E2000859194919B8B8A8BE2E6F1E0E491EC8BA7
:102E3000D0931004C0930F04109115040091140452
:102E40008FE190E00E94511BEC011B821A8288EEF8
:102E500093E0A0E0B0E08C839D83AE83BF8381E3E9
:102E600091E0998388831F8A1E8A198E188E1B8E83
:102E70001A8E1D8E1C8E6E8D6E7F6D7F6E8F669589
:102E8000617081E06827802F0E94AB0A61E0802F8B
:102E90000E94F70A802F90E0FC01E25AFE4FE49175
:102EA000E88BFC01E458FE4FE491F0E0EE0FFF1FC9
:102EB000EE58FE4F859194919A8B898B60E0812F1B
:102EC0000E94F70A8E8D81FD04C061E0812F0E946F
:102ED000AB0A1C87212F30E0F901E25AFE4FE49142
:102EE000ED87F901E458FE4FE491F0E0EE0FFF1F8B
:102EF000EC5AFE4F859194919F878E87D0930E0454
:102F0000C0930D048FE491E090930C0480930B0424
:102F100081E490E090930A04809309040E94EF18E2
:102F2000682F70E080E090E00E94D0176093050465
:102F3000709306048093070490930804109204038E
:102F4000DF91CF911F910F910895FC018827992758
:102F5000E89421912032E9F3293010F02E30C8F3A3
:102F60002B3241F02D3239F4689404C00E94C3170B
:102F7000820F911D219120532A30C0F31EF49095A9
:102F800081959F4F08957AE0979F902D879F802D80
:102F9000910D112408950E940D1808F481E0089500
:102FA000E89409C097FB3EF49095809570956195E3
:102FB0007F4F8F4F9F4F9923A9F0F92F96E9BB2799
:102FC0009395F695879577956795B795F111F8CF15
:102FD000FAF4BB0F11F460FF1BC06F5F7F4F8F4F80
:102FE0009F4F16C0882311F096E911C0772321F076
:102FF0009EE8872F762F05C0662371F096E8862F0E
:1030000070E060E02AF09A95660F771F881FDAF764
:10301000880F9695879597F90895990F0008550F91
:10302000AA0BE0E8FEEF16161706E807F907C0F04E
:1030300012161306E407F50798F0621B730B840B56
:10304000950B39F40A2661F0232B242B252B21F430
:1030500008950A2609F4A140A6958FEF811D811DD0
:1030600008950E9444180C94B5180E94A71838F0CF
:103070000E94AE1820F0952311F00C949E180C9429
:10308000A41811240C94E9180E94C61870F3959F97
:10309000C1F3950F50E0551F629FF001729FBB274F
:1030A000F00DB11D639FAA27F00DB11DAA1F649FEB
:1030B0006627B00DA11D661F829F2227B00DA11D9E
:1030C000621F739FB00DA11D621F839FA00D611D24
:1030D000221F749F3327A00D611D231F849F600D45
:1030E000211D822F762F6A2F11249F5750409AF06E
:1030F000F1F088234AF0EE0FFF1FBB1F661F771FFA
:10310000881F91505040A9F79E3F510580F00C94C4
:103110009E180C94E9185F3FE4F3983ED4F386952B
:1031200077956795B795F795E7959F5FC1F7FE2B64
:10313000880F911D9695879597F9089597F99F6740
:1031400080E870E060E008959FEF80EC089500242F
:103150000A941616170618060906089500240A94FC
:1031600012161306140605060895092E0394000C82
:1031700011F4882352F0BB0F40F4BF2B11F460FF11
:1031800004C06F5F7F4F8F4F9F4F089557FD90583A
:10319000440F551F59F05F3F71F04795880F97FB1B
:1031A000991F61F09F3F79F08795089512161306D5
:1031B0001406551FF2CF4695F1DF08C01616170604
:1031C0001806991FF1CF8695710561050894089539
:1031D000E894BB2766277727CB0197F90895F999DB
:1031E000FECF92BD81BDF89A992780B508952F92A0
:1031F0003F924F925F926F927F928F929F92AF9287
:10320000BF92CF92DF92EF92FF920F931F93CF93D3
:10321000DF93CDB7DEB7CA1BDB0B0FB6F894DEBF6A
:103220000FBECDBF09942A88398848885F846E8490
:103230007D848C849B84AA84B984C884DF80EE80DA
:10324000FD800C811B81AA81B981CE0FD11D0FB6E3
:10325000F894DEBF0FBECDBFED0108955058BB27D7
:10326000AA270E9446190C94B5180E94A71838F096
:103270000E94AE1820F039F49F3F19F426F40C9404
:10328000A4180EF4E095E7FB0C949E18E92F0E9419
:10329000C61858F3BA17620773078407950720F01A
:1032A00079F4A6F50C94E8180EF4E0950B2EBA2FDD
:1032B000A02D0B01B90190010C01CA01A00111243C
:1032C000FF27591B99F0593F50F4503E68F11A16E8
:1032D000F040A22F232F342F4427585FF3CF469579
:1032E00037952795A795F0405395C9F77EF41F169B
:1032F000BA0B620B730B840BBAF09150A1F0FF0F65
:10330000BB1F661F771F881FC2F70EC0BA0F621F50
:10331000731F841F48F4879577956795B795F79540
:103320009E3F08F0B0CF9395880F08F09927EE0FD5
:103330009795879508950E94AF190C94B5180E942F
:10334000AE1858F00E94A71840F029F45F3F29F00A
:103350000C949E1851110C94E9180C94A4180E9416
:10336000C61868F39923B1F3552391F3951B550BB8
:10337000BB27AA2762177307840738F09F5F5F4F48
:10338000220F331F441FAA1FA9F335D00E2E3AF087
:10339000E0E832D091505040E695001CCAF72BD09F
:1033A000FE2F29D0660F771F881FBB1F26173707F0
:1033B0004807AB07B0E809F0BB0B802DBF01FF2722
:1033C00093585F4F3AF09E3F510578F00C949E1849
:1033D0000C94E9185F3FE4F3983ED4F38695779513
:1033E0006795B795F7959F5FC9F7880F911D9695DB
:1033F000879597F90895E1E0660F771F881FBB1F37
:10340000621773078407BA0720F0621B730B840BE3
:10341000BA0BEE1F88F7E09508950E94141A68947D
:10342000B1110C94E91808950E94CE1888F09F57A6
:1034300098F0B92F9927B751B0F0E1F0660F771FD8
:10344000881F991F1AF0BA95C9F714C0B13091F0CE
:103450000E94E818B1E008950C94E818672F782FBF
:103460008827B85F39F0B93FCCF386957795679593
:10347000B395D9F73EF490958095709561957F4FFF
:103480008F4F9F4F08950E940D1808F48FEF0895F5
:103490000E94CE18E8F09E37E8F09639B8F49E38CE
:1034A00048F4672F782F8827985FF9CF869577950E
:1034B000679593959539D0F3B62FB1706B0F711D49
:1034C000811D20F487957795679593950C94B21A92
:1034D0000C94CD1A0C94E91819F416F40C94A41851
:1034E0000C94CD1A0E94CE18B8F39923C9F3B6F301
:1034F0009F57550B87FF0E94DB1A0024A0E640EA85
:10350000900180585695979528F4805C660F771F38
:10351000881F20F026173707480730F4621B730B0B
:10352000840B202931294A2BA6951794079420252E
:1035300031254A2758F7660F771F881F20F0261776
:103540003707480730F4620B730B840B200D311DD5
:10355000411DA09581F7B901842F9158880F969548
:1035600087950895882371F4772321F09850872B4D
:10357000762F07C0662311F499270DC09051862B32
:1035800070E060E02AF09A95660F771F881FDAF7DF
:10359000880F9695879597F908959F3F31F0915040
:1035A00020F4879577956795B795880F911D969527
:1035B000879597F9089591505040660F771F881F9F
:1035C000D2F70895AA1BBB1B51E107C0AA1FBB1F5E
:1035D000A617B70710F0A61BB70B881F991F5A959F
:1035E000A9F780959095BC01CD01089597FB072E12
:1035F00016F4009407D077FD09D00E94E21A07FC68
:1036000005D03EF4909581959F4F089570956195F2
:103610007F4F0895052E97FB1EF400940E94211BF6
:1036200057FD07D00E942F1B07FC03D04EF40C94CB
:10363000211B50954095309521953F4F4F4F5F4F3F
:10364000089590958095709561957F4F8F4F9F4F0E
:103650000895EE0FFF1F0590F491E02D0994A1E26B
:103660001A2EAA1BBB1BFD010DC0AA1FBB1FEE1FFC
:10367000FF1FA217B307E407F50720F0A21BB30B47
:10368000E40BF50B661F771F881F991F1A9469F7C3
:1036900060957095809590959B01AC01BD01CF011F
:1036A0000895CF93DF938230910510F482E090E08B
:1036B000E0912A04F0912B0420E030E0C0E0D0E05B
:1036C000309711F14081518148175907C0F04817D0
:1036D000590761F482819381209719F09B838A8333
:1036E0002BC090932B0480932A0426C0211531050A
:1036F00019F04217530718F49A01BE01DF01EF01D8
:103700000280F381E02DDCCF2115310509F1281B62
:10371000390B2430310590F412968D919C911397BA
:103720006115710521F0FB019383828304C090939E
:103730002B0480932A04FD01329644C0FD01E20F60
:10374000F31F81939193225031092D933C933AC0FA
:103750002091280430912904232B41F42091050164
:10376000309106013093290420932804209103010D
:10377000309104012115310541F42DB73EB7409138
:10378000070150910801241B350BE0912804F091AA
:103790002904E217F307A0F42E1B3F0B2817390763
:1037A00078F0AC014E5F5F4F2417350748F04E0F9D
:1037B0005F1F50932904409328048193919302C082
:1037C000E0E0F0E0CF01DF91CF9108950F931F93D8
:1037D000CF93DF93009709F48CC0FC0132971382DA
:1037E000128200912A0410912B040115110581F415
:1037F00020813181820F931F209128043091290468
:103800002817390779F5F0932904E093280471C04B
:10381000D80140E050E0AE17BF0750F412962D914A
:103820003C911397AD012115310509F1D901F3CF71
:103830009D01DA013383228360817181860F971F96
:103840008217930769F4EC0128813981260F371F0D
:103850002E5F3F4F318320838A819B8193838283B4
:10386000452B29F4F0932B04E0932A0442C01396CD
:10387000FC93EE931297ED01499159919E01240F0B
:10388000351FE217F30771F480819181840F951F32
:10389000029611969C938E938281938113969C93AA
:1038A0008E931297E0E0F0E0D80112968D919C91F2
:1038B0001397009719F0F8018C01F6CF8D919C9128
:1038C00098012E5F3F4F820F931F20912804309163
:1038D00029042817390769F4309729F410922B042A
:1038E00010922A0402C013821282109329040093BA
:1038F0002804DF91CF911F910F910895A0E0B0E0CF
:10390000E4E8FCE10C94FB18EC01009721F4CB01F6
:103910000E94511BB8C0FC01E60FF71F9C0122500A
:103920003109E217F30708F4ACC0D9010D911C91DD
:10393000119706171707B0F00530110508F49FC05E
:10394000C80104978617970708F499C00250110917
:10395000061B170B019311936D937C93CF010E946B
:10396000E61B8DC05B01A01AB10A4C01800E911EAE
:10397000A0912A04B0912B0440E050E0E12CF12CFE
:10398000109709F44AC0A815B905D1F56D907C903F
:103990001197630182E0C80ED11CCA14DB0480F1C8
:1039A000A3014A195B096A0182E0C80ED11C129674
:1039B000BC9012971396AC91B5E0CB16D10440F0B1
:1039C000B282A38351834083D9016D937C930AC053
:1039D0000E5F1F4FC301800F911FF90191838083F8
:1039E000EB2DFA2FE114F10431F0D7011396FC937B
:1039F000EE93129744C0F0932B04E0932A043FC047
:103A00008D919C9111974817590708F4AC017D01DD
:103A100012960D90BC91A02DB3CF80912804909167
:103A2000290488159905E1F446175707C8F48091D1
:103A3000030190910401009741F48DB79EB7409126
:103A4000070150910801841B950BE817F907C8F48A
:103A5000F0932904E0932804F901718360830FC077
:103A6000CB010E94511B7C01009759F0A801BE01B7
:103A70000E944D1DCE010E94E61BC70104C0CE016D
:103A800002C080E090E0CDB7DEB7EEE00C941719ED
:103A900081E090E0F8940C94641DFB01DC0102C00D
:103AA00001900D9241505040D8F70895DC0101C0BB
:103AB0006D9341505040E0F70895FB01DC01019007
:103AC0000D920020E1F7089510E0C9ECD0E004C0A9
:103AD000FE010E94291B2196CA3CD107C9F7F89420
:023AE000FFCF16
:103AE20030300000002C048000000000005C01E681
:103AF2000BF400A3012501030117010000000007D8
:103B020003D702A202750299028502760200000022
:103B120000E801E60BA202E7013C025402CF0100D9
:103B220000000087053A03370336030000000086D1
:083B3200053C033703360300D4
:00000001FF
