:100000000C9463000C948B000C948B000C948A0667
:100010000C948A060C948A060C948B000C948B002A
:100020000C948B000C948B000C948B000C948B0024
:100030000C948B000C948B000C948B000C948B0014
:100040000C94A8030C948B000C9418040C94F203E9
:100050000C948B000C948B000C948B000C948B00F4
:100060000C941A070C948B00000000002400270059
:100070002A0000000008000201000003040700003D
:1000800000000000000000000000230026002900FE
:10009000010204081020408001020408102001021F
:1000A0000408102000000000250028002B00040494
:1000B0000404040404040202020202020303030310
:1000C0000303740C6A0C11241FBECFEFD8E0DEBF0F
:1000D000CDBF11E0A0E0B1E0E2E8F2E202C005909D
:1000E0000D92A435B107D9F724E0A4E5B1E001C031
:1000F0001D92A533B207E1F710E0C2E6D0E004C0DC
:100100002197FE010E94F50FC136D107C9F70E9461
:100110001F0A0C9434110C940000CF92DF92EF92DE
:10012000FF920F931F93CF93DF936C017A018B01A2
:10013000C0E0D0E0CE15DF0589F0D8016D918D01CA
:10014000D601ED91FC910190F081E02DC601099559
:10015000892B11F47E0102C02196ECCFC701DF91FB
:10016000CF911F910F91FF90EF90DF90CF90089566
:100170002F923F924F925F926F927F928F929F92B7
:10018000AF92BF92CF92DF92EF92FF920F931F93A5
:10019000CF93DF93CDB7DEB7C752D1400FB6F894F7
:1001A000DEBF0FBECDBF8B01FB01E280F380CC240C
:1001B000C394C092310288E6D82ED0925302109296
:1001C00032021092540260E082EF92E00E94C90570
:1001D00081E00E947B090E94D80982EF92E00E9490
:1001E0004705982F92959F708F70382EFAE09F9F49
:1001F000300C1124C0923102D0925302109232027C
:100200001092540261E082EF92E00E94C90581E001
:100210000E947B090E94D80982EF92E00E94470564
:10022000982F92959F708F702AE0929F800D1124D5
:10023000C95DDE4F8883C752D140C0923102D0924F
:100240005302109232021092540262E082EF92E066
:100250000E94C90581E00E947B090E94D80982EFB3
:1002600092E00E944705282F2F7086FF04C08295D8
:100270008170880F04C08695869586958670982F24
:10028000990F990F890F282E220EB70180E090E078
:100290000E94160F4B015C0120E030E040E451E485
:1002A0000E946E0E2B013C017E0131EFE30EF11C2A
:1002B000670184E3C80ED11C60E070E0CB01CB5D28
:1002C000DE4FF982E882C552D140F7016193719304
:1002D000819391937F01A30192010E94020EEC147D
:1002E000FD0499F720E030E04CE652E4C501B4018A
:1002F0000E946E0E4B015C019E012F5F3F4F690112
:1003000060E070E0CB017901F60161937193819314
:1003100091936F01A50194010E94020ECB5DDE4F07
:1003200028813981C552D140C216D30669F7F70139
:1003300034E0339EE00DF11D112480809180A28075
:10034000B38020E030E0A901C501B4010E94A40FF0
:1003500020E030E040E05FE387FD05C0C501B40167
:100360000E94020E04C0C501B4010E94010E0E9449
:10037000E00E362EF701C95DDE4F9881C752D1409D
:1003800084E0989FE00DF11D1124C080D180E280AF
:10039000F38020E030E0A901C701B6010E94A40F5C
:1003A00020E030E040E05FE387FD05C0C701B60113
:1003B0000E94020E04C0C701B6010E94010E0E94F5
:1003C000E00E562EE1EFF0E0EC0FFD1F24E0229E40
:1003D000E00DF11D1124C080D180E280F38020E087
:1003E00030E0A901C701B6010E94A40F20E030E06F
:1003F00040E05FE387FD05C0C701B6010E94020E21
:1004000004C0C701B6010E94010E0E94E00E462EF4
:10041000E32CF12C570131E0A31AB10820E030E0C1
:100420004FE350E0B501C8010E940F0920E030E021
:100430004FEF50E0B701C8010E940F098FEFE81A93
:10044000F80A20E030E04FE350E0B701C8010E9415
:100450000F09652C712C430191E0891A910820E065
:100460003FE340E050E0B401C8010E940F0920E0E2
:100470003FEF40E050E0B301C8010E940F09EFEFE9
:100480006E1A7E0A20E03FE340E050E0B301C8016D
:100490000E940F09C42CD12CB601615071092FE3C1
:1004A00030E040E050E0C8010E940F092FEF30E03B
:1004B00040E050E0B601C8010E940F09B6016F5F2D
:1004C0007F4F2FE330E040E050E0C8010E940F0969
:1004D000531010C020E030E04FE350E0B501C801F8
:1004E0000E940F0920E030E04FE350E0B701C8015F
:1004F0000E940F09431030C020E030E04FE350E08D
:10050000B501C8010E940F0920E030E04FE350E040
:10051000B701C8010E940F09451049C020E03FE320
:1005200040E050E0B401C8010E940F0920E03FE321
:1005300040E050E0B301C8010E940F0920E030E024
:100540004FE350E0B501C8010E940F0920E030E000
:100550004FE350E0B7010FC0451029C020E03FE352
:1005600040E050E0B401C8010E940F0920E03FE3E1
:1005700040E050E0B301C801C95DDE4F0FB6F8940A
:10058000DEBF0FBECDBFDF91CF911F910F91FF90C6
:10059000EF90DF90CF90BF90AF909F908F907F9023
:1005A0006F905F904F903F902F900C940F09C95D12
:1005B000DE4F0FB6F894DEBF0FBECDBFDF91CF91F7
:1005C0001F910F91FF90EF90DF90CF90BF90AF9071
:1005D0009F908F907F906F905F904F903F902F9063
:1005E000089585E592E00E947B0421E0892B09F4BF
:1005F00020E0822F089590E0FC01EE58FF4F3491E7
:10060000FC01E057FF4F2491FC01E255FF4FE491BC
:10061000EE2309F43BC0332339F1333091F038F441
:100620003130A9F0323001F584B58F7D12C03730FA
:1006300091F03830A1F03430B9F4809180008F7D92
:1006400003C0809180008F77809380000DC084B5B7
:100650008F7784BD09C08091B0008F7703C08091EF
:10066000B0008F7D8093B000F0E0EE0FFF1FEC55DF
:10067000FF4FA591B4918FB7F894EC91611103C02D
:1006800020952E2301C02E2B2C938FBF0895CF933E
:10069000DF9390E0FC01E057FF4F2491FC01E2550D
:1006A000FF4F8491882361F190E0880F991FFC012E
:1006B000E859FF4FC591D491FC01EC55FF4FA5912E
:1006C000B491611109C09FB7F89488812095822365
:1006D0008883EC912E230BC0623061F49FB7F894AD
:1006E0003881822F809583238883EC912E2B2C9345
:1006F0009FBF06C08FB7F894E8812E2B28838FBF49
:10070000DF91CF9108953FB7F89480915D0190916A
:100710005E01A0915F01B091600126B5A89B05C064
:100720002F3F19F00196A11DB11D3FBFBA2FA92F70
:10073000982F8827820F911DA11DB11DBC01CD01ED
:1007400042E0660F771F881F991F4A95D1F70895D9
:100750001F920F920FB60F9211242F933F938F93F6
:100760009F93AF93BF938091590190915A01A091AB
:100770005B01B0915C013091580123E0230F2D37CC
:1007800020F40196A11DB11D05C026E8230F029695
:10079000A11DB11D209358018093590190935A01D6
:1007A000A0935B01B0935C0180915D0190915E012B
:1007B000A0915F01B09160010196A11DB11D8093D0
:1007C0005D0190935E01A0935F01B0936001BF91C2
:1007D000AF919F918F913F912F910F900FBE0F90EE
:1007E0001F9018951F920F920FB60F9211242F93FE
:1007F0003F934F935F936F937F938F939F93AF93A9
:10080000BF93EF93FF9385E592E00E940006FF916E
:10081000EF91BF91AF919F918F917F916F915F9178
:100820004F913F912F910F900FBE0F901F901895F1
:100830001F920F920FB60F9211242F938F939F93B5
:10084000EF93FF93E0916502F09166028081E09161
:100850006B02F0916C0282FD12C0908180916E0259
:100860008F5F8F7320916F02821751F0E0916E02BB
:10087000F0E0EB5AFD4F958F80936E0201C08081AE
:10088000FF91EF919F918F912F910F900FBE0F903D
:100890001F901895FC01538D448D252F30E0842F37
:1008A00090E0821B930B541710F0CF960895019798
:1008B0000895FC01918D828D981761F0828DDF0182
:1008C000A80FB11D5D968C91928D9F5F9F73928F43
:1008D00090E008958FEF9FEF0895FC01918D828D38
:1008E000981731F0828DE80FF11D858D90E0089505
:1008F0008FEF9FEF0895FC01918D228D892F90E05D
:10090000805C9F4F821B91098F739927089580E027
:1009100090E0892B29F00E94F10281110C940000D3
:10092000089520915601309157012817390771F425
:100930009091540180915501981741F0E091540134
:10094000F0E0E855FE4F808190E008958FEF9FEF33
:10095000089508951F93CF93DF93DC015C962D914A
:100960003C915D972115310539F481E090E01396B3
:100970009C938E9312973DC05196ED91FC915297A6
:1009800050969C915097892F80951FB75E964C91F9
:100990005E9741FB772770F941FD6095F89440819F
:1009A000772311F0492B01C048234083E9012197A7
:1009B000F1F748E0508160FF02C0592B01C0582375
:1009C0005083E9012197F1F76695415099F7772314
:1009D00021F090818923808303C08081982B9083AC
:1009E0001FBF5C968D919C915D970197F1F721E077
:1009F00030E0C901DF91CF911F91089520915601F8
:100A0000309157012817390771F4809155012091D1
:100A1000540190E0805C9F4F821B910960E470E07C
:100A20000E94E10F089580E090E008952091560122
:100A30003091570128173907B9F4909154018091EA
:100A40005501981789F0E0915401F0E0E855FE4F08
:100A500080812091540130E02F5F3F4F2F73332767
:100A60002093540190E008958FEF9FEF089508952B
:100A7000E091E9018091E801E81730F4F0E0E651F7
:100A8000FE4F808190E008958FEF9FEF0895909141
:100A9000E9018091E801981750F4E92FF0E0E65160
:100AA000FE4F208130E09F5F9093E90102C02FEF5D
:100AB0003FEFC90108958091E80190E02091E9019C
:100AC000821B91090895089580E090E0089585EDD6
:100AD0008093BC008091BC0084FDFCCF109230025A
:100AE000089540918301262F30E0240F311D2132DB
:100AF0003105DCF4209130022430C9F4FC0180E09F
:100B000090E0861758F4309183012191DC01AF59B0
:100B1000BE4FA30FB11D2C930196F3CF809183019B
:100B2000680F6093830180E0089581E0089582E07A
:100B30000895CF92DF92EF92FF920F931F93CF937E
:100B4000DF937C01262F972F8A0180913102882321
:100B500091F0C62FD72F6E01C40ED51ECC15DD0522
:100B600071F06991D701ED91FC910190F081E02D38
:100B7000C7010995F3CF642F822F0E947105C80128
:100B8000DF91CF911F910F91FF90EF90DF90CF9069
:100B90000895CF93DF931F92CDB7DEB7698320917D
:100BA00031022223D1F020915402203240F021E082
:100BB00030E0FC013383228380E090E015C0809117
:100BC0003202E82FF0E0ED5CFD4F998190838F5F5A
:100BD000809332028093540205C061E0CE010196F9
:100BE0000E94710581E090E00F90DF91CF91089510
:100BF000089508950E9428110C9490100C94901060
:100C0000FC01848DDF01A80FB11DA35ABF4F2C91A9
:100C1000848D90E001968F739927848FA689B78978
:100C20002C93A089B1898C9180648C93938D848D51
:100C3000981306C00288F389E02D80818F7D808320
:100C40000895EF92FF920F931F93CF93DF93EC01E0
:100C500081E0888F9B8D8C8D981305C0E889F98978
:100C6000808185FD24C0F62E0B8D10E00F5F1F4F95
:100C70000F731127E02E8C8DE8120CC00FB607FC05
:100C8000FACFE889F989808185FFF5CFCE010E94EE
:100C90000006F1CF8B8DFE01E80FF11DE35AFF4FE7
:100CA000F0820B8FEA89FB898081806207C0EE8920
:100CB000FF896083E889F98980818064808381E08D
:100CC00090E0DF91CF911F910F91FF90EF900895E9
:100CD000CF93DF93EC01888D8823C9F0EA89FB89E3
:100CE000808185FD05C0A889B9898C9186FD0FC0DA
:100CF0000FB607FCF5CF808185FFF2CFA889B989AF
:100D00008C9185FFEDCFCE010E940006E7CFDF91E9
:100D1000CF9108951F920F920FB60F9211242F9327
:100D20003F934F935F936F937F938F939F93AF9373
:100D3000BF93EF93FF93E0915601F09157013097E5
:100D400009F451C0968DA685B785858591FF04C0AD
:100D50009C91892329F447C09C91892309F043C0C1
:100D6000A389B4899C918589809589238C938689F0
:100D700097890197F1F7608D718DA685B7855585A7
:100D800038E020E0CB010197F1F7822F90E09595B4
:100D90008795282F4C91452309F02068315091F711
:100DA000868D81FD20958091550190E001968F738D
:100DB000992730915401381749F0A0915501B0E0BE
:100DC000A855BE4F2C938093550103C0868D81603A
:100DD000868F828D938D0197F1F7A389B4899C91B9
:100DE0008589892B8C93FF91EF91BF91AF919F9152
:100DF0008F917F916F915F914F913F912F910F90C4
:100E00000FBE0F901F901895E0915601F091570179
:100E1000E817F90769F4A389B4899C9185898095BD
:100E200089238C93109257011092560181E0089506
:100E300080E008951F920F920FB60F9211242F9306
:100E40003F934F935F936F937F938F939F93AF9352
:100E5000BF93EF93FF938091B900887F803609F4A8
:100E60009CC068F5883209F45BC090F4803109F4C5
:100E700054C038F4882309F4F6C0883009F44DC012
:100E8000F6C0883109F44CC0803209F45DC0EFC06F
:100E9000803409F468C048F4803309F455C08833BD
:100EA00009F0E5C080932E02D8C0803509F44FC008
:100EB000883509F45DC0883409F0D9C0D6C08839B6
:100EC00009F4C7C0A8F4883709F467C038F4883635
:100ED00009F463C0803709F460C0C9C0883809F4D8
:100EE000B8C0803909F45FC0803809F0C0C05BC069
:100EF000803B09F486C038F4803A09F466C0883A29
:100F000009F47FC0B4C0803C09F4A7C0883C09F450
:100F1000A4C0883B09F48AC0AAC080910B0210C00B
:100F200090912D0280912C02981770F5E0912D027E
:100F300081E08E0F80932D02F0E0E45FFD4F808111
:100F40008093BB0085EC86C080932E028EC0E0911A
:100F50002D0281E08E0F80932D028091BB00F0E086
:100F6000E45FFD4F808390912D0280912C026EC032
:100F7000E0912D0281E08E0F80932D028091BB00C5
:100F8000F0E0E45FFD4F808380912F0281116DC0FE
:100F900081E080930A0284EA61C083E0809330029A
:100FA0001092A701CFCF8091A701803208F051C0E5
:100FB000E091A70181E08E0F8093A7018091BB0093
:100FC000F0E0E957FE4F8083BDCF85EC8093BC00F5
:100FD000109230028091A701803230F4E091A70195
:100FE000F0E0E957FE4F10826091A70170E0E091B8
:100FF0008501F091860187E891E009951092A7019B
:1010000036C084E0809330021092840110928301F4
:10101000E0918101F0918201099580918301811114
:1010200005C081E08093830110926101E091840109
:1010300081E08E0F80938401F0E0EF59FE4F8081B4
:101040008093BB009091840180918301981708F4EC
:1010500079CF85E88093BC000AC085EC8093BC0002
:101060001092300204C010922E020E946705FF9178
:10107000EF91BF91AF919F918F917F916F915F9110
:101080004F913F912F910F900FBE0F901F90189589
:1010900008950895CF92DF92EF92FF920F931F93DE
:1010A000CF93DF93CDB7DEB729970FB6F894DEBFA5
:1010B0000FBECDBF8C010E948303D8011E96CD9038
:1010C000DD90ED90FC905197DC01CB018C199D09CE
:1010D000AE09BF098C329140A105B10560F3F894C7
:1010E000D80114968D919C9115979A8389831896AF
:1010F000ED91FC9119977F01BFEFEB1AFB0A8081FC
:101100008B83F80190810288F389E02DD8015496F1
:101110008C91992309F430C09081982B9C83908105
:10112000809589238D838D818E8388E08F835C8178
:101130006D814B813F812E8189819A81D7015083B6
:1011400047FD252F3A952083262F39F0441F00C0F4
:1011500000006083000000C0F2CF38E04D91608352
:101160000000019761F7D8015396FC93EE935297D4
:101170004B833F832E833AC09081982B9C83908130
:10118000809589238D838D81888788E089875C811C
:101190006D814B813985288589819A81D70150835A
:1011A00047FD252F00C000C0208300C000C000C044
:1011B00000C000C060830000262F3A9541F0441F14
:1011C000000000C000C000C000C000C0E8CF38E090
:1011D0004D9100C0608300C0019709F7D801539674
:1011E000FC93EE9352974B83398728879A838983A0
:1011F00078940E948303F80166877787808B918BB0
:1012000029960FB6F894DEBF0FBECDBFDF91CF9108
:101210001F910F91FF90EF90DF90CF9008958F92E4
:101220009F92AF92BF92CF92DF92EF92FF920F9375
:101230001F93CF93DF93FC01828193816817790715
:1012400008F04CC04A01AA24BB24B82DC32ED42ECA
:10125000E52EFF24AC2D922F8781882361F0889E94
:1012600040011124B92DC89E60011124AD2D289F85
:10127000E00111249D2FD584C285E084F184DC1225
:1012800008C09B01220F331F620F731F6E0D7F1D5D
:1012900016C0660F771F660F771F6E0D7F1D052F17
:1012A000112722273327EB01CD0DD11D882329F0EB
:1012B000089F90011124232F01C0202F28838285AD
:1012C000EB01C80FD11DB8838385EB01C80FD11D79
:1012D000A8838485FB01E80FF11D9083DF91CF91F6
:1012E0001F910F91FF90EF90DF90CF90BF90AF9044
:1012F0009F908F900895382F20915402909153021F
:10130000213208F049C0809130028111FCCF42E0C7
:101310004093300230932F023FEF30932E02109211
:101320002D0220932C02A3E3B2E04CE052E0FA013C
:101330003E2F341B321718F43D913193F9CF1092A0
:101340000B0220910B02990F922B90930B0290911C
:101350000A02913061F410920A0290910B0290936C
:10136000BB009091BC0093FDF8CF95EC01C095EEC9
:101370009093BC00909130029230E1F390912E0254
:101380009F3F79F080912E02803241F080912E02B1
:10139000803331F084E005C081E003C082E001C009
:1013A00083E010923202109254021092310208959A
:1013B000809130028111FCCF81E0809330028093D4
:1013C0002F029FEF90932E0210922D0210922C026A
:1013D00080930B0280910B02806D80930B028091B1
:1013E0000A02813061F410920A0280910B0280930C
:1013F000BB008091BC0083FDF8CF85EC01C085EE79
:101400008093BC00809130028130E1F380912D0205
:10141000811103C080912D0201C081E0ACE0B2E0F7
:101420002AEE31E0F9019E2F921B981718F49D9136
:101430009193F9CF1092E9018093E8010895CF9339
:10144000DF93CDB7DEB7E4970FB6F894DEBF0FBEDB
:10145000CDBF789484B5826084BD84B5816084BD3D
:1014600085B5826085BD85B5816085BD80916E0042
:10147000816080936E001092810080918100826073
:1014800080938100809181008160809381008091B0
:1014900080008160809380008091B100846080939F
:1014A000B1008091B00081608093B00080917A009B
:1014B000846080937A0080917A00826080937A00C1
:1014C00080917A00816080937A0080917A008068B0
:1014D00080937A001092C10062E080912B040E94F8
:1014E000470360E080912C040E9447031092E901B9
:1014F0001092E801109232021092540210923002BF
:1015000081E080932F0210920A0261E082E10E9442
:10151000FB0261E083E10E94FB028091B9008E7FB3
:101520008093B9008091B9008D7F8093B90088E4E1
:101530008093B80085E48093BC00E0912804F0918A
:1015400029044481558160E070E0808591850E9486
:101550002D11E0912804F091290467816333F9F09B
:1015600020853185615031F070E08FEF92E30E9469
:10157000CD0F02C060E070E0D90144815581CD01FA
:10158000821B930B8417950740F44C91469FC00132
:10159000479F900D11249D93F0CF83E387830091A3
:1015A000280410912904F801868187FD08C061E0B4
:1015B0000E94470360E0F80186810E94FB0281E0FF
:1015C000F80181838091280490912904FC012085F1
:1015D0003185232B11F00E944A08E0916502F091B9
:1015E000660282E08083E0916102F09162021082E3
:1015F000E0916302F091640280E1808310926D02B9
:10160000E0916902F0916A0286E08083E0916702CE
:10161000F0916802808180618083E0916702F0919F
:101620006802808188608083E0916702F09168029F
:10163000808180688083E0916702F09168028081F8
:101640008F7D808310922404109223041092220430
:10165000109221041092200410921F048DE991E051
:10166000909326048093250490911504963108F0F8
:1016700057C02DEB30E03093200420931F042BE95A
:1016800031E030932204209321042CE231E03093A6
:1016900024042093230420916800983050F031E016
:1016A0009E3008F430E081E001C0880F3A95EAF7F7
:1016B00001C084E0822B80936800983038F09E301F
:1016C00040F0963148F020E030E008C02DE630E0F0
:1016D00005C02BE630E002C02CE630E030931D045C
:1016E00020931C04983030F481E001C0880F9A9553
:1016F000EAF70EC0292F30E09E3018F42850310947
:1017000002C02E50310981E001C0880F2A95EAF706
:1017100080931E0480912504909126040197F1F78F
:101720008091230490912404892B21F1809156010A
:1017300090915701F4E089309F07E1F0009711F094
:101740000E940407809127048E7F809327041092C3
:1017500055011092540189E094E0909357018093D1
:101760005601E0911C04F0911D04908180911E04AB
:10177000892B80831E0125E3220E311C5E0181E34B
:10178000A80EB11C009128041091290480902F0408
:1017900090903004F8014481558160E070E08085CC
:1017A00091850E942D11F8016281738180E090E0A3
:1017B0000E94160F20E030E040E451E40E946E0EDB
:1017C0002B013C01CE0101966C017C0160E070E0D0
:1017D000CB01F70161937193819391937F01A301F1
:1017E00092010E94020EE214F30499F7F60141906F
:1017F0005190619071906F0120E030E0A901C30128
:10180000B2010E94A40F20E030E040E05FE387FDDA
:1018100005C0C301B2010E94020E04C0C301B2019F
:101820000E94010E0E94E00EE62EF12CB7016150DD
:1018300071092FE33FE34FE350E0C8010E940F0915
:101840002FEF3FEF4FEF50E0B701C8010E940F09A3
:10185000B7016F5F7F4F2FE33FE34FE350E0C801D5
:101860000E940F09CA14DB0409F6B801C4010E94E2
:10187000B800F80180859185892B19F0C8010E9474
:101880004A080E9483032B013C018AE0C82ED12C18
:10189000E12CF12C0E948303DC01CB018419950912
:1018A000A609B709883E9340A105B10558F0F1E0BB
:1018B000CF1AD108E108F10828EE420E23E0521EAB
:1018C000611C711CC114D104E104F10419F70E94D8
:1018D000870458CF8EE291E090930A048093090424
:1018E00089E094E00C940407EF92FF920F931F930A
:1018F000CF93DF93CDB7DEB7DA950FB6F894DEBF9E
:101900000FBECDBF109258021092570288EE93E09E
:10191000A0E0B0E08093590290935A02A0935B023A
:10192000B0935C022AE031E03093560220935502D6
:1019300025EC30E0309362022093610224EC30E029
:10194000309364022093630220EC30E0309366020F
:101950002093650221EC30E0309368022093670207
:1019600022EC30E030936A022093690226EC30E0EA
:1019700030936C0220936B0210926E0210926F02F1
:1019800010927002109271021092F5021092F402FD
:101990008093F6029093F702A093F802B093F902B5
:1019A0008CE191E09093F3028093F20281E090E069
:1019B0000E94FB0F9093300480932F0484E0809367
:1019C0002A0432E0F32EF0922B048EE080932C0454
:1019D0008AE080932D048BE080932E0485E190E0D3
:1019E0000E94FB0F8C01DC0111961C921197179637
:1019F0001C92FC0116861786108A118A81E0858761
:101A000082871386F486808348E9E42EFF24F394CA
:101A1000F582E48288E991E00E94FB0FD8011996D3
:101A20009C938E931897009769F0FC01970111928F
:101A300021503040E1F788E890E013969C938E9314
:101A4000129709C0D80115961C921E9214971396EE
:101A50001C921E92129784E0F8018683818188236C
:101A600041F061E084E00E94470360E084E00E946E
:101A7000FB02E2EBF0E0E491F0E0EE0FFF1FEC552B
:101A8000FF4F85919491D80153969C938E935297D2
:101A9000E4E9F0E0E4915496EC9310932904009368
:101AA000280400912D0410912E0410920C04109221
:101AB0000B0488EE93E0A0E0B0E080930D049093D7
:101AC0000E04A0930F04B09310048EE291E0909363
:101AD0000A04809309041092200410921F041092AB
:101AE00022041092210410922404109223041092D4
:101AF000260410922504609127046E7F6D7F609309
:101B000027046695617081E06827802F0E94FB02A0
:101B100061E0802F0E944703802F90E0FC01E05796
:101B2000FF4FE491E0931904FC01E255FF4FE4916B
:101B3000F0E0EE0FFF1FEC55FF4F859194919093CD
:101B40001B0480931A0460E0812F0E944703809158
:101B5000270481FD04C061E0812F0E94FB021093E5
:101B60001504812F90E0FC01E057FF4FE491E093D2
:101B70001604FC01E255FF4FE491F0E0EE0FFF1F69
:101B8000EA57FF4F8591949190931804809317041E
:101B90008CE491E0909308048093070481E490E042
:101BA00090930604809305040E94F90D682F70E05D
:101BB00080E090E00E94160F60930104709302048D
:101BC00080930304909304041092FE02CE010196C8
:101BD000909300038093FF02D3950FB6F894DEBF75
:101BE0000FBECDBFDF91CF911F910F91FF90EF906E
:101BF0000895F999FECF92BD81BDF89A992780B5D5
:101C000008955058BB27AA270E94190E0C946A0FFA
:101C10000E945C0F38F00E94630F20F039F49F3F60
:101C200019F426F40C94590F0EF4E095E7FB0C948C
:101C3000530FE92F0E947B0F58F3BA1762077307FF
:101C40008407950720F079F4A6F50C949D0F0EF407
:101C5000E0950B2EBA2FA02D0B01B90190010C01BC
:101C6000CA01A0011124FF27591B99F0593F50F4D4
:101C7000503E68F11A16F040A22F232F342F44272C
:101C8000585FF3CF469537952795A795F040539524
:101C9000C9F77EF41F16BA0B620B730B840BBAF0F4
:101CA0009150A1F0FF0FBB1F661F771F881FC2F75F
:101CB0000EC0BA0F621F731F841F48F48795779573
:101CC0006795B795F7959E3F08F0B0CF9395880F2D
:101CD00008F09927EE0F9795879508950E94820E38
:101CE0000C946A0F0E94630F58F00E945C0F40F042
:101CF00029F45F3F29F00C94530F51110C949E0F5F
:101D00000C94590F0E947B0F68F39923B1F355236C
:101D100091F3951B550BBB27AA27621773078407FE
:101D200038F09F5F5F4F220F331F441FAA1FA9F394
:101D300035D00E2E3AF0E0E832D091505040E69582
:101D4000001CCAF72BD0FE2F29D0660F771F881FE3
:101D5000BB1F261737074807AB07B0E809F0BB0BD6
:101D6000802DBF01FF2793585F4F3AF09E3F5105EA
:101D700078F00C94530F0C949E0F5F3FE4F3983E61
:101D8000D4F3869577956795B795F7959F5FC9F7D3
:101D9000880F911D9695879597F90895E1E0660F54
:101DA000771F881FBB1F621773078407BA0720F0CD
:101DB000621B730B840BBA0BEE1F88F7E095089536
:101DC0000E94E70E6894B1110C949E0F08950E9432
:101DD000830F88F09F5798F0B92F9927B751B0F02B
:101DE000E1F0660F771F881F991F1AF0BA95C9F79F
:101DF00014C0B13091F00E949D0FB1E008950C9491
:101E00009D0F672F782F8827B85F39F0B93FCCF343
:101E1000869577956795B395D9F73EF4909580951B
:101E2000709561957F4F8F4F9F4F0895E89409C03B
:101E300097FB3EF490958095709561957F4F8F4FFD
:101E40009F4F9923A9F0F92F96E9BB279395F69513
:101E5000879577956795B795F111F8CFFAF4BB0F91
:101E600011F460FF1BC06F5F7F4F8F4F9F4F16C0F5
:101E7000882311F096E911C0772321F09EE8872F7F
:101E8000762F05C0662371F096E8862F70E060E03B
:101E90002AF09A95660F771F881FDAF7880F9695B4
:101EA000879597F9089597F99F6780E870E060E05B
:101EB00008959FEF80EC089500240A9416161706E3
:101EC00018060906089500240A941216130614062B
:101ED00005060895092E0394000C11F4882352F08E
:101EE000BB0F40F4BF2B11F460FF04C06F5F7F4F46
:101EF0008F4F9F4F089557FD9058440F551F59F02D
:101F00005F3F71F04795880F97FB991F61F09F3FE6
:101F100079F087950895121613061406551FF2CF0F
:101F20004695F1DF08C0161617061806991FF1CF5F
:101F300086957105610508940895E894BB27662786
:101F40007727CB0197F908950E94A90F08F48FEF26
:101F50000895990F0008550FAA0BE0E8FEEF16163A
:101F60001706E807F907C0F012161306E407F5078D
:101F700098F0621B730B840B950B39F40A2661F001
:101F8000232B242B252B21F408950A2609F4A140A4
:101F9000A6958FEF811D811D0895AA1BBB1B51E1E2
:101FA00007C0AA1FBB1FA617B70710F0A61BB70BC9
:101FB000881F991F5A95A9F780959095BC01CD016E
:101FC000089597FB072E16F4009407D077FD09D0EB
:101FD0000E94CD0F07FC05D03EF4909581959F4F50
:101FE0000895709561957F4F0895EE0FFF1F05903E
:101FF000F491E02D0994CF93DF938230910510F492
:1020000082E090E0E0913304F091340420E030E08D
:10201000C0E0D0E0309711F1408151814817590755
:10202000C0F04817590761F482819381209719F015
:102030009B838A832BC0909334048093330426C0FF
:102040002115310519F04217530718F49A01BE0102
:10205000DF01EF010280F381E02DDCCF2115310596
:1020600009F1281B390B2430310590F412968D911B
:102070009C9113976115710521F0FB019383828375
:1020800004C09093340480933304FD01329644C01D
:10209000FD01E20FF31F81939193225031092D939B
:1020A0003C933AC02091310430913204232B41F407
:1020B00020910201309103013093320420933104C6
:1020C00020910001309101012115310541F42DB716
:1020D0003EB74091040150910501241B350BE0915E
:1020E0003104F0913204E217F307A0F42E1B3F0BEA
:1020F0002817390778F0AC014E5F5F4F241735077A
:1021000048F04E0F5F1F5093320440933104819387
:10211000919302C0E0E0F0E0CF01DF91CF9108950C
:102120000F931F93CF93DF93009709F48CC0FC01AA
:1021300032971382128200913304109134040115F6
:10214000110581F420813181820F931F2091310488
:10215000309132042817390779F5F0933204E0936F
:10216000310471C0D80140E050E0AE17BF0750F411
:1021700012962D913C911397AD012115310509F16E
:10218000D901F3CF9D01DA0133832283608171810C
:10219000860F971F8217930769F4EC012881398114
:1021A000260F371F2E5F3F4F318320838A819B810B
:1021B00093838283452B29F4F0933404E093330412
:1021C00042C01396FC93EE931297ED0149915991F9
:1021D0009E01240F351FE217F30771F4808191816E
:1021E000840F951F029611969C938E938281938102
:1021F00013969C938E931297E0E0F0E0D80112962C
:102200008D919C911397009719F0F8018C01F6CFEE
:102210008D919C9198012E5F3F4F820F931F2091CB
:102220003104309132042817390769F4309729F4C2
:10223000109234041092330402C01382128210935D
:10224000320400933104DF91CF911F910F910895D3
:1022500081E090E0F8940C943411DC0101C06D939E
:1022600041505040E0F7089510E0C2E6D0E004C0CD
:10227000FE010E94F50F2196C336D107C9F7F894E5
:02228000FFCF8E
:102282000000350480000000000021068D004A0491
:1022920068067B0459046D0400000000C905990515
:1022A200640537055B054705380500000000AA04F0
:1022B2008D006405A904FE041605910400000000C7
:1022C2004908FC05F905F805000000004808FE056C
:0422D200F905F8050D
:00000001FF
