:100000000C94CA000C94F2000C94F2000C94960329
:100010000C9496030C9496030C94F2000C94F2004A
:100020000C94F2000C94F2000C94F2000C94F20088
:100030000C94F2000C94F2000C94F2000C94F20078
:100040000C94AA0C0C94F2000C9464030C943E03E0
:100050000C94F2000C94F2000C94F2000C94F20058
:100060000C9410040C94F200FB0E6A0F54139D15AF
:100070009D159D159D15000306090C0F1215181CE2
:100080001F2225282B2E303336393C3F4144474927
:100090004C4E515355585A5C5E60626466686A6C97
:1000A0006D6F70727375767778797A7B7C7C7D7EE4
:1000B0007E7F7F7F7F7F7F7F7F7F7F7F7E7E7D7C58
:1000C0007C7B7A79787776757372706F6D6C6A68FD
:1000D000666462605E5C5A585553514E4C494744C1
:1000E000413F3C393633302E2B2825221F1C181552
:1000F000120F0C09060300FDFAF7F4F1EEEBE8E449
:10010000E1DEDBD8D5D2D0CDCAC7C4C1BFBCB9B738
:10011000B4B2AFADABA8A6A4A2A09E9C9A989694A8
:100120009391908E8D8B8A8988878685848483823B
:100130008281818181810000000023002600290046
:10014000010204081020408001020408102001026E
:100150000408102000000000250028002B000404E3
:10016000040404040404020202020202030303035F
:10017000030300000000240027002A0000000008FC
:10018000000201000003040700000000000000005E
:10019000D915D31511241FBECFEFD8E0DEBFCDBFD8
:1001A00024E0A2E6B1E001C01D92A633B207E1F758
:1001B00011E0A0E0B1E0ECEFF9E302C005900D9290
:1001C000A236B107D9F710E0C9ECD0E004C02197FE
:1001D000FE010E94D81AC83CD107C9F70E94F40C4E
:1001E0000C94F11C0C940000FC01538D448D252FC0
:1001F00030E0842F90E0821B930B541710F0CF96C1
:10020000089501970895FC01918D828D981761F0F2
:10021000828DDF01A80FB11D5D968C91928D9F5F3D
:100220009F73928F90E008958FEF9FEF0895FC01E8
:10023000918D828D981731F0828DE80FF11D858D9B
:1002400090E008958FEF9FEF0895FC01918D228D2E
:10025000892F90E0805C9F4F821B91098F739927B3
:10026000089586E692E00E94250121E0892B09F499
:1002700020E0822F0895FC01848DDF01A80FB11DBD
:10028000A35ABF4F2C91848D90E001968F739927CC
:10029000848FA689B7892C93A089B1898C918064B9
:1002A0008C93938D848D981306C00288F389E02D7A
:1002B00080818F7D80830895EF92FF920F931F932B
:1002C000CF93DF93EC0181E0888F9B8D8C8D981309
:1002D00005C0E889F989808185FD24C0F62E0B8D43
:1002E00010E00F5F1F4F0F731127E02E8C8DE81267
:1002F0000CC00FB607FCFACFE889F989808185FF29
:10030000F5CFCE010E943B01F1CF8B8DFE01E80FAE
:10031000F11DE35AFF4FF0820B8FEA89FB89808140
:10032000806207C0EE89FF896083E889F98980814E
:100330008064808381E090E0DF91CF911F910F91E5
:10034000FF90EF900895CF93DF93EC01888D882381
:10035000C9F0EA89FB89808185FD05C0A889B98932
:100360008C9186FD0FC00FB607FCF5CF808185FF0D
:10037000F2CFA889B9898C9185FFEDCFCE010E947B
:100380003B01E7CFDF91CF91089580E090E0892B8A
:1003900029F00E94310181110C94000008952091F0
:1003A0006401309165012817390771F49091620159
:1003B00080916301981741F0E0916201F0E0E85408
:1003C000FE4F808190E008958FEF9FEF089508958C
:1003D0001F93CF93DF93DC015C962D913C915D9749
:1003E0002115310539F481E090E013969C938E93AA
:1003F00012973DC05196ED91FC91529750969C9169
:100400005097892F80951FB75E964C915E9741FB60
:10041000772770F941FD6095F8944081772311F0BA
:10042000492B01C048234083E9012197F1F748E0B7
:10043000508160FF02C0592B01C058235083E9014D
:100440002197F1F76695415099F7772321F0908134
:100450008923808303C08081982B90831FBF5C9683
:100460008D919C915D970197F1F721E030E0C901F2
:10047000DF91CF911F910895209164013091650122
:100480002817390771F4809163012091620190E08F
:10049000805C9F4F821B910960E470E00E94831A88
:1004A000089580E090E00895209164013091650105
:1004B00028173907B9F49091620180916301981768
:1004C00089F0E0916201F0E0E854FE4F80812091D4
:1004D000620130E02F5F3F4F2F733327209362017B
:1004E00090E008958FEF9FEF08950895E091FA014D
:1004F0008091F901E81730F4F0E0E550FE4F80817B
:1005000090E008958FEF9FEF08959091FA01809108
:10051000F901981750F4E92FF0E0E550FE4F2081E3
:1005200030E09F5F9093FA0102C02FEF3FEFC901C7
:1005300008958091F90190E02091FA01821B9109C0
:100540000895089580E090E0089585ED8093BC00C3
:100550008091BC0084FDFCCF10924102089540912F
:100560009301262F30E0240F311D21323105DCF4B8
:10057000209141022430C9F4FC0180E090E086170C
:1005800058F4309193012191DC01AF58BE4FA30F75
:10059000B11D2C930196F3CF80919301680F609366
:1005A000930180E0089581E0089582E00895CF925C
:1005B000DF92EF92FF920F931F93CF93DF937C0113
:1005C000262F972F8A0180914202882391F0C62F0F
:1005D000D72F6E01C40ED51ECC15DD0571F06991C3
:1005E000D701ED91FC910190F081E02DC7010995B3
:1005F000F3CF642F822F0E94AF02C801DF91CF9109
:100600001F910F91FF90EF90DF90CF900895CF93BF
:10061000DF931F92CDB7DEB7698320914202222378
:10062000D1F020916502203240F021E030E0FC0161
:100630003383228380E090E015C080914302E82F4D
:10064000F0E0EC5BFD4F998190838F5F80934302D4
:100650008093650205C061E0CE0101960E94AF0261
:1006600081E090E00F90DF91CF9108950895089573
:100670000E94D51C0C94731B0C94731B1F920F9239
:100680000FB60F9211242F933F934F935F936F9365
:100690007F938F939F93AF93BF93EF93FF9386E6E0
:1006A00092E00E943B01FF91EF91BF91AF919F912A
:1006B0008F917F916F915F914F913F912F910F900B
:1006C0000FBE0F901F9018951F920F920FB60F92AA
:1006D00011242F938F939F93EF93FF93E0917602D2
:1006E000F09177028081E0917C02F0917D0282FDA1
:1006F00012C0908180917F028F5F8F732091800262
:10070000821751F0E0917F02F0E0EA59FD4F958F9A
:1007100080937F0201C08081FF91EF919F918F9123
:100720002F910F900FBE0F901F9018951F920F9250
:100730000FB60F9211242F933F934F935F936F93B4
:100740007F938F939F93AF93BF93EF93FF93E0912A
:100750006401F0916501309709F451C0968DA6852A
:10076000B785858591FF04C09C91892329F447C0F2
:100770009C91892309F043C0A389B4899C91858900
:10078000809589238C93868997890197F1F7608DED
:10079000718DA685B785558538E020E0CB0101979E
:1007A000F1F7822F90E095958795282F4C9145235E
:1007B00009F02068315091F7868D81FD2095809158
:1007C000630190E001968F73992730916201381789
:1007D00049F0A0916301B0E0A854BE4F2C938093E0
:1007E000630103C0868D8160868F828D938D019712
:1007F000F1F7A389B4899C918589892B8C93FF910A
:10080000EF91BF91AF919F918F917F916F915F9188
:100810004F913F912F910F900FBE0F901F90189501
:100820001F920F920FB60F9211242F933F934F9365
:100830005F936F937F938F939F93AF93BF93EF9348
:10084000FF938091B900887F803609F49CC068F5D9
:10085000883209F45BC090F4803109F454C038F454
:10086000882309F4F6C0883009F44DC0F6C08831F9
:1008700009F44CC0803209F45DC0EFC0803409F443
:1008800068C048F4803309F455C0883309F0E5C0E6
:1008900080933F02D8C0803509F44FC0883509F4F1
:1008A0005DC0883409F0D9C0D6C0883909F4C7C002
:1008B000A8F4883709F467C038F4883609F463C0AF
:1008C000803709F460C0C9C0883809F4B8C08039DD
:1008D00009F45FC0803809F0C0C05BC0803B09F4F8
:1008E00086C038F4803A09F466C0883A09F47FC0BB
:1008F000B4C0803C09F4A7C0883C09F4A4C0883B7C
:1009000009F48AC0AAC080911C0210C090913E02D6
:1009100080913D02981770F5E0913E0281E08E0FC4
:1009200080933E02F0E0E35EFD4F80818093BB0048
:1009300085EC86C080933F028EC0E0913E0281E04C
:100940008E0F80933E028091BB00F0E0E35EFD4F8E
:10095000808390913E0280913D026EC0E0913E0204
:1009600081E08E0F80933E028091BB00F0E0E35E59
:10097000FD4F80838091400281116DC081E08093A2
:100980001B0284EA61C083E0809341021092B701A8
:10099000CFCF8091B701803208F051C0E091B7010C
:1009A00081E08E0F8093B7018091BB00F0E0E956A3
:1009B000FE4F8083BDCF85EC8093BC001092410236
:1009C0008091B701803230F4E091B701F0E0E95650
:1009D000FE4F10826091B70170E0E0919501F091B7
:1009E000960187E991E009951092B70136C084E03D
:1009F000809341021092940110929301E091910131
:100A0000F0919201099580919301811105C081E0D7
:100A10008093930110927101E091940181E08E0F17
:100A200080939401F0E0EF58FE4F80818093BB00EB
:100A30009091940180919301981708F479CF85E8FB
:100A40008093BC000AC085EC8093BC0010924102E8
:100A500004C010923F020E94A502FF91EF91BF9146
:100A6000AF919F918F917F916F915F914F913F9146
:100A70002F910F900FBE0F901F9018951F93CF933B
:100A8000DF93EC01E881F9810084F185E02D09957F
:100A90001816190694F440E050E061E671E083E234
:100AA00094E00E946A0A09C0812F0E94CB0961E08C
:100AB00070E080E090E00E94640CE881F98100849D
:100AC000F185E02DCE01099518161906DCF4E881B0
:100AD000F9810284F385E02DCE010995182FE0916C
:100AE0006602F09167020190F081E02D682F86E6A2
:100AF00092E009951E33C1F68EE30E94CB0981E096
:100B00008093F801DF91CF911F9108950895089582
:100B1000FC014481558160E070E0808591850C94F2
:100B2000E31CFF920F931F93CF93DF93EC01FF24FD
:100B3000F394F60E2F81F21679F10885198521506C
:100B4000B9F06F3F59F430E040E050E06FEF7FEFD5
:100B500080E090E00E94B91AB9010CC08F2D90E09E
:100B6000982F88270197622F70E00E946F1A02C0A9
:100B700060E070E0F8014C815D81CF01801B910B3A
:100B80008417950740F44081469FC001479F900D10
:100B900011249193F0CFFF82DF91CF911F910F919C
:100BA000FF9008958F929F92AF92BF92CF92DF9263
:100BB000EF92FF920F931F93CF93DF93FC018281FB
:100BC00093816817790708F04CC04A01AA24BB2416
:100BD000B82DC32ED42EE52EFF24AC2D922F878165
:100BE000882361F0889E40011124B92DC89E6001C0
:100BF0001124AD2D289FE00111249D2FD584C2859D
:100C0000E084F184DC1208C09B01220F331F620FC5
:100C1000731F6E0D7F1D16C0660F771F660F771F3F
:100C20006E0D7F1D052F112722273327EB01CD0DD8
:100C3000D11D882329F0089F90011124232F01C082
:100C4000202F28838285EB01C80FD11DB8838385AF
:100C5000EB01C80FD11DA8838485FB01E80FF11DAE
:100C60009083DF91CF911F910F91FF90EF90DF90D4
:100C7000CF90BF90AF909F908F900895CF92DF92CA
:100C8000EF92FF920F931F93CF93DF93CDB7DEB711
:100C900029970FB6F894DEBF0FBECDBF8C01DC01E3
:100CA00018968D919C911997892B09F4A3C00E94E5
:100CB0003F0CF801C684D784E088F188DC01CB01C1
:100CC0008C199D09AE09BF098C329140A105B1056F
:100CD00070F3F894D80114968D919C9115979A838E
:100CE00089831896ED91FC9119977F01BFEFEB1A5C
:100CF000FB0A80818987F80190810288F389E02DC1
:100D0000D80154968C91992309F430C09081982B86
:100D100098879081809589238F838F818C8388E049
:100D20008B8358856F8149853B812C8189819A818C
:100D3000D701508347FD252F3A952083262F39F080
:100D4000441F00C000006083000000C0F2CF38E004
:100D50004D9160830000019761F7D8015396FC9391
:100D6000EE93529749873B832C833AC09081982B0E
:100D700098879081809589238F838F818E8388E0E7
:100D80008D8358856F8149853D812E8189819A8126
:100D9000D701508347FD252F00C000C0208300C02D
:100DA00000C000C000C000C060830000262F3A953C
:100DB00041F0441F000000C000C000C000C000C0DF
:100DC000E8CF38E04D9100C0608300C0019709F77B
:100DD000D8015396FC93EE93529749873D832E8317
:100DE0009A83898378940E943F0CF80166877787FD
:100DF000808B918B29960FB6F894DEBF0FBECDBFC6
:100E0000DF91CF911F910F91FF90EF90DF90CF90E6
:100E100008950F931F93CF93DF93EC0188819981FD
:100E2000009729F02A813B812617370788F48B0128
:100E30006F5F7F4F0E940B1C009761F0998388833E
:100E40001B830A832C813D81232B11F4FC0110822A
:100E500081E001C080E0DF91CF911F910F91089553
:100E60002F923F924F925F926F927F928F929F92BA
:100E7000AF92BF92CF92DF92EF92FF920F931F93A8
:100E8000CF93DF93CDB7DEB7CB52D1400FB6F894F6
:100E9000DEBF0FBECDBF8B01DB0112960D90BC9162
:100EA000A02DCA5DDE4FB983A883C652D140EE247F
:100EB000E394E092420298E6F92EF09264021092D6
:100EC00043021092650260E083E093E00E94070312
:100ED00081E00E94E80A0E94450B83E093E00E94B3
:100EE0008502982F92959F708F70BAE09B9F800D1E
:100EF0001124CB5DDE4F8883C552D140E09242027F
:100F0000F0926402109243021092650261E083E065
:100F100093E00E94070381E00E94E80A0E94450BCB
:100F200083E093E00E948502982F92959F708F70C6
:100F3000EAE09E9F800D1124C85DDE4F8883C85271
:100F4000D140E0924202F092640210924302109269
:100F5000650262E083E093E00E94070381E00E9463
:100F6000E80A0E94450B83E093E00E948502CA5D77
:100F7000DE4F28813981C652D140B90180E090E02E
:100F80000E945D174B015C0120E030E040E451E439
:100F90000E9428192B013C017E0131EFE30EF11C68
:100FA000670184E3C80ED11C60E070E0CB0117013B
:100FB000D7016D937D938D939D937D01A301920144
:100FC0000E94BC18EC14FD0499F720E030E04CE6D8
:100FD00052E4C501B4010E9428194B015C01FE01D5
:100FE00031967F0160E070E0CB01D7016D937D9376
:100FF0008D939D937D01A50194010E94BC18E2147C
:10100000F30499F7CA5DDE4F68817981C652D140F9
:101010007695679580E090E00E945D176B017C01FA
:10102000E1E0F0E0EC0FFD1FCB5DDE4F2881C55203
:10103000D140B4E02B9FE00DF11D11244080518080
:1010400062807380A30192010E94BC180E94D5198E
:101050000E94A119262EE1E0F0E0EC0FFD1FC85D13
:10106000DE4F8881C852D14034E0839FE00DF11DEE
:10107000112480809180A280B380A5019401C701D2
:10108000B6010E94BC180E94D5190E94A119CB5D1F
:10109000DE4F6883C552D140CB5EDE4F8881998197
:1010A000AA81BB81C551D140C85DDE4F8883998339
:1010B000AA83BB83C852D1409C01AD01C701B601D0
:1010C0000E94BC180E94D5190E94A119362E822DAB
:1010D00090E0CA5DDE4FA881B981C652D140A81701
:1010E000B90758F4A7019601C301B2010E94BB18C9
:1010F0000E94D5190E94A119262ECB5DDE4FB88122
:10110000C552D1408B2F90E0CA5DDE4FE881F98156
:10111000C652D140E817F90778F4A7019601C50136
:10112000B4010E94BB180E94D5190E94A119CB5D81
:10113000DE4F6883C552D140832D90E0CA5DDE4FFB
:1011400028813981C652D1402817390788F4A70170
:101150009601C85DDE4F688179818A819B81C85282
:10116000D1400E94BB180E94D5190E94A119362EA9
:101170004AE069E070E080E090E00E94A70A87E51D
:1011800091E00E94950A8FE591E00E94950A832DD7
:1011900090E0A0E0B0E04AE0BC01CD010E94A70AC7
:1011A00080E691E00E94950A8FE591E00E94950A01
:1011B000E22CF12C570131E0A31AB10820E030E015
:1011C0004FE350E0B501C8010E94D20520E030E0B5
:1011D0004FEF50E0B701C8010E94D2058FEFE81A27
:1011E000F80A20E030E04FE350E0B701C8010E9468
:1011F000D205CB5DDE4F9881C552D140C92ED12C8E
:101200003601A1E06A1A710820E03FE340E050E0B7
:10121000B301C8010E94D20520E03FEF40E050E05A
:10122000B601C8010E94D2054601BFEF8B1A9B0A86
:1012300020E03FE340E050E0B401C8010E94D20545
:10124000C32CD12CB601615071092FE330E040E08E
:1012500050E0C8010E94D2052FEF30E040E050E09E
:10126000B601C8010E94D205B6016F5F7F4F2FE320
:1012700030E040E050E0C8010E94D205CB5DDE4F77
:10128000E881C552D140E21110C020E030E04FE3C8
:1012900050E0B501C8010E94D20520E030E04FE3E4
:1012A00050E0B701C8010E94D205321052C020E0C0
:1012B00030E04FE350E0B501C8010E94D20520E0C4
:1012C00030E04FE350E0B701C8010E94D205CB5D8A
:1012D000DE4FF881C552D1403F1243C020E03FE3CA
:1012E00040E050E0B301C8010E94D20520E03FE396
:1012F00040E050E0B401C8010E94D205321031C074
:1013000020E030E04FE350E0B501C8010E94D20573
:1013100020E030E04FE350E0B701C801C55DDE4F8B
:101320000FB6F894DEBF0FBECDBFDF91CF911F91F6
:101330000F91FF90EF90DF90CF90BF90AF909F9074
:101340008F907F906F905F904F903F902F900C9474
:10135000D205CB5DDE4F2881C552D140321609F44B
:10136000BDCFC55DDE4F0FB6F894DEBF0FBECDBF5B
:10137000DF91CF911F910F91FF90EF90DF90CF9071
:10138000BF90AF909F908F907F906F905F904F90A5
:101390003F902F9008950F931F93CF93DF9300D02A
:1013A000CDB7DEB789831A820091270410912804F3
:1013B0000F5F1F4FB80183E294E00E940907882362
:1013C000A1F020912304309124048091270490916E
:1013D0002804BE016F5F7F4F820F931F0E94EA1C9B
:1013E000109328040093270481E00F900F90DF9161
:1013F000CF911F910F9108950F931F93809585357D
:1014000060F4682F660F860F282F209590E0A0E0EB
:10141000B0E0BC01CD01822B21C08A3A80F4855511
:10142000982F990F980F692F6095462F50E060E034
:1014300070E08A019B01192BC901B8010FC08A5ABB
:10144000682F660F860F282F209590E0A0E0B0E06F
:10145000DC0199278827BC01CD01722B1F910F91C8
:1014600008958F929F92AF92BF92EF92FF920F9347
:101470001F93CF93DF938C014A015B017901C0E098
:10148000D0E0F80162817381C617D707C0F4A501C7
:101490009401BE01C8010E94D205C8010E943E0607
:1014A00062E370E080E090E00E94640CC7010E945B
:1014B0003E058091F801811102C02196E2CFDF91B3
:1014C000CF911F910F91FF90EF90BF90AF909F90A1
:1014D0008F900895EF92FF920F931F93CF93DF9316
:1014E000EC017B018A01BA010E9409072881398138
:1014F00081110DC02115310519F0C9010E94731B1E
:10150000198218821D821C821B821A8206C01D83CA
:101510000C83B701C9010E94EA1CCE01DF91CF9173
:101520001F910F91FF90EF900895009769F0FC01D3
:1015300001900020E9F73197AF01481B590BBC011E
:1015400086E692E00C948C0B80E090E008958F92F8
:101550009F92AF92BF920F931F93CF93DF93CDB71C
:10156000DEB7A1970FB6F894DEBF0FBECDBF19A2AC
:10157000423008F44AE08E010F5D1F4F842E912CFB
:10158000A12CB12CA50194010E94971AE62FB90154
:10159000CA0101501109EA3014F4E05D01C0E95CB0
:1015A000D801EC93232B242B252B61F7C8010E9433
:1015B000950AA1960FB6F894DEBF0FBECDBFDF919E
:1015C000CF911F910F91BF90AF909F908F900895F2
:1015D000382F2091650290916402213208F049C0B1
:1015E000809141028111FCCF42E04093410230934F
:1015F00040023FEF30933F0210923E0220933D02A3
:10160000A4E4B2E04DE152E0FA013E2F341B321760
:1016100018F43D913193F9CF10921C0220911C02D5
:10162000990F922B90931C0290911B02913061F4C0
:1016300010921B0290911C029093BB009091BC00F1
:1016400093FDF8CF95EC01C095EE9093BC0090917E
:1016500041029230E1F390913F029F3F79F08091F7
:101660003F02803241F080913F02803331F084E0CC
:1016700005C081E003C082E001C083E01092430214
:1016800010926502109242020895809141028111E8
:10169000FCCF81E080934102809340029FEF9093C2
:1016A0003F0210923E0210923D0280931C028091F4
:1016B0001C02806D80931C0280911B02813061F4BA
:1016C00010921B0280911C028093BB008091BC0091
:1016D00083FDF8CF85EC01C085EE8093BC0080913E
:1016E00041028130E1F380913E02811103C080917B
:1016F0003E0201C081E0ADE1B2E02BEF31E0F90143
:101700009E2F921B981718F49D919193F9CF1092E8
:10171000FA018093F9010895CF92DF92EF92FF9240
:101720000F931F93CF93DF936C017A018B01C0E07D
:10173000D0E0CE15DF0589F0D8016D918D01D6017D
:10174000ED91FC910190F081E02DC6010995892B66
:1017500011F47E0102C02196ECCFC701DF91CF9139
:101760001F910F91FF90EF90DF90CF90089590E040
:10177000FC01E458FE4F3491FC01E05CFE4F2491E3
:10178000FC01E25AFE4FE491EE2309F43BC03323FF
:1017900039F1333091F038F43130A9F0323001F5BD
:1017A00084B58F7D12C0373091F03830A1F03430DD
:1017B000B9F4809180008F7D03C0809180008F7785
:1017C000809380000DC084B58F7784BD09C080915F
:1017D000B0008F7703C08091B0008F7D8093B00000
:1017E000F0E0EE0FFF1FEC5AFE4FA591B4918FB7BA
:1017F000F894EC91611103C020952E2301C02E2B8B
:101800002C938FBF0895CF93DF9390E0FC01E05CB1
:10181000FE4F2491FC01E25AFE4F8491882361F12E
:1018200090E0880F991FFC01EE58FE4FC591D491AE
:10183000FC01EC5AFE4FA591B491611109C09FB70C
:10184000F8948881209582238883EC912E230BC005
:10185000623061F49FB7F8943881822F809583239A
:101860008883EC912E2B2C939FBF06C08FB7F894E2
:10187000E8812E2B28838FBFDF91CF9108953FB74A
:10188000F89480912E0490912F04A0913004B0918F
:10189000310426B5A89B05C02F3F19F00196A11D64
:1018A000B11D3FBFBA2FA92F982F8827820F911DF6
:1018B000A11DB11DBC01CD0142E0660F771F881F3D
:1018C000991F4A95D1F708958F929F92AF92BF9238
:1018D000CF92DF92EF92FF926B017C010E943F0C4E
:1018E0004B015C01C114D104E104F104F1F00E9448
:1018F0003F0CDC01CB0188199909AA09BB09883E74
:101900009340A105B10570F321E0C21AD108E108A6
:10191000F10888EE880E83E0981EA11CB11CC1144A
:10192000D104E104F10419F7DDCFFF90EF90DF90CF
:10193000CF90BF90AF909F908F9008952FB7F8945D
:1019400060912A0470912B0480912C0490912D04B5
:101950002FBF08951F920F920FB60F9211242F934D
:101960003F938F939F93AF93BF9380912A0490915D
:101970002B04A0912C04B0912D043091290423E074
:10198000230F2D3720F40196A11DB11D05C026E8B7
:10199000230F0296A11DB11D2093290480932A04D0
:1019A00090932B04A0932C04B0932D0480912E04CB
:1019B00090912F04A0913004B09131040196A11DA3
:1019C000B11D80932E0490932F04A0933004B09304
:1019D0003104BF91AF919F918F913F912F910F90C3
:1019E0000FBE0F901F901895CF93DF93CDB7DEB742
:1019F000C251D1400FB6F894DEBF0FBECDBF789470
:101A000084B5826084BD84B5816084BD85B5826003
:101A100085BD85B5816085BD80916E0081608093B4
:101A20006E0010928100809181008260809381001D
:101A3000809181008160809381008091800081602D
:101A4000809380008091B10084608093B100809188
:101A5000B00081608093B00080917A0084608093B0
:101A60007A0080917A00826080937A0080917A0077
:101A7000816080937A0080917A00806880937A00F8
:101A80001092C10062E080911D040E94030C60E08E
:101A900080911E040E94030C1092FA011092F90129
:101AA00010924302109265021092410281E08093ED
:101AB000400210921B0261E082E10E94B70B61E0DC
:101AC00083E10E94B70B8091B9008E7F8093B900AB
:101AD0008091B9008D7F8093B90088E48093B8002D
:101AE00085E48093BC0080911A0490911B040E94AD
:101AF000880562E380911A0490911B040E9491056D
:101B000000911A0410911B04D80116968C9187FD40
:101B100008C061E00E94030C60E0F80186810E9429
:101B2000B70B81E0D80111968C9380911A049091A3
:101B30001B040E943E06E0917602F091770282E05B
:101B40008083E0917202F09173021082E09174023E
:101B5000F091750280E1808310927E02E0917A021A
:101B6000F0917B0286E08083E0917802F091790227
:101B7000808180618083E0917802F0917902808198
:101B800088608083E0917802F0917902808180689A
:101B90008083E0917802F091790280818F7D80834B
:101BA000E0911804F0911904138E128E118E108E8C
:101BB000178A168A8DE991E0958F848F8485863106
:101BC00008F04DC02DEB30E0378B268B2BE931E050
:101BD000318F208F2CE231E0338F228F909168007B
:101BE000883050F021E08E3008F420E081E001C020
:101BF000880F2A95EAF701C084E0892B809368005A
:101C00009485983038F09E3040F0963148F020E0CE
:101C100030E008C02DE630E005C02BE630E002C021
:101C20002CE630E0348B238B983030F481E001C017
:101C3000880F9A95EAF70EC0292F30E09E3018F4ED
:101C40002850310902C02E50310981E001C0880FAF
:101C50002A95EAF7858B848D958D0197F1F7828D12
:101C6000938D892B49F140916401509165014E1784
:101C70005F0711F14115510571F0DA0153962D916D
:101C80003C915497D9019C91DA0155968C9180959D
:101C90008923D9018C93868D8E7F868F1092630164
:101CA00010926201F0936501E0936401A389B48905
:101CB0009C918589892B8C938091180490911904AB
:101CC0000097F1F3FE01EF5FFE4FCF5FDE4FF98328
:101CD000E883C150D1409E012B5C3F4FCD5FDE4F6A
:101CE00039832883C350D1408091180490911904FE
:101CF0000E943E058091F801882309F46BC0109280
:101D0000F801EDB6FEB68091270490912804019663
:101D10004DB75EB7481B590B0FB6F8945EBF0FBEA8
:101D20004DBF0DB71EB70F5F1F4F60912304709119
:101D30002404C8010E94EA1CD8018C918C3309F05C
:101D400044C011968C9111978035C1F514968C91F1
:101D500014978E33D1F512968C911297898313962E
:101D60008C918A83BE016F5F7F4F80E091E00E947B
:101D7000EA1C80910001803341F58091010180339C
:101D800019F41092700121C0813311F481E013C065
:101D9000823311F482E00FC0833311F483E00BC06F
:101DA000843311F484E007C0853311F485E003C067
:101DB000863359F486E08093700107C0823429F499
:101DC000F80185818E3309F4C4C60FB6F894FEBEBF
:101DD0000FBEEDBEE09170018E2F90E020901A04AE
:101DE00030901B048730910508F0A7C6FC01EC5C1D
:101DF000FF4F0C94D81AC0902104D0902204C10146
:101E00000E948805D10112966D917C91139780E014
:101E100090E00E945D1720E030E040E451E40E9431
:101E200028194B015C01FE0131967F018F0160E0B2
:101E300070E0CB01D8016D937D938D939D938D01BF
:101E4000A50194010E94BC18CD5FDE4FE881F981A5
:101E5000C350D1400E171F0769F75E01F1E3AF0EC3
:101E6000B11CD7016D917D918D919D917D010E9455
:101E7000D5190E94A119062F10E0B801615071090F
:101E80002FE33FE34FE350E0C1010E94D2052FEF63
:101E90003FEF4FEF50E0B801C1010E94D205B801F9
:101EA0006F5F7F4F2FE33FE34FE350E0C1010E949C
:101EB000D205EA14FB04A9F6B101C6010E9430075D
:101EC000C1010E943E066AE070E080E090E00E945E
:101ED000640C3CC60E949E0C00916801109169013F
:101EE00020916A0130916B010617170728073907FF
:101EF00008F02CC6809166019091670180389105A9
:101F000064F580E480937C0080917A008064809303
:101F10007A0080917A0086FDFCCF80917800409114
:101F200079002091660130916701F901E05FFC4F73
:101F3000DF01A058BF4F90E0942B97FD0396959535
:101F400087959595879580588C9310822F5F3F4F8A
:101F500030936701209366019CC381E090E020E00C
:101F600030E040E850E055954795B901640F751F82
:101F700060387105C4F7BA0161507109262337230F
:101F8000240F351F82179307CCF4DC01A05FBC4FF0
:101F9000BD0160587F4FFB011081A901405F5C4F7C
:101FA0007A0140585F4FFA010081FB010083FA017A
:101FB00010834C91F70150815C93408301968038E7
:101FC000910579F697E0A92EB12C61E070E0C15F30
:101FD000DE4FA882CF50D1404B01880C991C20E0E5
:101FE00030E0C901C15FDE4F0880CF50D14002C050
:101FF000880F991F0A94E2F7FC01EA54FF4F4491BD
:10200000FC01EA58FF4FE491842F440F990BAC0177
:1020100055954795C95FDE4F59834883C750D140D6
:10202000E1950E2E000CFF0BCF0195958795C75FAC
:10203000DE4F99838883C950D140D901A057BC4F46
:10204000CF5EDE4FB983A883C151D140F901E05F73
:10205000FC4FCF5EDE4F48815981C151D140460FC0
:10206000571FC55FDE4F59834883CB50D140DA01FB
:102070000C91002E000C110BC95FDE4F4881598175
:10208000C750D140409FC001419F900D509F900D7F
:10209000112446E0959587954A95E1F7DF01A60F53
:1020A000B71FCB5FDE4FB983A883C550D140EC90FA
:1020B0000E2C000CFF08C75FDE4FA881B981C95004
:1020C000D140AE9DA001AF9D500DBE9D500D11247D
:1020D000A6E055954795AA95E1F7B82FB1707B2EEC
:1020E0006A01D594C794572D5C1995958795850FEE
:1020F0004170841BC95FDE4FA881B981C750D140B0
:10210000AE9DA001AF9D500DBE9D500D11247A01D2
:10211000B6E0F594E794BA95E1F7C75FDE4FA88182
:10212000B981C950D140A09FA001A19F500DB09F7F
:10213000500D112416E0559547951A95E1F78A013F
:10214000159507956701D594C7940C0D9E2D917038
:10215000090F4170400F6080062C000C77087594C1
:102160006794CF5EDE4FA881B981C151D1404C90B8
:10217000042C000C550855944794942D981BC55F6A
:10218000DE4FA881B981CB50D1409C93962D941BF2
:10219000CB5FDE4FA881B981C550D1409C93840D9F
:1021A000CF5EDE4FA881B981C151D1408C93460DDD
:1021B0004083A80DB91DCF5EDE4FB983A883C151FE
:1021C000D140E80DF91DCF01805193408038910531
:1021D0000CF43FCF2F5F3F4F2617370709F001CF91
:1021E000B1E0AB1AB108B40109F0F1CE1092670169
:1021F000109266010091660110916701003411058B
:102200000CF041C2F801E05FFC4FDF01A058BF4F66
:102210008C9160816602B00111248802600D711DED
:102220001124072E000C880B990B0E945F170E9447
:10223000FF1920E030E048EC52E40E94BE176B0129
:102240007C0120E030E046E952E40E94D01987FD8D
:1022500013C2C701B6010E94A119C62EFE01319614
:102260007F0160E070E0CB01D7016D937D938D938A
:102270009D937D0124E031E440E95FE30E94BC18B6
:10228000CF5FDE4FE881F981C150D140EE16FF06E5
:1022900059F798012F5F3F4F59010B30110534F06A
:1022A000C8010B970B9708F454C04DC0F801EE0F0E
:1022B000FF1FEE0FFF1F41E050E04C0F5D1FE40FCA
:1022C000F51F60817181828193810E94D5190E94DE
:1022D000A119D62E8C2D90E0A0E0B0E03C01552451
:1022E0004424482A592A6A2A7B2A7501EE0CFF1CCD
:1022F000EE0CFF1C81E090E08C0F9D1FE80EF91E94
:10230000F70160817181828193810E94D5190E94B9
:10231000A119D61628F68D2C912CA3019201B40197
:10232000C1010E94D205D10112966D917C91139743
:102330006150710968197909A3019201C1010E94D4
:10234000D205D394DDCFC80146970B9708F44DC052
:1023500046C0F801EE0FFF1FEE0FFF1F21E030E037
:102360002C0F3D1FE20FF31F6081718182819381E9
:102370000E94D5190E94A119D62E7501EE0CFF1CE2
:10238000EE0CFF1C41E050E04C0F5D1FE40EF51E0B
:102390004C2C512C612C712CF70160817181828150
:1023A00093810E94D5190E94A119D61660F68D2C32
:1023B000912CA3019201B401C1010E94D205D10167
:1023C00012966D917C911397615071096819790982
:1023D000A3019201C1010E94D205D394DDCFC801AF
:1023E00081970B9708F455C04EC0F801EE0FFF1F00
:1023F000EE0FFF1F21E030E02C0F3D1FE20FF31F17
:1024000060817181828193810E94D5190E94A119F6
:10241000D62E8C2D90E0A0E0B0E04424582E692EFA
:102420007A2E482A592A6A2A7B2A7501EE0CFF1C4B
:10243000EE0CFF1C41E050E04C0F5D1FE40EF51E5A
:10244000F70160817181828193810E94D5190E9478
:10245000A119D61620F68D2C912CA3019201B4015E
:10246000C1010E94D205D10112966D917C91139702
:102470006150710968197909A3019201C1010E9493
:10248000D205D394DDCFC8018C970A9708F481C098
:1024900049C0F801EE0FFF1FEE0FFF1F21E030E0F3
:1024A0002C0F3D1FE20FF31F6081718182819381A8
:1024B0000E94D5190E94A119D62E4C2C512C612CAA
:1024C000712C3201552444247501EE0CFF1CEE0CD6
:1024D000FF1C41E050E04C0F5D1FE40EF51EF701BC
:1024E00060817181828193810E94D5190E94A11916
:1024F000D61648F68D2C912CA3019201B401C1018E
:102500000E94D205D10112966D917C911397615072
:10251000710968197909A3019201C1010E94D205CC
:10252000D394DDCFC801C6970A9708F0A5C0F8017B
:10253000EE0FFF1FEE0FFF1F21E030E02C0F3D1FBD
:10254000E20FF31F60817181828193810E94D5190E
:102550000E94A119562E8C2D90E0A0E0B0E04427F7
:10256000582F692F7A2F7C01DD24CC24C42AD52A48
:10257000E62AF72A652C712CAA0CBB1CAA0CBB1CE2
:1025800041E050E04C0F5D1FA40EB51E852C912C30
:1025900068C0F801EE0FFF1FEE0FFF1F21E030E0D3
:1025A0002C0F3D1FE20FF31F6081718182819381A7
:1025B0000E94D5190E94A119D62E4C2C512C612CA9
:1025C000712C762C652C542C44247501EE0CFF1CC8
:1025D000EE0CFF1C41E050E04C0F5D1FE40EF51EB9
:1025E000F70160817181828193810E94D5190E94D7
:1025F000A119D61608F096CF8D2C912CA30192012B
:10260000B401C1010E94D205D10112966D917C9155
:1026100013976150710968197909A3019201C101E9
:102620000E94D205D394DCCF472C450C57E45415B7
:10263000B8F0B401670D711DA7019601C1010E9498
:10264000D205D10112966D917C9113976150710959
:1026500064197109A7019601C1010E94D205739402
:102660006394F50160817181828193810E94D51903
:102670000E94A1196616C0F20F5F1F4F10936701E9
:1026800000936601B7CDC1010E943E06C1010E94C0
:1026900088050E949E0C6093680170936901809385
:1026A0006A0190936B0152C2409018045090190433
:1026B00080910F038230E9F058F48823A1F0813033
:1026C00009F030C2920140E05FEF60E070E016C0B8
:1026D0008430F1F0B8F0863009F024C200E010E058
:1026E000612C712CB6C0920140E050E06FEF70E0B9
:1026F00005C092014FEF50E060E070E0C1010E9420
:10270000310A10C292014FEF5FEF6FEF70E0F6CF2A
:10271000D10112960D911C9113970630110510F4FA
:10272000015001C005E010E001501109612C712C2D
:10273000C12CD12CA12CB12C812C912CE12CF12C71
:10274000D10112966D917C911397E616F70638F534
:10275000EC14FD0420F00E151F0538F40BC00C1509
:102760001D055CF40E151F0540F02FEF3FEF4FEFF6
:1027700050E00CC00C151D05C4F3C4010E946F1A73
:10278000862F8A0D0E94FC099B01AC01B701C10193
:102790000E94D205BFEFEB1AFB0A9394D1CF0E949F
:1027A0009E0C20916C0130916D0140916E01509111
:1027B0006F01DC01CB01821B930BA40BB50B8C3496
:1027C0009105A105B105C0F00F5F1F4FBFEFCB1AF8
:1027D000DB0AF101828193810817190719F4FFEFD1
:1027E0006F1A7F0A0E949E0C60936C0170936D01BA
:1027F00080936E0190936F0123E06216710409F4D7
:1028000091C1D10112962D913C911397C801B90144
:102810000E946F1A8C01C601B9010E946F1A6C01E7
:10282000C1010E943E0664E170E080E090E00E94F9
:10283000640CC2010E943E058091F801811172C1B1
:10284000BFEFAB1ABB0AA114E1E0BE0609F074CFDA
:1028500071CFCB5FDE4F19821882C550D140C75F60
:10286000DE4F19821882C950D140C95FDE4F1982EC
:102870001882C750D1409801012E000C440B550B13
:10288000C55FDE4F288339834A835B83CB50D140B9
:10289000D10112966D917C911397C95FDE4FE8814B
:1028A000F981C750D140E617F70708F08BC0C75F22
:1028B000DE4F88819981C950D1400E946F1ACB5F49
:1028C000DE4F8881C550D140860F0E94FC09C15F50
:1028D000DE4F6883CF50D140C05FDE4F7883C05158
:1028E000D140F82EC55FDE4F688179818A819B8156
:1028F000CB50D1400E945F1720E030E048EC52E41A
:102900000E9428194B015C016F2D70E080E090E07F
:102910000E945F17A50194010E94BE170E949A1998
:10292000C62ED12CE12CF12C7601DD24CC24C05F05
:10293000DE4FF881C051D1406F2F70E080E090E011
:102940000E945F17A50194010E94BE170E949A1968
:10295000D62AC15FDE4F2881CF50D140622F70E070
:1029600080E090E00E945F17A50194010E94BE17CD
:102970000E949A19A7019601262BC95FDE4F688134
:102980007981C750D140C1010E94D205C95FDE4F95
:1029900048815981C750D1404F5F5F4FC95FDE4FBB
:1029A00059834883C750D140C75FDE4F88819981E2
:1029B000C950D1409395C75FDE4F99838883C95032
:1029C000D14066CF6114710491F4B801012E000C5E
:1029D000880B990B0E945F1720E030E046EC52E430
:1029E0000E94581787FF1DC00F5F1F4F1AC0F2E0EB
:1029F0006F167104B1F4CB5FDE4F28813981C55069
:102A0000D140B901330F880B990B0E945F1720E06A
:102A100030E04BE153E40E94D019181614F4015031
:102A20001109C1010E943E0663E070E080E090E081
:102A30000E94640CC2010E943E058091F801811140
:102A400071C0CB5FDE4F48815981C550D1404F5F87
:102A50005F4FCB5FDE4F59834883C550D14041154E
:102A6000514009F0FCCE3FEF631A730A43E064164D
:102A7000710409F0EECE64EF71E080E090E00E9416
:102A8000640CE12CFF24F39400E010E0D1011296D5
:102A90008D919C9113970817190740F0C1010E946E
:102AA0003E06B1E0EB1AF10879F70BC02FEF3FEFCC
:102AB0004FEF50E0B801C1010E94D2050F5F1F4FD8
:102AC000E5CFC2010E943E058091F80181112AC024
:102AD00060ED77E080E090E00E94640CE12CFF2440
:102AE000F39400E010E0F101828193810817190747
:102AF00070F0C1010E943E06F1E0EF1AF10889F77B
:102B000064EF71E080E090E00E94640C0BC02FEF56
:102B10003FEF4FEF50E0B801C1010E94D2050F5FB7
:102B20001F4FE1CF80910F038F5F873018F48093A0
:102B30000F030CC010920F0309C0C1010E94880549
:102B400080911A0490911B040E943E060E94C501C8
:102B5000CBC88281898383818A8384818B83CE01E0
:102B600001960E943217BC01990F880B990B0E94A5
:102B70005F1720E030E048EC52E40E94281920E082
:102B800030E04AE753E40E94BE170E94A1198FEF7C
:102B9000860F8E3F08F019C980911A0490911B048A
:102BA0000E94910512C980912304909124040C94F1
:102BB000731B0F931F93CF93DF93109269021092B0
:102BC000680288EE93E0A0E0B0E080936A02909300
:102BD0006B02A0936C02B0936D022DE031E0309354
:102BE00067022093660225EC30E030937302209355
:102BF000720224EC30E0309375022093740220ECD2
:102C000030E0309377022093760221EC30E030936D
:102C100079022093780222EC30E030937B022093FB
:102C20007A0226EC30E030937D0220937C021092F1
:102C30007F02109280021092810210928202109202
:102C40000603109205038093070390930803A09353
:102C50000903B0930A038FE191E0909304038093FA
:102C6000030310922404109223041092260410925D
:102C70002504109228041092270440E050E061E6F9
:102C800071E083E294E00E946A0A81E090E00E9491
:102C9000DE1A909322048093210484E080931C0424
:102CA00012E010931D048EE080931E048BE080934D
:102CB0001F048AE08093200485E190E00E94DE1AE0
:102CC000EC0119821F821E861F86188A198A81E0EC
:102CD0008D878A871B861C87888308E911E01D83FE
:102CE0000C8388E991E00E94DE1A99878887009713
:102CF00059F0FC019801119221503040E1F788E829
:102D000090E09B838A8304C01D821C821B821A82EE
:102D100084E08E838981882341F061E084E00E9411
:102D2000030C60E084E00E94B70BE2E6F1E0E4917E
:102D3000F0E0EE0FFF1FEC5AFE4F859194919B8BB4
:102D40008A8BE4E4F1E0E491EC8BD0931B04C09314
:102D50001A041091200400911F048FE190E00E945A
:102D6000DE1AEC011B821A8288EE93E0A0E0B0E04C
:102D70008C839D83AE83BF8381E391E099838883B5
:102D80001F8A1E8A198E188E1B8E1A8E1D8E1C8EFF
:102D90006E8D6E7F6D7F6E8F6695617081E06827A6
:102DA000802F0E94B70B61E0802F0E94030C802FC0
:102DB00090E0FC01E05CFE4FE491E88BFC01E25AFC
:102DC000FE4FE491F0E0EE0FFF1FEC5AFE4F8591AD
:102DD00094919A8B898B60E0812F0E94030C8E8DD9
:102DE00081FD04C061E0812F0E94B70B1C87212F59
:102DF00030E0F901E05CFE4FE491ED87F901E25A21
:102E0000FE4FE491F0E0EE0FFF1FEA5CFE4F85916C
:102E100094919F878E87D0931904C09318048FE4F0
:102E200091E0909317048093160481E490E09093CE
:102E30001504809314040E947C18682F70E080E0D1
:102E400090E00E945D1760931004709311048093CA
:102E500012049093130410920F03DF91CF911F91EE
:102E60000F910895FC0188279927E8942191203239
:102E7000E9F3293010F02E30C8F32B3241F02D3217
:102E800039F4689404C00E945017820F911D21915B
:102E900020532A30C0F31EF4909581959F4F0895DA
:102EA0007AE0979F902D879F802D910D1124089592
:102EB0000E949A1708F481E00895E89409C097FBEE
:102EC0003EF490958095709561957F4F8F4F9F4F01
:102ED0009923A9F0F92F96E9BB279395F695879545
:102EE00077956795B795F111F8CFFAF4BB0F11F408
:102EF00060FF1BC06F5F7F4F8F4F9F4F16C08823AF
:102F000011F096E911C0772321F09EE8872F762FE4
:102F100005C0662371F096E8862F70E060E02AF025
:102F20009A95660F771F881FDAF7880F9695879511
:102F300097F90895990F0008550FAA0BE0E8FEEFE6
:102F400016161706E807F907C0F012161306E4076D
:102F5000F50798F0621B730B840B950B39F40A2666
:102F600061F0232B242B252B21F408950A2609F444
:102F7000A140A6958FEF811D811D08950E94D11754
:102F80000C9442180E94341838F00E943B1820F02C
:102F9000952311F00C942B180C94311811240C94D7
:102FA00076180E94531870F3959FC1F3950F50E067
:102FB000551F629FF001729FBB27F00DB11D639FEB
:102FC000AA27F00DB11DAA1F649F6627B00DA11D91
:102FD000661F829F2227B00DA11D621F739FB00D37
:102FE000A11D621F839FA00D611D221F749F3327A7
:102FF000A00D611D231F849F600D211D822F762F40
:103000006A2F11249F5750409AF0F1F088234AF01C
:10301000EE0FFF1FBB1F661F771F881F9150504088
:10302000A9F79E3F510580F00C942B180C9476184C
:103030005F3FE4F3983ED4F3869577956795B7950F
:10304000F795E7959F5FC1F7FE2B880F911D969529
:10305000879597F9089597F99F6780E870E060E099
:1030600008959FEF80EC089500240A941616170621
:1030700018060906089500240A9412161306140669
:1030800005060895092E0394000C11F4882352F0CC
:10309000BB0F40F4BF2B11F460FF04C06F5F7F4F84
:1030A0008F4F9F4F089557FD9058440F551F59F06B
:1030B0005F3F71F04795880F97FB991F61F09F3F25
:1030C00079F087950895121613061406551FF2CF4E
:1030D0004695F1DF08C0161617061806991FF1CF9E
:1030E00086957105610508940895E894BB276627C5
:1030F0007727CB0197F90895F999FECF92BD81BD4D
:10310000F89A992780B508952F923F924F925F9237
:103110006F927F928F929F92AF92BF92CF92DF92E7
:10312000EF92FF920F931F93CF93DF93CDB7DEB74C
:10313000CA1BDB0B0FB6F894DEBF0FBECDBF0994E0
:103140002A88398848885F846E847D848C849B8437
:10315000AA84B984C884DF80EE80FD800C811B8145
:10316000AA81B981CE0FD11D0FB6F894DEBF0FBE74
:10317000CDBFED0108955058BB27AA270E94D31850
:103180000C9442180E94341838F00E943B1820F02A
:1031900039F49F3F19F426F40C9431180EF4E0959D
:1031A000E7FB0C942B18E92F0E94531858F3BA1719
:1031B000620773078407950720F079F4A6F50C944D
:1031C00075180EF4E0950B2EBA2FA02D0B01B90146
:1031D00090010C01CA01A0011124FF27591B99F08D
:1031E000593F50F4503E68F11A16F040A22F232F99
:1031F000342F4427585FF3CF469537952795A795E9
:10320000F0405395C9F77EF41F16BA0B620B730B8F
:10321000840BBAF09150A1F0FF0FBB1F661F771F00
:10322000881FC2F70EC0BA0F621F731F841F48F4B5
:10323000879577956795B795F7959E3F08F0B0CF3E
:103240009395880F08F09927EE0F97958795089525
:103250000E943C190C9442180E943B1858F00E949E
:10326000341840F029F45F3F29F00C942B185111C9
:103270000C9476180C9431180E94531868F3992313
:10328000B1F3552391F3951B550BBB27AA27621762
:103290007307840738F09F5F5F4F220F331F441F6F
:1032A000AA1FA9F335D00E2E3AF0E0E832D09150A3
:1032B0005040E695001CCAF72BD0FE2F29D0660F90
:1032C000771F881FBB1F261737074807AB07B0E8D3
:1032D00009F0BB0B802DBF01FF2793585F4F3AF0D9
:1032E0009E3F510578F00C942B180C9476185F3F94
:1032F000E4F3983ED4F3869577956795B795F7955F
:103300009F5FC9F7880F911D9695879597F9089546
:10331000E1E0660F771F881FBB1F621773078407E2
:10332000BA0720F0621B730B840BBA0BEE1F88F7F1
:10333000E09508950E94A1196894B1110C94761833
:1033400008950E945B1888F09F5798F0B92F99272D
:10335000B751B0F0E1F0660F771F881F991F1AF080
:10336000BA95C9F714C0B13091F00E947518B1E058
:1033700008950C947518672F782F8827B85F39F057
:10338000B93FCCF3869577956795B395D9F73EF419
:1033900090958095709561957F4F8F4F9F4F0895C1
:1033A0000E949A1708F48FEF08950E945B18E8F0C6
:1033B0009E37E8F09639B8F49E3848F4672F782F96
:1033C0008827985FF9CF8695779567959395953976
:1033D000D0F3B62FB1706B0F711D811D20F487954E
:1033E0007795679593950C943F1A0C945A1A0C9400
:1033F000761819F416F40C9431180C945A1A0E9489
:103400005B18B8F39923C9F3B6F39F57550B87FFA1
:103410000E94681A0024A0E640EA90018058569560
:10342000979528F4805C660F771F881F20F0261779
:103430003707480730F4621B730B840B20293129AE
:103440004A2BA69517940794202531254A2758F72B
:10345000660F771F881F20F026173707480730F4BC
:10346000620B730B840B200D311D411DA09581F75C
:10347000B901842F9158880F9695879508958823D0
:1034800071F4772321F09850872B762F07C066239D
:1034900011F499270DC09051862B70E060E02AF05E
:1034A0009A95660F771F881FDAF7880F969587958C
:1034B00097F908959F3F31F0915020F487957795C3
:1034C0006795B795880F911D9695879597F90895FB
:1034D00091505040660F771F881FD2F70895AA1B9E
:1034E000BB1B51E107C0AA1FBB1FA617B70710F0EF
:1034F000A61BB70B881F991F5A95A9F78095909521
:10350000BC01CD01089597FB072E16F4009407D057
:1035100077FD09D00E946F1A07FC05D03EF4909504
:1035200081959F4F0895709561957F4F0895A1E211
:103530001A2EAA1BBB1BFD010DC0AA1FBB1FEE1F2D
:10354000FF1FA217B307E407F50720F0A21BB30B78
:10355000E40BF50B661F771F881F991F1A9469F7F4
:1035600060957095809590959B01AC01BD01CF0150
:103570000895052E97FB1EF400940E94D01A57FD63
:1035800007D00E94971A07FC03D04EF40C94D01A6F
:1035900050954095309521953F4F4F4F5F4F08957F
:1035A00090958095709561957F4F8F4F9F4F0895AF
:1035B000EE0FFF1F0590F491E02D0994CF93DF9358
:1035C0008230910510F482E090E0E0913404F091B3
:1035D000350420E030E0C0E0D0E0309711F14081C8
:1035E000518148175907C0F04817590761F4828183
:1035F0009381209719F09B838A832BC09093350485
:103600008093340426C02115310519F04217530761
:1036100018F49A01BE01DF01EF010280F381E02D71
:10362000DCCF2115310509F1281B390B2430310578
:1036300090F412968D919C9113976115710521F06C
:10364000FB019383828304C09093350480933404F8
:10365000FD01329644C0FD01E20FF31F8193919367
:10366000225031092D933C933AC02091320430917D
:103670003304232B41F4209105013091060130934E
:103680003304209332042091030130910401211569
:10369000310541F42DB73EB7409107015091080123
:1036A000241B350BE0913204F0913304E217F30749
:1036B000A0F42E1B3F0B2817390778F0AC014E5FA2
:1036C0005F4F2417350748F04E0F5F1F50933304A8
:1036D000409332048193919302C0E0E0F0E0CF0187
:1036E000DF91CF9108950F931F93CF93DF930097AE
:1036F00009F48CC0FC0132971382128200913404C9
:10370000109135040115110581F420813181820F5A
:10371000931F20913204309133042817390779F52B
:10372000F0933304E093320471C0D80140E050E0DC
:10373000AE17BF0750F412962D913C911397AD012F
:103740002115310509F1D901F3CF9D01DA01338348
:10375000228360817181860F971F8217930769F416
:10376000EC0128813981260F371F2E5F3F4F3183AF
:1037700020838A819B8193838283452B29F4F09354
:103780003504E093340442C01396FC93EE931297F1
:10379000ED01499159919E01240F351FE217F3075E
:1037A00071F480819181840F951F029611969C93EC
:1037B0008E938281938113969C938E931297E0E06F
:1037C000F0E0D80112968D919C911397009719F013
:1037D000F8018C01F6CF8D919C9198012E5F3F4F9F
:1037E000820F931F20913204309133042817390738
:1037F00069F4309729F4109235041092340402C011
:10380000138212821093330400933204DF91CF911C
:103810001F910F910895A0E0B0E0E1E1FCE10C946C
:103820008818EC01009721F4CB010E94DE1AB8C081
:10383000FC01E60FF71F9C0122503109E217F30744
:1038400008F4ACC0D9010D911C9111970617170708
:10385000B0F00530110508F49FC0C8010497861721
:10386000970708F499C002501109061B170B019322
:1038700011936D937C93CF010E94731B8DC05B01EC
:10388000A01AB10A4C01800E911EA0913404B0918F
:10389000350440E050E0E12CF12C109709F44AC0C7
:1038A000A815B905D1F56D907C901197630182E060
:1038B000C80ED11CCA14DB0480F1A3014A195B09AC
:1038C0006A0182E0C80ED11C1296BC901297139622
:1038D000AC91B5E0CB16D10440F0B282A383518302
:1038E0004083D9016D937C930AC00E5F1F4FC301C3
:1038F000800F911FF90191838083EB2DFA2FE11442
:10390000F10431F0D7011396FC93EE93129744C063
:10391000F0933504E09334043FC08D919C9111974E
:103920004817590708F4AC017D0112960D90BC911F
:10393000A02DB3CF8091320490913304881599055E
:10394000E1F446175707C8F48091030190910401F0
:10395000009741F48DB79EB740910701509108013F
:10396000841B950BE817F907C8F4F0933304E09330
:103970003204F901718360830FC0CB010E94DE1A0B
:103980007C01009759F0A801BE010E94DA1CCE010B
:103990000E94731BC70104C0CE0102C080E090E00A
:1039A000CDB7DEB7EEE00C94A41881E090E0F89477
:1039B0000C94F11CFB01DC0102C001900D924150FE
:1039C0005040D8F70895DC0101C06D93415050403C
:1039D000E0F70895FB01DC0101900D920020E1F772
:1039E000089510E0C9ECD0E004C0FE010E94D81A8E
:0C39F0002196CA3CD107C9F7F894FFCF1C
:1039FC00303000000036048000000000005C018CB8
:103A0C000BF400A3012501030117010000000007BE
:103A1C0003D702A202750299028502760200000009
:103A2C0000E8018C0BA202E7013C025402CF01001A
:103A3C0000000087053A03370336030000000086B8
:103A4C00053C03370336033A20506F733A20000DC0
:023A5C000A005E
:00000001FF
